{
  "_format": "hh-sol-artifact-1",
  "contractName": "SpectraProfile",
  "sourceName": "src/SpectraProfile.sol",
  "abi": [
    {
      "anonymous": false,
      "inputs": [
        {
          "indexed": true,
          "internalType": "address",
          "name": "user",
          "type": "address"
        }
      ],
      "name": "ProfileCreated",
      "type": "event"
    },
    {
      "anonymous": false,
      "inputs": [
        {
          "indexed": true,
          "internalType": "address",
          "name": "user",
          "type": "address"
        }
      ],
      "name": "ProfileDeleted",
      "type": "event"
    },
    {
      "anonymous": false,
      "inputs": [
        {
          "indexed": true,
          "internalType": "address",
          "name": "user",
          "type": "address"
        }
      ],
      "name": "ProfileUpdated",
      "type": "event"
    },
    {
      "inputs": [
        {
          "internalType": "string",
          "name": "_name",
          "type": "string"
        },
        {
          "internalType": "string",
          "name": "_email",
          "type": "string"
        },
        {
          "internalType": "string",
          "name": "_phone",
          "type": "string"
        },
        {
          "internalType": "string",
          "name": "_bio",
          "type": "string"
        },
        {
          "internalType": "uint8",
          "name": "_avatarId",
          "type": "uint8"
        }
      ],
      "name": "createProfile",
      "outputs": [],
      "stateMutability": "nonpayable",
      "type": "function"
    },
    {
      "inputs": [],
      "name": "deleteProfile",
      "outputs": [],
      "stateMutability": "nonpayable",
      "type": "function"
    },
    {
      "inputs": [
        {
          "internalType": "address",
          "name": "_user",
          "type": "address"
        }
      ],
      "name": "getProfile",
      "outputs": [
        {
          "components": [
            {
              "internalType": "string",
              "name": "name",
              "type": "string"
            },
            {
              "internalType": "string",
              "name": "email",
              "type": "string"
            },
            {
              "internalType": "string",
              "name": "phone",
              "type": "string"
            },
            {
              "internalType": "string",
              "name": "bio",
              "type": "string"
            },
            {
              "internalType": "uint8",
              "name": "avatarId",
              "type": "uint8"
            },
            {
              "internalType": "bool",
              "name": "exists",
              "type": "bool"
            }
          ],
          "internalType": "struct SpectraProfile.User",
          "name": "",
          "type": "tuple"
        }
      ],
      "stateMutability": "view",
      "type": "function"
    },
    {
      "inputs": [
        {
          "internalType": "string",
          "name": "_name",
          "type": "string"
        },
        {
          "internalType": "string",
          "name": "_email",
          "type": "string"
        },
        {
          "internalType": "string",
          "name": "_phone",
          "type": "string"
        },
        {
          "internalType": "string",
          "name": "_bio",
          "type": "string"
        },
        {
          "internalType": "uint8",
          "name": "_avatarId",
          "type": "uint8"
        }
      ],
      "name": "updateProfile",
      "outputs": [],
      "stateMutability": "nonpayable",
      "type": "function"
    }
  ],
  "bytecode": "0x608060405234801561000f575f80fd5b50610b5e8061001d5f395ff3fe608060405234801561000f575f80fd5b506004361061004a575f3560e01c80630f53a4701461004e578063668da675146100775780636d4540eb1461008c5780639616bf5b14610094575b5f80fd5b61006161005c36600461073d565b6100a7565b60405161006e91906107ad565b60405180910390f35b61008a6100853660046108e4565b610369565b005b61008a6104f4565b61008a6100a23660046108e4565b6105cc565b6100e36040518060c00160405280606081526020016060815260200160608152602001606081526020015f60ff1681526020015f151581525090565b6001600160a01b0382165f9081526020819052604090819020815160c08101909252805482908290610114906109a3565b80601f0160208091040260200160405190810160405280929190818152602001828054610140906109a3565b801561018b5780601f106101625761010080835404028352916020019161018b565b820191905f5260205f20905b81548152906001019060200180831161016e57829003601f168201915b505050505081526020016001820180546101a4906109a3565b80601f01602080910402602001604051908101604052809291908181526020018280546101d0906109a3565b801561021b5780601f106101f25761010080835404028352916020019161021b565b820191905f5260205f20905b8154815290600101906020018083116101fe57829003601f168201915b50505050508152602001600282018054610234906109a3565b80601f0160208091040260200160405190810160405280929190818152602001828054610260906109a3565b80156102ab5780601f10610282576101008083540402835291602001916102ab565b820191905f5260205f20905b81548152906001019060200180831161028e57829003601f168201915b505050505081526020016003820180546102c4906109a3565b80601f01602080910402602001604051908101604052809291908181526020018280546102f0906109a3565b801561033b5780601f106103125761010080835404028352916020019161033b565b820191905f5260205f20905b81548152906001019060200180831161031e57829003601f168201915b50505091835250506004919091015460ff808216602084015261010090910416151560409091015292915050565b8060018160ff1610158015610382575060068160ff1611155b6103a75760405162461bcd60e51b815260040161039e906109db565b60405180910390fd5b335f90815260208190526040902060040154610100900460ff16156104075760405162461bcd60e51b815260206004820152601660248201527550726f66696c6520616c72656164792065786973747360501b604482015260640161039e565b6040805160c08101825287815260208082018890528183018790526060820186905260ff85166080830152600160a0830152335f9081529081905291909120815181906104549082610a68565b50602082015160018201906104699082610a68565b506040820151600282019061047e9082610a68565b50606082015160038201906104939082610a68565b5060808201516004909101805460a09093015115156101000261ffff1990931660ff9092169190911791909117905560405133907ff10ec97e920cde75887622583772c637595a40b1f7777c18e51ea36cd127475c905f90a2505050505050565b335f90815260208190526040902060040154610100900460ff166105535760405162461bcd60e51b8152602060048201526016602482015275141c9bd99a5b1948191bd95cc81b9bdd08195e1a5cdd60521b604482015260640161039e565b335f9081526020819052604081209061056c82826106eb565b610579600183015f6106eb565b610586600283015f6106eb565b610593600383015f6106eb565b50600401805461ffff1916905560405133907f517b492f6c7db035d7c3c4fa1ce0cb2d05e1f24219256f50fbab78242e544c04905f90a2565b335f90815260208190526040902060040154610100900460ff1661062b5760405162461bcd60e51b8152602060048201526016602482015275141c9bd99a5b1948191bd95cc81b9bdd08195e1a5cdd60521b604482015260640161039e565b8060018160ff1610158015610644575060068160ff1611155b6106605760405162461bcd60e51b815260040161039e906109db565b335f908152602081905260409020806106798882610a68565b50600181016106888782610a68565b50600281016106978682610a68565b50600381016106a68582610a68565b5060048101805460ff191660ff851617905560405133907fbe4ec58a792f909e102ee3d745d0c3b34a4d437a54d903c4db098d31c556422f905f90a250505050505050565b5080546106f7906109a3565b5f825580601f10610706575050565b601f0160209004905f5260205f20908101906107229190610725565b50565b5b80821115610739575f8155600101610726565b5090565b5f6020828403121561074d575f80fd5b81356001600160a01b0381168114610763575f80fd5b9392505050565b5f81518084525f5b8181101561078e57602081850181015186830182015201610772565b505f602082860101526020601f19601f83011685010191505092915050565b602081525f825160c060208401526107c860e084018261076a565b90506020840151601f19808584030160408601526107e6838361076a565b92506040860151915080858403016060860152610803838361076a565b9250606086015191508085840301608086015250610821828261076a565b91505060ff60808501511660a084015260a0840151151560c08401528091505092915050565b634e487b7160e01b5f52604160045260245ffd5b5f82601f83011261086a575f80fd5b813567ffffffffffffffff8082111561088557610885610847565b604051601f8301601f19908116603f011681019082821181831017156108ad576108ad610847565b816040528381528660208588010111156108c5575f80fd5b836020870160208301375f602085830101528094505050505092915050565b5f805f805f60a086880312156108f8575f80fd5b853567ffffffffffffffff8082111561090f575f80fd5b61091b89838a0161085b565b96506020880135915080821115610930575f80fd5b61093c89838a0161085b565b95506040880135915080821115610951575f80fd5b61095d89838a0161085b565b94506060880135915080821115610972575f80fd5b5061097f8882890161085b565b925050608086013560ff81168114610995575f80fd5b809150509295509295909350565b600181811c908216806109b757607f821691505b6020821081036109d557634e487b7160e01b5f52602260045260245ffd5b50919050565b60208082526021908201527f417661746172204944206d757374206265206265747765656e203120616e64206040820152601b60f91b606082015260800190565b601f821115610a6357805f5260205f20601f840160051c81016020851015610a415750805b601f840160051c820191505b81811015610a60575f8155600101610a4d565b50505b505050565b815167ffffffffffffffff811115610a8257610a82610847565b610a9681610a9084546109a3565b84610a1c565b602080601f831160018114610ac9575f8415610ab25750858301515b5f19600386901b1c1916600185901b178555610b20565b5f85815260208120601f198616915b82811015610af757888601518255948401946001909101908401610ad8565b5085821015610b1457878501515f19600388901b60f8161c191681555b505060018460011b0185555b50505050505056fea2646970667358221220d54c171390c9739ac7d6a8b8782eb65f8ecd0813d9c3c398dacb34657fb8ecf164736f6c63430008180033",
  "linkReferences": {},
  "deployedLinkReferences": {}
}