{
  "_format": "hh-sol-artifact-1",
  "contractName": "UGFPaymasterMock",
  "sourceName": "src/ugf/UGFPaymasterMock.sol",
  "abi": [
    {
      "inputs": [
        {
          "internalType": "address",
          "name": "_mockUSD",
          "type": "address"
        }
      ],
      "stateMutability": "nonpayable",
      "type": "constructor"
    },
    {
      "inputs": [
        {
          "internalType": "address",
          "name": "owner",
          "type": "address"
        }
      ],
      "name": "OwnableInvalidOwner",
      "type": "error"
    },
    {
      "inputs": [
        {
          "internalType": "address",
          "name": "account",
          "type": "address"
        }
      ],
      "name": "OwnableUnauthorizedAccount",
      "type": "error"
    },
    {
      "anonymous": false,
      "inputs": [
        {
          "indexed": true,
          "internalType": "address",
          "name": "user",
          "type": "address"
        },
        {
          "indexed": false,
          "internalType": "uint256",
          "name": "mockUSDAmount",
          "type": "uint256"
        },
        {
          "indexed": false,
          "internalType": "bytes4",
          "name": "targetFunction",
          "type": "bytes4"
        }
      ],
      "name": "GasSponsored",
      "type": "event"
    },
    {
      "anonymous": false,
      "inputs": [
        {
          "indexed": true,
          "internalType": "address",
          "name": "previousOwner",
          "type": "address"
        },
        {
          "indexed": true,
          "internalType": "address",
          "name": "newOwner",
          "type": "address"
        }
      ],
      "name": "OwnershipTransferred",
      "type": "event"
    },
    {
      "inputs": [],
      "name": "GAS_PRICE_MODIFIER",
      "outputs": [
        {
          "internalType": "uint256",
          "name": "",
          "type": "uint256"
        }
      ],
      "stateMutability": "view",
      "type": "function"
    },
    {
      "inputs": [],
      "name": "mockUSD",
      "outputs": [
        {
          "internalType": "contract IERC20",
          "name": "",
          "type": "address"
        }
      ],
      "stateMutability": "view",
      "type": "function"
    },
    {
      "inputs": [],
      "name": "owner",
      "outputs": [
        {
          "internalType": "address",
          "name": "",
          "type": "address"
        }
      ],
      "stateMutability": "view",
      "type": "function"
    },
    {
      "inputs": [],
      "name": "renounceOwnership",
      "outputs": [],
      "stateMutability": "nonpayable",
      "type": "function"
    },
    {
      "inputs": [
        {
          "internalType": "address",
          "name": "_mockUSD",
          "type": "address"
        }
      ],
      "name": "setMockUSD",
      "outputs": [],
      "stateMutability": "nonpayable",
      "type": "function"
    },
    {
      "inputs": [
        {
          "internalType": "address",
          "name": "user",
          "type": "address"
        },
        {
          "internalType": "uint256",
          "name": "estimatedGas",
          "type": "uint256"
        },
        {
          "internalType": "bytes4",
          "name": "selector",
          "type": "bytes4"
        }
      ],
      "name": "sponsorTransaction",
      "outputs": [],
      "stateMutability": "nonpayable",
      "type": "function"
    },
    {
      "inputs": [
        {
          "internalType": "address",
          "name": "newOwner",
          "type": "address"
        }
      ],
      "name": "transferOwnership",
      "outputs": [],
      "stateMutability": "nonpayable",
      "type": "function"
    },
    {
      "inputs": [],
      "name": "withdrawFees",
      "outputs": [],
      "stateMutability": "nonpayable",
      "type": "function"
    }
  ],
  "bytecode": "0x608060405234801561000f575f80fd5b506040516106b53803806106b583398101604081905261002e916100d1565b338061005357604051631e4fbdf760e01b81525f600482015260240160405180910390fd5b61005c81610082565b50600180546001600160a01b0319166001600160a01b03929092169190911790556100fe565b5f80546001600160a01b038381166001600160a01b0319831681178455604051919092169283917f8be0079c531659141344cd1fd0a4f28419497f9722a3daafe3b4186f6b6457e09190a35050565b5f602082840312156100e1575f80fd5b81516001600160a01b03811681146100f7575f80fd5b9392505050565b6105aa8061010b5f395ff3fe608060405234801561000f575f80fd5b5060043610610085575f3560e01c8063715018a611610058578063715018a6146100d45780638da5cb5b146100dc578063f1a7ac9f14610100578063f2fde38b14610113575f80fd5b806308f320da146100895780632c4fc80f1461009e578063476343ee146100b15780635fa100ca146100b9575b5f80fd5b61009c6100973660046104ac565b610126565b005b61009c6100ac3660046104cc565b610150565b61009c61027c565b6100c1600181565b6040519081526020015b60405180910390f35b61009c6103c9565b5f546001600160a01b03165b6040516001600160a01b0390911681526020016100cb565b6001546100e8906001600160a01b031681565b61009c6101213660046104ac565b6103dc565b61012e610416565b600180546001600160a01b0319166001600160a01b0392909216919091179055565b5f61015c600184610515565b6001546040516323b872dd60e01b81526001600160a01b038781166004830152306024830152604482018490529293509116906323b872dd906064016020604051808303815f875af11580156101b4573d5f803e3d5ffd5b505050506040513d601f19601f820116820180604052508101906101d8919061053e565b6102295760405162461bcd60e51b815260206004820152601760248201527f5547463a20466565207061796d656e74206661696c656400000000000000000060448201526064015b60405180910390fd5b604080518281526001600160e01b0319841660208201526001600160a01b038616917ffe2d630cd49507d86d9f2f8d2db0f9ee0bd95b9bb255865f141d76f1984c43ce910160405180910390a250505050565b610284610416565b6001546040516370a0823160e01b81523060048201525f916001600160a01b0316906370a0823190602401602060405180830381865afa1580156102ca573d5f803e3d5ffd5b505050506040513d601f19601f820116820180604052508101906102ee919061055d565b6001549091506001600160a01b031663a9059cbb6103135f546001600160a01b031690565b6040516001600160e01b031960e084901b1681526001600160a01b039091166004820152602481018490526044016020604051808303815f875af115801561035d573d5f803e3d5ffd5b505050506040513d601f19601f82011682018060405250810190610381919061053e565b6103c65760405162461bcd60e51b81526020600482015260166024820152751551d18e8815da5d1a191c985dd85b0819985a5b195960521b6044820152606401610220565b50565b6103d1610416565b6103da5f610442565b565b6103e4610416565b6001600160a01b03811661040d57604051631e4fbdf760e01b81525f6004820152602401610220565b6103c681610442565b5f546001600160a01b031633146103da5760405163118cdaa760e01b8152336004820152602401610220565b5f80546001600160a01b038381166001600160a01b0319831681178455604051919092169283917f8be0079c531659141344cd1fd0a4f28419497f9722a3daafe3b4186f6b6457e09190a35050565b80356001600160a01b03811681146104a7575f80fd5b919050565b5f602082840312156104bc575f80fd5b6104c582610491565b9392505050565b5f805f606084860312156104de575f80fd5b6104e784610491565b92506020840135915060408401356001600160e01b03198116811461050a575f80fd5b809150509250925092565b808202811582820484141761053857634e487b7160e01b5f52601160045260245ffd5b92915050565b5f6020828403121561054e575f80fd5b815180151581146104c5575f80fd5b5f6020828403121561056d575f80fd5b505191905056fea2646970667358221220ed200d4eaa84d01f1af8f5ab50f77b1c43575b54d82b6d58bc13cedd28691e2564736f6c63430008180033",
  "linkReferences": {},
  "deployedLinkReferences": {}
}