{"src/SpectraNFT.sol":{"SpectraNFT":{"abi":[{"inputs":[{"internalType":"address","name":"_saasContract","type":"address"}],"stateMutability":"nonpayable","type":"constructor"},{"inputs":[],"name":"AlreadyMintedThisCycle","type":"error"},{"inputs":[{"internalType":"address","name":"sender","type":"address"},{"internalType":"uint256","name":"tokenId","type":"uint256"},{"internalType":"address","name":"owner","type":"address"}],"name":"ERC721IncorrectOwner","type":"error"},{"inputs":[{"internalType":"address","name":"operator","type":"address"},{"internalType":"uint256","name":"tokenId","type":"uint256"}],"name":"ERC721InsufficientApproval","type":"error"},{"inputs":[{"internalType":"address","name":"approver","type":"address"}],"name":"ERC721InvalidApprover","type":"error"},{"inputs":[{"internalType":"address","name":"operator","type":"address"}],"name":"ERC721InvalidOperator","type":"error"},{"inputs":[{"internalType":"address","name":"owner","type":"address"}],"name":"ERC721InvalidOwner","type":"error"},{"inputs":[{"internalType":"address","name":"receiver","type":"address"}],"name":"ERC721InvalidReceiver","type":"error"},{"inputs":[{"internalType":"address","name":"sender","type":"address"}],"name":"ERC721InvalidSender","type":"error"},{"inputs":[{"internalType":"uint256","name":"tokenId","type":"uint256"}],"name":"ERC721NonexistentToken","type":"error"},{"inputs":[],"name":"InsufficientTier","type":"error"},{"inputs":[],"name":"NonTransferable","type":"error"},{"inputs":[],"name":"OnlyNexusCanUpdateMetadata","type":"error"},{"inputs":[{"internalType":"address","name":"owner","type":"address"}],"name":"OwnableInvalidOwner","type":"error"},{"inputs":[{"internalType":"address","name":"account","type":"address"}],"name":"OwnableUnauthorizedAccount","type":"error"},{"anonymous":false,"inputs":[{"indexed":true,"internalType":"address","name":"owner","type":"address"},{"indexed":true,"internalType":"address","name":"approved","type":"address"},{"indexed":true,"internalType":"uint256","name":"tokenId","type":"uint256"}],"name":"Approval","type":"event"},{"anonymous":false,"inputs":[{"indexed":true,"internalType":"address","name":"owner","type":"address"},{"indexed":true,"internalType":"address","name":"operator","type":"address"},{"indexed":false,"internalType":"bool","name":"approved","type":"bool"}],"name":"ApprovalForAll","type":"event"},{"anonymous":false,"inputs":[{"indexed":true,"internalType":"address","name":"user","type":"address"},{"indexed":false,"internalType":"uint256","name":"badgeType","type":"uint256"}],"name":"BadgeMinted","type":"event"},{"anonymous":false,"inputs":[{"indexed":false,"internalType":"uint256","name":"_fromTokenId","type":"uint256"},{"indexed":false,"internalType":"uint256","name":"_toTokenId","type":"uint256"}],"name":"BatchMetadataUpdate","type":"event"},{"anonymous":false,"inputs":[{"indexed":false,"internalType":"uint256","name":"_tokenId","type":"uint256"}],"name":"MetadataUpdate","type":"event"},{"anonymous":false,"inputs":[{"indexed":true,"internalType":"uint256","name":"tokenId","type":"uint256"},{"indexed":false,"internalType":"string","name":"newURI","type":"string"}],"name":"MetadataUpdated","type":"event"},{"anonymous":false,"inputs":[{"indexed":true,"internalType":"address","name":"user","type":"address"},{"indexed":false,"internalType":"uint256","name":"tokenId","type":"uint256"},{"indexed":false,"internalType":"enum SpectraSaaS.PlanTier","name":"tier","type":"uint8"}],"name":"NFTMinted","type":"event"},{"anonymous":false,"inputs":[{"indexed":true,"internalType":"address","name":"previousOwner","type":"address"},{"indexed":true,"internalType":"address","name":"newOwner","type":"address"}],"name":"OwnershipTransferred","type":"event"},{"anonymous":false,"inputs":[{"indexed":true,"internalType":"address","name":"from","type":"address"},{"indexed":true,"internalType":"address","name":"to","type":"address"},{"indexed":true,"internalType":"uint256","name":"tokenId","type":"uint256"}],"name":"Transfer","type":"event"},{"inputs":[],"name":"BADGE_GENESIS","outputs":[{"internalType":"uint256","name":"","type":"uint256"}],"stateMutability":"view","type":"function"},{"inputs":[],"name":"BADGE_NEXUS","outputs":[{"internalType":"uint256","name":"","type":"uint256"}],"stateMutability":"view","type":"function"},{"inputs":[],"name":"BADGE_VECTOR","outputs":[{"internalType":"uint256","name":"","type":"uint256"}],"stateMutability":"view","type":"function"},{"inputs":[{"internalType":"address","name":"user","type":"address"},{"internalType":"uint256","name":"count","type":"uint256"}],"name":"addTransactionCount","outputs":[],"stateMutability":"nonpayable","type":"function"},{"inputs":[{"internalType":"address","name":"to","type":"address"},{"internalType":"uint256","name":"tokenId","type":"uint256"}],"name":"approve","outputs":[],"stateMutability":"nonpayable","type":"function"},{"inputs":[{"internalType":"address","name":"owner","type":"address"}],"name":"balanceOf","outputs":[{"internalType":"uint256","name":"","type":"uint256"}],"stateMutability":"view","type":"function"},{"inputs":[{"internalType":"uint256","name":"tokenId","type":"uint256"}],"name":"burn","outputs":[],"stateMutability":"nonpayable","type":"function"},{"inputs":[{"internalType":"uint256","name":"tokenId","type":"uint256"}],"name":"getApproved","outputs":[{"internalType":"address","name":"","type":"address"}],"stateMutability":"view","type":"function"},{"inputs":[{"internalType":"address","name":"","type":"address"},{"internalType":"uint256","name":"","type":"uint256"}],"name":"hasBadge","outputs":[{"internalType":"bool","name":"","type":"bool"}],"stateMutability":"view","type":"function"},{"inputs":[{"internalType":"address","name":"owner","type":"address"},{"internalType":"address","name":"operator","type":"address"}],"name":"isApprovedForAll","outputs":[{"internalType":"bool","name":"","type":"bool"}],"stateMutability":"view","type":"function"},{"inputs":[{"internalType":"address","name":"","type":"address"}],"name":"lastMintTimestamp","outputs":[{"internalType":"uint256","name":"","type":"uint256"}],"stateMutability":"view","type":"function"},{"inputs":[],"name":"mintGenesisBadge","outputs":[],"stateMutability":"nonpayable","type":"function"},{"inputs":[],"name":"mintNexusBadge","outputs":[],"stateMutability":"nonpayable","type":"function"},{"inputs":[{"internalType":"string","name":"tokenURI","type":"string"}],"name":"mintSubscribedNFT","outputs":[],"stateMutability":"nonpayable","type":"function"},{"inputs":[],"name":"mintVectorBadge","outputs":[],"stateMutability":"nonpayable","type":"function"},{"inputs":[],"name":"name","outputs":[{"internalType":"string","name":"","type":"string"}],"stateMutability":"view","type":"function"},{"inputs":[],"name":"owner","outputs":[{"internalType":"address","name":"","type":"address"}],"stateMutability":"view","type":"function"},{"inputs":[{"internalType":"uint256","name":"tokenId","type":"uint256"}],"name":"ownerOf","outputs":[{"internalType":"address","name":"","type":"address"}],"stateMutability":"view","type":"function"},{"inputs":[],"name":"renounceOwnership","outputs":[],"stateMutability":"nonpayable","type":"function"},{"inputs":[],"name":"saasContract","outputs":[{"internalType":"contract SpectraSaaS","name":"","type":"address"}],"stateMutability":"view","type":"function"},{"inputs":[{"internalType":"address","name":"from","type":"address"},{"internalType":"address","name":"to","type":"address"},{"internalType":"uint256","name":"tokenId","type":"uint256"}],"name":"safeTransferFrom","outputs":[],"stateMutability":"nonpayable","type":"function"},{"inputs":[{"internalType":"address","name":"from","type":"address"},{"internalType":"address","name":"to","type":"address"},{"internalType":"uint256","name":"tokenId","type":"uint256"},{"internalType":"bytes","name":"data","type":"bytes"}],"name":"safeTransferFrom","outputs":[],"stateMutability":"nonpayable","type":"function"},{"inputs":[{"internalType":"address","name":"operator","type":"address"},{"internalType":"bool","name":"approved","type":"bool"}],"name":"setApprovalForAll","outputs":[],"stateMutability":"nonpayable","type":"function"},{"inputs":[{"internalType":"address","name":"_saasContract","type":"address"}],"name":"setSaasContract","outputs":[],"stateMutability":"nonpayable","type":"function"},{"inputs":[{"internalType":"bytes4","name":"interfaceId","type":"bytes4"}],"name":"supportsInterface","outputs":[{"internalType":"bool","name":"","type":"bool"}],"stateMutability":"view","type":"function"},{"inputs":[],"name":"symbol","outputs":[{"internalType":"string","name":"","type":"string"}],"stateMutability":"view","type":"function"},{"inputs":[{"internalType":"uint256","name":"tokenId","type":"uint256"}],"name":"tokenURI","outputs":[{"internalType":"string","name":"","type":"string"}],"stateMutability":"view","type":"function"},{"inputs":[{"internalType":"address","name":"from","type":"address"},{"internalType":"address","name":"to","type":"address"},{"internalType":"uint256","name":"tokenId","type":"uint256"}],"name":"transferFrom","outputs":[],"stateMutability":"nonpayable","type":"function"},{"inputs":[{"internalType":"address","name":"newOwner","type":"address"}],"name":"transferOwnership","outputs":[],"stateMutability":"nonpayable","type":"function"},{"inputs":[{"internalType":"uint256","name":"tokenId","type":"uint256"},{"internalType":"string","name":"newURI","type":"string"}],"name":"updatePremiumMetadata","outputs":[],"stateMutability":"nonpayable","type":"function"},{"inputs":[{"internalType":"address","name":"","type":"address"}],"name":"userTokenId","outputs":[{"internalType":"uint256","name":"","type":"uint256"}],"stateMutability":"view","type":"function"},{"inputs":[{"internalType":"address","name":"","type":"address"}],"name":"userTransactionCount","outputs":[{"internalType":"uint256","name":"","type":"uint256"}],"stateMutability":"view","type":"function"}],"evm":{"bytecode":{"linkReferences":{},"object":"608060405234801562000010575f80fd5b506040516200269a3803806200269a83398101604081905262000033916200015a565b336040518060400160405280601681526020017f537065637472612053756273637269626572204e4654000000000000000000008152506040518060400160405280600481526020016314d3919560e21b815250815f908162000097919062000227565b506001620000a6828262000227565b5050506001600160a01b038116620000d757604051631e4fbdf760e01b81525f600482015260240160405180910390fd5b620000e28162000109565b50600880546001600160a01b0319166001600160a01b0392909216919091179055620002f3565b600780546001600160a01b038381166001600160a01b0319831681179093556040519116919082907f8be0079c531659141344cd1fd0a4f28419497f9722a3daafe3b4186f6b6457e0905f90a35050565b5f602082840312156200016b575f80fd5b81516001600160a01b038116811462000182575f80fd5b9392505050565b634e487b7160e01b5f52604160045260245ffd5b600181811c90821680620001b257607f821691505b602082108103620001d157634e487b7160e01b5f52602260045260245ffd5b50919050565b601f8211156200022257805f5260205f20601f840160051c81016020851015620001fe5750805b601f840160051c820191505b818110156200021f575f81556001016200020a565b50505b505050565b81516001600160401b0381111562000243576200024362000189565b6200025b816200025484546200019d565b84620001d7565b602080601f83116001811462000291575f8415620002795750858301515b5f19600386901b1c1916600185901b178555620002eb565b5f85815260208120601f198616915b82811015620002c157888601518255948401946001909101908401620002a0565b5085821015620002df57878501515f19600388901b60f8161c191681555b505060018460011b0185555b505050505050565b61239980620003015f395ff3fe608060405234801561000f575f80fd5b50600436106101e6575f3560e01c8063715ca54211610109578063b9d50c2b1161009e578063e1346b381161006e578063e1346b3814610421578063e88a070414610434578063e985e9c514610447578063f2fde38b1461045a575f80fd5b8063b9d50c2b146103df578063be13197b146103e7578063c87b56dd14610406578063dfff91c214610419575f80fd5b806395d89b41116100d957806395d89b41146103a9578063a22cb465146103b1578063aa7e0b77146103c4578063b88d4fde146103cc575f80fd5b8063715ca5421461035e578063873de8a51461037d5780638da5cb5b1461039057806394f904ce146103a1575f80fd5b806323b872dd1161017f5780634c6a70ce1161014f5780634c6a70ce146103035780636352211e1461033057806370a0823114610343578063715018a614610356575f80fd5b806323b872dd146102c25780633597458e146102d557806342842e0e146102dd57806342966c68146102f0575f80fd5b806306fdde03116101ba57806306fdde0314610250578063081812fc14610265578063095ea7b31461029057806315ae40b8146102a3575f80fd5b8062525d32146101ea57806301ec2644146101ff57806301ffc9a714610212578063044c82801461023a575b5f80fd5b6101fd6101f8366004611cda565b61046d565b005b6101fd61020d366004611d47565b6104a5565b610225610220366004611d9b565b610654565b60405190151581526020015b60405180910390f35b610242600281565b604051908152602001610231565b61025861067e565b6040516102319190611e03565b610278610273366004611e15565b61070d565b6040516001600160a01b039091168152602001610231565b6101fd61029e366004611cda565b610734565b6102426102b1366004611e2c565b600c6020525f908152604090205481565b6101fd6102d0366004611e45565b610743565b6101fd6107d1565b6101fd6102eb366004611e45565b61097e565b6101fd6102fe366004611e15565b61099d565b610225610311366004611cda565b600d60209081525f928352604080842090915290825290205460ff1681565b61027861033e366004611e15565b610d19565b610242610351366004611e2c565b610d23565b6101fd610d68565b61024261036c366004611e2c565b600b6020525f908152604090205481565b600854610278906001600160a01b031681565b6007546001600160a01b0316610278565b6101fd610d7b565b610258610f3f565b6101fd6103bf366004611e7e565b610f4e565b6101fd610f59565b6101fd6103da366004611f23565b61108f565b610242600381565b6102426103f5366004611e2c565b600a6020525f908152604090205481565b610258610414366004611e15565b6110a7565b610242600181565b6101fd61042f366004611e2c565b611128565b6101fd610442366004611fc7565b611152565b61022561045536600461200f565b6112ad565b6101fd610468366004611e2c565b6112da565b610475611314565b6001600160a01b0382165f908152600c60205260408120805483929061049c908490612054565b90915550505050565b600854604051637269310760e11b81523360048201525f916001600160a01b03169063e4d2620e90602401602060405180830381865afa1580156104eb573d5f803e3d5ffd5b505050506040513d601f19601f8201168201806040525081019061050f9190612067565b90505f81600281111561052457610524612085565b036105425760405163d7e0dc2760e01b815260040160405180910390fd5b600181600281111561055657610556612085565b0361059757335f908152600a60205260409020546105779062278d00612054565b421015610597576040516330f4159560e01b815260040160405180910390fd5b600980545f91826105a783612099565b9190505590506105b73382611341565b6105f68185858080601f0160208091040260200160405190810160405280939291908181526020018383808284375f9201919091525061135a92505050565b335f818152600a60209081526040808320429055600b90915290819020839055517f5716925f2a990bb51e5354134a606547c86dc787be1a2729eef575fd0c2bea1e9061064690849086906120b1565b60405180910390a250505050565b5f6001600160e01b03198216632483248360e11b14806106785750610678826113a9565b92915050565b60605f805461068c906120e1565b80601f01602080910402602001604051908101604052809291908181526020018280546106b8906120e1565b80156107035780601f106106da57610100808354040283529160200191610703565b820191905f5260205f20905b8154815290600101906020018083116106e657829003601f168201915b5050505050905090565b5f610717826113f8565b505f828152600460205260409020546001600160a01b0316610678565b61073f828233611430565b5050565b6001600160a01b03821661077157604051633250574960e11b81525f60048201526024015b60405180910390fd5b5f61077d83833361143d565b9050836001600160a01b0316816001600160a01b0316146107cb576040516364283d7b60e01b81526001600160a01b0380861660048301526024820184905282166044820152606401610768565b50505050565b600854604051637269310760e11b81523360048201525f916001600160a01b03169063e4d2620e90602401602060405180830381865afa158015610817573d5f803e3d5ffd5b505050506040513d601f19601f8201168201806040525081019061083b9190612067565b9050600281600281111561085157610851612085565b146108945760405162461bcd60e51b81526020600482015260136024820152722932b8bab4b932b9902722ac2aa9903a34b2b960691b6044820152606401610768565b335f908152600d602090815260408083206003845290915290205460ff16156108cf5760405162461bcd60e51b815260040161076890612119565b600980545f91826108df83612099565b9190505590506108ef3382611341565b6109228160405180604001604052806011815260200170697066733a2f2f62616467652d626c756560781b81525061135a565b335f818152600d60209081526040808320600380855290835292819020805460ff19166001179055519182527fc5e5b314108c1f776c2302351b8278910ddb812b122b2717b1bc973146145e9a91015b60405180910390a25050565b61099883838360405180602001604052805f81525061108f565b505050565b336109a782610d19565b6001600160a01b0316146109ed5760405162461bcd60e51b815260206004820152600d60248201526c2737ba103a34329037bbb732b960991b6044820152606401610768565b335f908152600b6020526040902054819003610a1357335f908152600b60205260408120555b335f908152600d602090815260408083206001845290915290205460ff1615610b115760405163c87b56dd60e01b815260048101829052309063c87b56dd906024015f60405180830381865afa925050508015610a9157506040513d5f823e601f3d908101601f19168201604052610a8e9190810190612147565b60015b15610b115760408051808201909152601281527134b833399d1797b130b233b296b3b932b2b760711b6020918201528151908201207ff05f68d080697f587bb9f0a064ab4d3df1243a854a8b2c0b2f19bf56d2981d2f01610b0f57335f908152600d60209081526040808320600184529091529020805460ff191690555b505b335f908152600d602090815260408083206002845290915290205460ff1615610c105760405163c87b56dd60e01b815260048101829052309063c87b56dd906024015f60405180830381865afa925050508015610b8f57506040513d5f823e601f3d908101601f19168201604052610b8c9190810190612147565b60015b15610c1057604080518082019091526013815272697066733a2f2f62616467652d79656c6c6f7760681b6020918201528151908201207f05b4d49074a2268bfde4365dad15c156decc5d65641f1bd299ad30c61f44bc6c01610c0e57335f908152600d60209081526040808320600284529091529020805460ff191690555b505b335f908152600d602090815260408083206003845290915290205460ff1615610d0d5760405163c87b56dd60e01b815260048101829052309063c87b56dd906024015f60405180830381865afa925050508015610c8e57506040513d5f823e601f3d908101601f19168201604052610c8b9190810190612147565b60015b15610d0d57604080518082019091526011815270697066733a2f2f62616467652d626c756560781b6020918201528151908201207fa85e0fba6c23b0459ad9500d94d3f53e46c22efb78ec8448d6d13ea6931f174d01610d0b57335f908152600d60209081526040808320600384529091529020805460ff191690555b505b610d168161149d565b50565b5f610678826113f8565b5f6001600160a01b038216610d4d576040516322718ad960e21b81525f6004820152602401610768565b506001600160a01b03165f9081526003602052604090205490565b610d70611314565b610d795f6114d5565b565b600854604051637269310760e11b81523360048201525f916001600160a01b03169063e4d2620e90602401602060405180830381865afa158015610dc1573d5f803e3d5ffd5b505050506040513d601f19601f82011682018060405250810190610de59190612067565b90506001816002811115610dfb57610dfb612085565b1480610e1857506002816002811115610e1657610e16612085565b145b610e5b5760405162461bcd60e51b81526020600482015260146024820152732932b8bab4b932b9902b22a1aa27a9103a34b2b960611b6044820152606401610768565b335f908152600d602090815260408083206002845290915290205460ff1615610e965760405162461bcd60e51b815260040161076890612119565b600980545f9182610ea683612099565b919050559050610eb63382611341565b610eeb8160405180604001604052806013815260200172697066733a2f2f62616467652d79656c6c6f7760681b81525061135a565b335f818152600d60209081526040808320600280855290835292819020805460ff19166001179055519182527fc5e5b314108c1f776c2302351b8278910ddb812b122b2717b1bc973146145e9a9101610972565b60606001805461068c906120e1565b61073f338383611526565b335f908152600c6020526040902054610fa75760405162461bcd60e51b815260206004820152601060248201526f5265717569726573203e20302074787360801b6044820152606401610768565b335f908152600d602090815260408083206001845290915290205460ff1615610fe25760405162461bcd60e51b815260040161076890612119565b600980545f9182610ff283612099565b9190505590506110023382611341565b611036816040518060400160405280601281526020017134b833399d1797b130b233b296b3b932b2b760711b81525061135a565b335f818152600d60209081526040808320600180855290835292819020805460ff191684179055519182527fc5e5b314108c1f776c2302351b8278910ddb812b122b2717b1bc973146145e9a910160405180910390a250565b61109a848484610743565b6107cb33858585856115ed565b60606110b2826113f8565b505f6110c860408051602081019091525f815290565b90505f6110d484611715565b905081515f036110e5579392505050565b8051156111175781816040516020016110ff9291906121b0565b60405160208183030381529060405292505050919050565b611120846117b4565b949350505050565b611130611314565b600880546001600160a01b0319166001600160a01b0392909216919091179055565b3361115c84610d19565b6001600160a01b03161461119e5760405162461bcd60e51b81526020600482015260096024820152682737ba1037bbb732b960b91b6044820152606401610768565b600854604051637269310760e11b81523360048201525f916001600160a01b03169063e4d2620e90602401602060405180830381865afa1580156111e4573d5f803e3d5ffd5b505050506040513d601f19601f820116820180604052508101906112089190612067565b9050600281600281111561121e5761121e612085565b1461123c57604051639238e15560e01b815260040160405180910390fd5b61127b8484848080601f0160208091040260200160405190810160405280939291908181526020018383808284375f9201919091525061135a92505050565b837f459157ba24c7ab9878b165ef465fa6ae2ab42bcd8445f576be378768b0c4730984846040516106469291906121de565b6001600160a01b039182165f90815260056020908152604080832093909416825291909152205460ff1690565b6112e2611314565b6001600160a01b03811661130b57604051631e4fbdf760e01b81525f6004820152602401610768565b610d16816114d5565b6007546001600160a01b03163314610d795760405163118cdaa760e01b8152336004820152602401610768565b61073f828260405180602001604052805f815250611825565b5f8281526006602052604090206113718282612250565b506040518281527ff8e1a15aba9398e019f0b49df1a4fde98ee17ae345cb5f6b5e2c27f5033e8ce79060200160405180910390a15050565b5f6001600160e01b031982166380ac58cd60e01b14806113d957506001600160e01b03198216635b5e139f60e01b145b8061067857506301ffc9a760e01b6001600160e01b0319831614610678565b5f818152600260205260408120546001600160a01b03168061067857604051637e27328960e01b815260048101849052602401610768565b610998838383600161183c565b5f828152600260205260408120546001600160a01b0316801580159061146b57506001600160a01b03851615155b1561148957604051639cbe235760e01b815260040160405180910390fd5b611494858585611940565b95945050505050565b5f6114a95f835f61143d565b90506001600160a01b03811661073f57604051637e27328960e01b815260048101839052602401610768565b600780546001600160a01b038381166001600160a01b0319831681179093556040519116919082907f8be0079c531659141344cd1fd0a4f28419497f9722a3daafe3b4186f6b6457e0905f90a35050565b6001600160a01b03831661154f5760405163a9fbf51f60e01b81525f6004820152602401610768565b6001600160a01b03821661158157604051630b61174360e31b81526001600160a01b0383166004820152602401610768565b6001600160a01b038381165f81815260056020908152604080832094871680845294825291829020805460ff191686151590811790915591519182527f17307eab39ab6107e8899845ad3d59bd9653f200f220920489ca2b5937696c31910160405180910390a3505050565b6001600160a01b0383163b1561170e57604051630a85bd0160e11b81526001600160a01b0384169063150b7a029061162f90889088908790879060040161230c565b6020604051808303815f875af1925050508015611669575060408051601f3d908101601f1916820190925261166691810190612348565b60015b6116d0573d808015611696576040519150601f19603f3d011682016040523d82523d5f602084013e61169b565b606091505b5080515f036116c857604051633250574960e11b81526001600160a01b0385166004820152602401610768565b805160208201fd5b6001600160e01b03198116630a85bd0160e11b1461170c57604051633250574960e11b81526001600160a01b0385166004820152602401610768565b505b5050505050565b5f818152600660205260409020805460609190611731906120e1565b80601f016020809104026020016040519081016040528092919081815260200182805461175d906120e1565b80156117a85780601f1061177f576101008083540402835291602001916117a8565b820191905f5260205f20905b81548152906001019060200180831161178b57829003601f168201915b50505050509050919050565b60606117bf826113f8565b505f6117d560408051602081019091525f815290565b90505f8151116117f35760405180602001604052805f81525061181e565b806117fd84611a32565b60405160200161180e9291906121b0565b6040516020818303038152906040525b9392505050565b61182f8383611ac2565b610998335f8585856115ed565b808061185057506001600160a01b03821615155b15611911575f61185f846113f8565b90506001600160a01b0383161580159061188b5750826001600160a01b0316816001600160a01b031614155b801561189e575061189c81846112ad565b155b156118c75760405163a9fbf51f60e01b81526001600160a01b0384166004820152602401610768565b811561190f5783856001600160a01b0316826001600160a01b03167f8c5be1e5ebec7d5bd14f71427d1e84f3dd0314c0f7b2291e5b200ac8c7c3b92560405160405180910390a45b505b50505f90815260046020526040902080546001600160a01b0319166001600160a01b0392909216919091179055565b5f828152600260205260408120546001600160a01b039081169083161561196c5761196c818486611b23565b6001600160a01b038116156119a6576119875f855f8061183c565b6001600160a01b0381165f90815260036020526040902080545f190190555b6001600160a01b038516156119d4576001600160a01b0385165f908152600360205260409020805460010190555b5f8481526002602052604080822080546001600160a01b0319166001600160a01b0389811691821790925591518793918516917fddf252ad1be2c89b69c2b068fc378daa952ba7f163c4a11628f55a4df523b3ef91a4949350505050565b60605f611a3e83611b87565b60010190505f8167ffffffffffffffff811115611a5d57611a5d611eb7565b6040519080825280601f01601f191660200182016040528015611a87576020820181803683370190505b5090508181016020015b5f19016f181899199a1a9b1b9c1cb0b131b232b360811b600a86061a8153600a8504945084611a9157509392505050565b6001600160a01b038216611aeb57604051633250574960e11b81525f6004820152602401610768565b5f611af783835f61143d565b90506001600160a01b03811615610998576040516339e3563760e11b81525f6004820152602401610768565b611b2e838383611c5e565b610998576001600160a01b038316611b5c57604051637e27328960e01b815260048101829052602401610768565b60405163177e802f60e01b81526001600160a01b038316600482015260248101829052604401610768565b5f8072184f03e93ff9f4daa797ed6e38ed64bf6a1f0160401b8310611bc55772184f03e93ff9f4daa797ed6e38ed64bf6a1f0160401b830492506040015b6d04ee2d6d415b85acef81000000008310611bf1576d04ee2d6d415b85acef8100000000830492506020015b662386f26fc100008310611c0f57662386f26fc10000830492506010015b6305f5e1008310611c27576305f5e100830492506008015b6127108310611c3b57612710830492506004015b60648310611c4d576064830492506002015b600a83106106785760010192915050565b5f6001600160a01b038316158015906111205750826001600160a01b0316846001600160a01b03161480611c975750611c9784846112ad565b806111205750505f908152600460205260409020546001600160a01b03908116911614919050565b80356001600160a01b0381168114611cd5575f80fd5b919050565b5f8060408385031215611ceb575f80fd5b611cf483611cbf565b946020939093013593505050565b5f8083601f840112611d12575f80fd5b50813567ffffffffffffffff811115611d29575f80fd5b602083019150836020828501011115611d40575f80fd5b9250929050565b5f8060208385031215611d58575f80fd5b823567ffffffffffffffff811115611d6e575f80fd5b611d7a85828601611d02565b90969095509350505050565b6001600160e01b031981168114610d16575f80fd5b5f60208284031215611dab575f80fd5b813561181e81611d86565b5f5b83811015611dd0578181015183820152602001611db8565b50505f910152565b5f8151808452611def816020860160208601611db6565b601f01601f19169290920160200192915050565b602081525f61181e6020830184611dd8565b5f60208284031215611e25575f80fd5b5035919050565b5f60208284031215611e3c575f80fd5b61181e82611cbf565b5f805f60608486031215611e57575f80fd5b611e6084611cbf565b9250611e6e60208501611cbf565b9150604084013590509250925092565b5f8060408385031215611e8f575f80fd5b611e9883611cbf565b915060208301358015158114611eac575f80fd5b809150509250929050565b634e487b7160e01b5f52604160045260245ffd5b604051601f8201601f1916810167ffffffffffffffff81118282101715611ef457611ef4611eb7565b604052919050565b5f67ffffffffffffffff821115611f1557611f15611eb7565b50601f01601f191660200190565b5f805f8060808587031215611f36575f80fd5b611f3f85611cbf565b9350611f4d60208601611cbf565b925060408501359150606085013567ffffffffffffffff811115611f6f575f80fd5b8501601f81018713611f7f575f80fd5b8035611f92611f8d82611efc565b611ecb565b818152886020838501011115611fa6575f80fd5b816020840160208301375f6020838301015280935050505092959194509250565b5f805f60408486031215611fd9575f80fd5b83359250602084013567ffffffffffffffff811115611ff6575f80fd5b61200286828701611d02565b9497909650939450505050565b5f8060408385031215612020575f80fd5b61202983611cbf565b915061203760208401611cbf565b90509250929050565b634e487b7160e01b5f52601160045260245ffd5b8082018082111561067857610678612040565b5f60208284031215612077575f80fd5b81516003811061181e575f80fd5b634e487b7160e01b5f52602160045260245ffd5b5f600182016120aa576120aa612040565b5060010190565b82815260408101600383106120d457634e487b7160e01b5f52602160045260245ffd5b8260208301529392505050565b600181811c908216806120f557607f821691505b60208210810361211357634e487b7160e01b5f52602260045260245ffd5b50919050565b60208082526014908201527310985919d948185b1c9958591e481b5a5b9d195960621b604082015260600190565b5f60208284031215612157575f80fd5b815167ffffffffffffffff81111561216d575f80fd5b8201601f8101841361217d575f80fd5b805161218b611f8d82611efc565b81815285602083850101111561219f575f80fd5b611494826020830160208601611db6565b5f83516121c1818460208801611db6565b8351908301906121d5818360208801611db6565b01949350505050565b60208152816020820152818360408301375f818301604090810191909152601f909201601f19160101919050565b601f82111561099857805f5260205f20601f840160051c810160208510156122315750805b601f840160051c820191505b8181101561170e575f815560010161223d565b815167ffffffffffffffff81111561226a5761226a611eb7565b61227e8161227884546120e1565b8461220c565b602080601f8311600181146122b1575f841561229a5750858301515b5f19600386901b1c1916600185901b17855561170c565b5f85815260208120601f198616915b828110156122df578886015182559484019460019091019084016122c0565b50858210156122fc57878501515f19600388901b60f8161c191681555b5050505050600190811b01905550565b6001600160a01b03858116825284166020820152604081018390526080606082018190525f9061233e90830184611dd8565b9695505050505050565b5f60208284031215612358575f80fd5b815161181e81611d8656fea2646970667358221220316e6ee5f7f9e6bd943e68044cd31551594856ffb45a9e657c4a783c3dccb40464736f6c63430008180033","opcodes":"PUSH1 0x80 PUSH1 0x40 MSTORE CALLVALUE DUP1 ISZERO PUSH3 0x10 JUMPI PUSH0 DUP1 REVERT JUMPDEST POP PUSH1 0x40 MLOAD PUSH3 0x269A CODESIZE SUB DUP1 PUSH3 0x269A DUP4 CODECOPY DUP2 ADD PUSH1 0x40 DUP2 SWAP1 MSTORE PUSH3 0x33 SWAP2 PUSH3 0x15A JUMP JUMPDEST CALLER PUSH1 0x40 MLOAD DUP1 PUSH1 0x40 ADD PUSH1 0x40 MSTORE DUP1 PUSH1 0x16 DUP2 MSTORE PUSH1 0x20 ADD PUSH32 0x537065637472612053756273637269626572204E465400000000000000000000 DUP2 MSTORE POP PUSH1 0x40 MLOAD DUP1 PUSH1 0x40 ADD PUSH1 0x40 MSTORE DUP1 PUSH1 0x4 DUP2 MSTORE PUSH1 0x20 ADD PUSH4 0x14D39195 PUSH1 0xE2 SHL DUP2 MSTORE POP DUP2 PUSH0 SWAP1 DUP2 PUSH3 0x97 SWAP2 SWAP1 PUSH3 0x227 JUMP JUMPDEST POP PUSH1 0x1 PUSH3 0xA6 DUP3 DUP3 PUSH3 0x227 JUMP JUMPDEST POP POP POP PUSH1 0x1 PUSH1 0x1 PUSH1 0xA0 SHL SUB DUP2 AND PUSH3 0xD7 JUMPI PUSH1 0x40 MLOAD PUSH4 0x1E4FBDF7 PUSH1 0xE0 SHL DUP2 MSTORE PUSH0 PUSH1 0x4 DUP3 ADD MSTORE PUSH1 0x24 ADD PUSH1 0x40 MLOAD DUP1 SWAP2 SUB SWAP1 REVERT JUMPDEST PUSH3 0xE2 DUP2 PUSH3 0x109 JUMP JUMPDEST POP PUSH1 0x8 DUP1 SLOAD PUSH1 0x1 PUSH1 0x1 PUSH1 0xA0 SHL SUB NOT AND PUSH1 0x1 PUSH1 0x1 PUSH1 0xA0 SHL SUB SWAP3 SWAP1 SWAP3 AND SWAP2 SWAP1 SWAP2 OR SWAP1 SSTORE PUSH3 0x2F3 JUMP JUMPDEST PUSH1 0x7 DUP1 SLOAD PUSH1 0x1 PUSH1 0x1 PUSH1 0xA0 SHL SUB DUP4 DUP2 AND PUSH1 0x1 PUSH1 0x1 PUSH1 0xA0 SHL SUB NOT DUP4 AND DUP2 OR SWAP1 SWAP4 SSTORE PUSH1 0x40 MLOAD SWAP2 AND SWAP2 SWAP1 DUP3 SWAP1 PUSH32 0x8BE0079C531659141344CD1FD0A4F28419497F9722A3DAAFE3B4186F6B6457E0 SWAP1 PUSH0 SWAP1 LOG3 POP POP JUMP JUMPDEST PUSH0 PUSH1 0x20 DUP3 DUP5 SUB SLT ISZERO PUSH3 0x16B JUMPI PUSH0 DUP1 REVERT JUMPDEST DUP2 MLOAD PUSH1 0x1 PUSH1 0x1 PUSH1 0xA0 SHL SUB DUP2 AND DUP2 EQ PUSH3 0x182 JUMPI PUSH0 DUP1 REVERT JUMPDEST SWAP4 SWAP3 POP POP POP JUMP JUMPDEST PUSH4 0x4E487B71 PUSH1 0xE0 SHL PUSH0 MSTORE PUSH1 0x41 PUSH1 0x4 MSTORE PUSH1 0x24 PUSH0 REVERT JUMPDEST PUSH1 0x1 DUP2 DUP2 SHR SWAP1 DUP3 AND DUP1 PUSH3 0x1B2 JUMPI PUSH1 0x7F DUP3 AND SWAP2 POP JUMPDEST PUSH1 0x20 DUP3 LT DUP2 SUB PUSH3 0x1D1 JUMPI PUSH4 0x4E487B71 PUSH1 0xE0 SHL PUSH0 MSTORE PUSH1 0x22 PUSH1 0x4 MSTORE PUSH1 0x24 PUSH0 REVERT JUMPDEST POP SWAP2 SWAP1 POP JUMP JUMPDEST PUSH1 0x1F DUP3 GT ISZERO PUSH3 0x222 JUMPI DUP1 PUSH0 MSTORE PUSH1 0x20 PUSH0 KECCAK256 PUSH1 0x1F DUP5 ADD PUSH1 0x5 SHR DUP2 ADD PUSH1 0x20 DUP6 LT ISZERO PUSH3 0x1FE JUMPI POP DUP1 JUMPDEST PUSH1 0x1F DUP5 ADD PUSH1 0x5 SHR DUP3 ADD SWAP2 POP JUMPDEST DUP2 DUP2 LT ISZERO PUSH3 0x21F JUMPI PUSH0 DUP2 SSTORE PUSH1 0x1 ADD PUSH3 0x20A JUMP JUMPDEST POP POP JUMPDEST POP POP POP JUMP JUMPDEST DUP2 MLOAD PUSH1 0x1 PUSH1 0x1 PUSH1 0x40 SHL SUB DUP2 GT ISZERO PUSH3 0x243 JUMPI PUSH3 0x243 PUSH3 0x189 JUMP JUMPDEST PUSH3 0x25B DUP2 PUSH3 0x254 DUP5 SLOAD PUSH3 0x19D JUMP JUMPDEST DUP5 PUSH3 0x1D7 JUMP JUMPDEST PUSH1 0x20 DUP1 PUSH1 0x1F DUP4 GT PUSH1 0x1 DUP2 EQ PUSH3 0x291 JUMPI PUSH0 DUP5 ISZERO PUSH3 0x279 JUMPI POP DUP6 DUP4 ADD MLOAD JUMPDEST PUSH0 NOT PUSH1 0x3 DUP7 SWAP1 SHL SHR NOT AND PUSH1 0x1 DUP6 SWAP1 SHL OR DUP6 SSTORE PUSH3 0x2EB JUMP JUMPDEST PUSH0 DUP6 DUP2 MSTORE PUSH1 0x20 DUP2 KECCAK256 PUSH1 0x1F NOT DUP7 AND SWAP2 JUMPDEST DUP3 DUP2 LT ISZERO PUSH3 0x2C1 JUMPI DUP9 DUP7 ADD MLOAD DUP3 SSTORE SWAP5 DUP5 ADD SWAP5 PUSH1 0x1 SWAP1 SWAP2 ADD SWAP1 DUP5 ADD PUSH3 0x2A0 JUMP JUMPDEST POP DUP6 DUP3 LT ISZERO PUSH3 0x2DF JUMPI DUP8 DUP6 ADD MLOAD PUSH0 NOT PUSH1 0x3 DUP9 SWAP1 SHL PUSH1 0xF8 AND SHR NOT AND DUP2 SSTORE JUMPDEST POP POP PUSH1 0x1 DUP5 PUSH1 0x1 SHL ADD DUP6 SSTORE JUMPDEST POP POP POP POP POP POP JUMP JUMPDEST PUSH2 0x2399 DUP1 PUSH3 0x301 PUSH0 CODECOPY PUSH0 RETURN INVALID PUSH1 0x80 PUSH1 0x40 MSTORE CALLVALUE DUP1 ISZERO PUSH2 0xF JUMPI PUSH0 DUP1 REVERT JUMPDEST POP PUSH1 0x4 CALLDATASIZE LT PUSH2 0x1E6 JUMPI PUSH0 CALLDATALOAD PUSH1 0xE0 SHR DUP1 PUSH4 0x715CA542 GT PUSH2 0x109 JUMPI DUP1 PUSH4 0xB9D50C2B GT PUSH2 0x9E JUMPI DUP1 PUSH4 0xE1346B38 GT PUSH2 0x6E JUMPI DUP1 PUSH4 0xE1346B38 EQ PUSH2 0x421 JUMPI DUP1 PUSH4 0xE88A0704 EQ PUSH2 0x434 JUMPI DUP1 PUSH4 0xE985E9C5 EQ PUSH2 0x447 JUMPI DUP1 PUSH4 0xF2FDE38B EQ PUSH2 0x45A JUMPI PUSH0 DUP1 REVERT JUMPDEST DUP1 PUSH4 0xB9D50C2B EQ PUSH2 0x3DF JUMPI DUP1 PUSH4 0xBE13197B EQ PUSH2 0x3E7 JUMPI DUP1 PUSH4 0xC87B56DD EQ PUSH2 0x406 JUMPI DUP1 PUSH4 0xDFFF91C2 EQ PUSH2 0x419 JUMPI PUSH0 DUP1 REVERT JUMPDEST DUP1 PUSH4 0x95D89B41 GT PUSH2 0xD9 JUMPI DUP1 PUSH4 0x95D89B41 EQ PUSH2 0x3A9 JUMPI DUP1 PUSH4 0xA22CB465 EQ PUSH2 0x3B1 JUMPI DUP1 PUSH4 0xAA7E0B77 EQ PUSH2 0x3C4 JUMPI DUP1 PUSH4 0xB88D4FDE EQ PUSH2 0x3CC JUMPI PUSH0 DUP1 REVERT JUMPDEST DUP1 PUSH4 0x715CA542 EQ PUSH2 0x35E JUMPI DUP1 PUSH4 0x873DE8A5 EQ PUSH2 0x37D JUMPI DUP1 PUSH4 0x8DA5CB5B EQ PUSH2 0x390 JUMPI DUP1 PUSH4 0x94F904CE EQ PUSH2 0x3A1 JUMPI PUSH0 DUP1 REVERT JUMPDEST DUP1 PUSH4 0x23B872DD GT PUSH2 0x17F JUMPI DUP1 PUSH4 0x4C6A70CE GT PUSH2 0x14F JUMPI DUP1 PUSH4 0x4C6A70CE EQ PUSH2 0x303 JUMPI DUP1 PUSH4 0x6352211E EQ PUSH2 0x330 JUMPI DUP1 PUSH4 0x70A08231 EQ PUSH2 0x343 JUMPI DUP1 PUSH4 0x715018A6 EQ PUSH2 0x356 JUMPI PUSH0 DUP1 REVERT JUMPDEST DUP1 PUSH4 0x23B872DD EQ PUSH2 0x2C2 JUMPI DUP1 PUSH4 0x3597458E EQ PUSH2 0x2D5 JUMPI DUP1 PUSH4 0x42842E0E EQ PUSH2 0x2DD JUMPI DUP1 PUSH4 0x42966C68 EQ PUSH2 0x2F0 JUMPI PUSH0 DUP1 REVERT JUMPDEST DUP1 PUSH4 0x6FDDE03 GT PUSH2 0x1BA JUMPI DUP1 PUSH4 0x6FDDE03 EQ PUSH2 0x250 JUMPI DUP1 PUSH4 0x81812FC EQ PUSH2 0x265 JUMPI DUP1 PUSH4 0x95EA7B3 EQ PUSH2 0x290 JUMPI DUP1 PUSH4 0x15AE40B8 EQ PUSH2 0x2A3 JUMPI PUSH0 DUP1 REVERT JUMPDEST DUP1 PUSH3 0x525D32 EQ PUSH2 0x1EA JUMPI DUP1 PUSH4 0x1EC2644 EQ PUSH2 0x1FF JUMPI DUP1 PUSH4 0x1FFC9A7 EQ PUSH2 0x212 JUMPI DUP1 PUSH4 0x44C8280 EQ PUSH2 0x23A JUMPI JUMPDEST PUSH0 DUP1 REVERT JUMPDEST PUSH2 0x1FD PUSH2 0x1F8 CALLDATASIZE PUSH1 0x4 PUSH2 0x1CDA JUMP JUMPDEST PUSH2 0x46D JUMP JUMPDEST STOP JUMPDEST PUSH2 0x1FD PUSH2 0x20D CALLDATASIZE PUSH1 0x4 PUSH2 0x1D47 JUMP JUMPDEST PUSH2 0x4A5 JUMP JUMPDEST PUSH2 0x225 PUSH2 0x220 CALLDATASIZE PUSH1 0x4 PUSH2 0x1D9B JUMP JUMPDEST PUSH2 0x654 JUMP JUMPDEST PUSH1 0x40 MLOAD SWAP1 ISZERO ISZERO DUP2 MSTORE PUSH1 0x20 ADD JUMPDEST PUSH1 0x40 MLOAD DUP1 SWAP2 SUB SWAP1 RETURN JUMPDEST PUSH2 0x242 PUSH1 0x2 DUP2 JUMP JUMPDEST PUSH1 0x40 MLOAD SWAP1 DUP2 MSTORE PUSH1 0x20 ADD PUSH2 0x231 JUMP JUMPDEST PUSH2 0x258 PUSH2 0x67E JUMP JUMPDEST PUSH1 0x40 MLOAD PUSH2 0x231 SWAP2 SWAP1 PUSH2 0x1E03 JUMP JUMPDEST PUSH2 0x278 PUSH2 0x273 CALLDATASIZE PUSH1 0x4 PUSH2 0x1E15 JUMP JUMPDEST PUSH2 0x70D JUMP JUMPDEST PUSH1 0x40 MLOAD PUSH1 0x1 PUSH1 0x1 PUSH1 0xA0 SHL SUB SWAP1 SWAP2 AND DUP2 MSTORE PUSH1 0x20 ADD PUSH2 0x231 JUMP JUMPDEST PUSH2 0x1FD PUSH2 0x29E CALLDATASIZE PUSH1 0x4 PUSH2 0x1CDA JUMP JUMPDEST PUSH2 0x734 JUMP JUMPDEST PUSH2 0x242 PUSH2 0x2B1 CALLDATASIZE PUSH1 0x4 PUSH2 0x1E2C JUMP JUMPDEST PUSH1 0xC PUSH1 0x20 MSTORE PUSH0 SWAP1 DUP2 MSTORE PUSH1 0x40 SWAP1 KECCAK256 SLOAD DUP2 JUMP JUMPDEST PUSH2 0x1FD PUSH2 0x2D0 CALLDATASIZE PUSH1 0x4 PUSH2 0x1E45 JUMP JUMPDEST PUSH2 0x743 JUMP JUMPDEST PUSH2 0x1FD PUSH2 0x7D1 JUMP JUMPDEST PUSH2 0x1FD PUSH2 0x2EB CALLDATASIZE PUSH1 0x4 PUSH2 0x1E45 JUMP JUMPDEST PUSH2 0x97E JUMP JUMPDEST PUSH2 0x1FD PUSH2 0x2FE CALLDATASIZE PUSH1 0x4 PUSH2 0x1E15 JUMP JUMPDEST PUSH2 0x99D JUMP JUMPDEST PUSH2 0x225 PUSH2 0x311 CALLDATASIZE PUSH1 0x4 PUSH2 0x1CDA JUMP JUMPDEST PUSH1 0xD PUSH1 0x20 SWAP1 DUP2 MSTORE PUSH0 SWAP3 DUP4 MSTORE PUSH1 0x40 DUP1 DUP5 KECCAK256 SWAP1 SWAP2 MSTORE SWAP1 DUP3 MSTORE SWAP1 KECCAK256 SLOAD PUSH1 0xFF AND DUP2 JUMP JUMPDEST PUSH2 0x278 PUSH2 0x33E CALLDATASIZE PUSH1 0x4 PUSH2 0x1E15 JUMP JUMPDEST PUSH2 0xD19 JUMP JUMPDEST PUSH2 0x242 PUSH2 0x351 CALLDATASIZE PUSH1 0x4 PUSH2 0x1E2C JUMP JUMPDEST PUSH2 0xD23 JUMP JUMPDEST PUSH2 0x1FD PUSH2 0xD68 JUMP JUMPDEST PUSH2 0x242 PUSH2 0x36C CALLDATASIZE PUSH1 0x4 PUSH2 0x1E2C JUMP JUMPDEST PUSH1 0xB PUSH1 0x20 MSTORE PUSH0 SWAP1 DUP2 MSTORE PUSH1 0x40 SWAP1 KECCAK256 SLOAD DUP2 JUMP JUMPDEST PUSH1 0x8 SLOAD PUSH2 0x278 SWAP1 PUSH1 0x1 PUSH1 0x1 PUSH1 0xA0 SHL SUB AND DUP2 JUMP JUMPDEST PUSH1 0x7 SLOAD PUSH1 0x1 PUSH1 0x1 PUSH1 0xA0 SHL SUB AND PUSH2 0x278 JUMP JUMPDEST PUSH2 0x1FD PUSH2 0xD7B JUMP JUMPDEST PUSH2 0x258 PUSH2 0xF3F JUMP JUMPDEST PUSH2 0x1FD PUSH2 0x3BF CALLDATASIZE PUSH1 0x4 PUSH2 0x1E7E JUMP JUMPDEST PUSH2 0xF4E JUMP JUMPDEST PUSH2 0x1FD PUSH2 0xF59 JUMP JUMPDEST PUSH2 0x1FD PUSH2 0x3DA CALLDATASIZE PUSH1 0x4 PUSH2 0x1F23 JUMP JUMPDEST PUSH2 0x108F JUMP JUMPDEST PUSH2 0x242 PUSH1 0x3 DUP2 JUMP JUMPDEST PUSH2 0x242 PUSH2 0x3F5 CALLDATASIZE PUSH1 0x4 PUSH2 0x1E2C JUMP JUMPDEST PUSH1 0xA PUSH1 0x20 MSTORE PUSH0 SWAP1 DUP2 MSTORE PUSH1 0x40 SWAP1 KECCAK256 SLOAD DUP2 JUMP JUMPDEST PUSH2 0x258 PUSH2 0x414 CALLDATASIZE PUSH1 0x4 PUSH2 0x1E15 JUMP JUMPDEST PUSH2 0x10A7 JUMP JUMPDEST PUSH2 0x242 PUSH1 0x1 DUP2 JUMP JUMPDEST PUSH2 0x1FD PUSH2 0x42F CALLDATASIZE PUSH1 0x4 PUSH2 0x1E2C JUMP JUMPDEST PUSH2 0x1128 JUMP JUMPDEST PUSH2 0x1FD PUSH2 0x442 CALLDATASIZE PUSH1 0x4 PUSH2 0x1FC7 JUMP JUMPDEST PUSH2 0x1152 JUMP JUMPDEST PUSH2 0x225 PUSH2 0x455 CALLDATASIZE PUSH1 0x4 PUSH2 0x200F JUMP JUMPDEST PUSH2 0x12AD JUMP JUMPDEST PUSH2 0x1FD PUSH2 0x468 CALLDATASIZE PUSH1 0x4 PUSH2 0x1E2C JUMP JUMPDEST PUSH2 0x12DA JUMP JUMPDEST PUSH2 0x475 PUSH2 0x1314 JUMP JUMPDEST PUSH1 0x1 PUSH1 0x1 PUSH1 0xA0 SHL SUB DUP3 AND PUSH0 SWAP1 DUP2 MSTORE PUSH1 0xC PUSH1 0x20 MSTORE PUSH1 0x40 DUP2 KECCAK256 DUP1 SLOAD DUP4 SWAP3 SWAP1 PUSH2 0x49C SWAP1 DUP5 SWAP1 PUSH2 0x2054 JUMP JUMPDEST SWAP1 SWAP2 SSTORE POP POP POP POP JUMP JUMPDEST PUSH1 0x8 SLOAD PUSH1 0x40 MLOAD PUSH4 0x72693107 PUSH1 0xE1 SHL DUP2 MSTORE CALLER PUSH1 0x4 DUP3 ADD MSTORE PUSH0 SWAP2 PUSH1 0x1 PUSH1 0x1 PUSH1 0xA0 SHL SUB AND SWAP1 PUSH4 0xE4D2620E SWAP1 PUSH1 0x24 ADD PUSH1 0x20 PUSH1 0x40 MLOAD DUP1 DUP4 SUB DUP2 DUP7 GAS STATICCALL ISZERO DUP1 ISZERO PUSH2 0x4EB JUMPI RETURNDATASIZE PUSH0 DUP1 RETURNDATACOPY RETURNDATASIZE PUSH0 REVERT JUMPDEST POP POP POP POP PUSH1 0x40 MLOAD RETURNDATASIZE PUSH1 0x1F NOT PUSH1 0x1F DUP3 ADD AND DUP3 ADD DUP1 PUSH1 0x40 MSTORE POP DUP2 ADD SWAP1 PUSH2 0x50F SWAP2 SWAP1 PUSH2 0x2067 JUMP JUMPDEST SWAP1 POP PUSH0 DUP2 PUSH1 0x2 DUP2 GT ISZERO PUSH2 0x524 JUMPI PUSH2 0x524 PUSH2 0x2085 JUMP JUMPDEST SUB PUSH2 0x542 JUMPI PUSH1 0x40 MLOAD PUSH4 0xD7E0DC27 PUSH1 0xE0 SHL DUP2 MSTORE PUSH1 0x4 ADD PUSH1 0x40 MLOAD DUP1 SWAP2 SUB SWAP1 REVERT JUMPDEST PUSH1 0x1 DUP2 PUSH1 0x2 DUP2 GT ISZERO PUSH2 0x556 JUMPI PUSH2 0x556 PUSH2 0x2085 JUMP JUMPDEST SUB PUSH2 0x597 JUMPI CALLER PUSH0 SWAP1 DUP2 MSTORE PUSH1 0xA PUSH1 0x20 MSTORE PUSH1 0x40 SWAP1 KECCAK256 SLOAD PUSH2 0x577 SWAP1 PUSH3 0x278D00 PUSH2 0x2054 JUMP JUMPDEST TIMESTAMP LT ISZERO PUSH2 0x597 JUMPI PUSH1 0x40 MLOAD PUSH4 0x30F41595 PUSH1 0xE0 SHL DUP2 MSTORE PUSH1 0x4 ADD PUSH1 0x40 MLOAD DUP1 SWAP2 SUB SWAP1 REVERT JUMPDEST PUSH1 0x9 DUP1 SLOAD PUSH0 SWAP2 DUP3 PUSH2 0x5A7 DUP4 PUSH2 0x2099 JUMP JUMPDEST SWAP2 SWAP1 POP SSTORE SWAP1 POP PUSH2 0x5B7 CALLER DUP3 PUSH2 0x1341 JUMP JUMPDEST PUSH2 0x5F6 DUP2 DUP6 DUP6 DUP1 DUP1 PUSH1 0x1F ADD PUSH1 0x20 DUP1 SWAP2 DIV MUL PUSH1 0x20 ADD PUSH1 0x40 MLOAD SWAP1 DUP2 ADD PUSH1 0x40 MSTORE DUP1 SWAP4 SWAP3 SWAP2 SWAP1 DUP2 DUP2 MSTORE PUSH1 0x20 ADD DUP4 DUP4 DUP1 DUP3 DUP5 CALLDATACOPY PUSH0 SWAP3 ADD SWAP2 SWAP1 SWAP2 MSTORE POP PUSH2 0x135A SWAP3 POP POP POP JUMP JUMPDEST CALLER PUSH0 DUP2 DUP2 MSTORE PUSH1 0xA PUSH1 0x20 SWAP1 DUP2 MSTORE PUSH1 0x40 DUP1 DUP4 KECCAK256 TIMESTAMP SWAP1 SSTORE PUSH1 0xB SWAP1 SWAP2 MSTORE SWAP1 DUP2 SWAP1 KECCAK256 DUP4 SWAP1 SSTORE MLOAD PUSH32 0x5716925F2A990BB51E5354134A606547C86DC787BE1A2729EEF575FD0C2BEA1E SWAP1 PUSH2 0x646 SWAP1 DUP5 SWAP1 DUP7 SWAP1 PUSH2 0x20B1 JUMP JUMPDEST PUSH1 0x40 MLOAD DUP1 SWAP2 SUB SWAP1 LOG2 POP POP POP POP JUMP JUMPDEST PUSH0 PUSH1 0x1 PUSH1 0x1 PUSH1 0xE0 SHL SUB NOT DUP3 AND PUSH4 0x24832483 PUSH1 0xE1 SHL EQ DUP1 PUSH2 0x678 JUMPI POP PUSH2 0x678 DUP3 PUSH2 0x13A9 JUMP JUMPDEST SWAP3 SWAP2 POP POP JUMP JUMPDEST PUSH1 0x60 PUSH0 DUP1 SLOAD PUSH2 0x68C SWAP1 PUSH2 0x20E1 JUMP JUMPDEST DUP1 PUSH1 0x1F ADD PUSH1 0x20 DUP1 SWAP2 DIV MUL PUSH1 0x20 ADD PUSH1 0x40 MLOAD SWAP1 DUP2 ADD PUSH1 0x40 MSTORE DUP1 SWAP3 SWAP2 SWAP1 DUP2 DUP2 MSTORE PUSH1 0x20 ADD DUP3 DUP1 SLOAD PUSH2 0x6B8 SWAP1 PUSH2 0x20E1 JUMP JUMPDEST DUP1 ISZERO PUSH2 0x703 JUMPI DUP1 PUSH1 0x1F LT PUSH2 0x6DA JUMPI PUSH2 0x100 DUP1 DUP4 SLOAD DIV MUL DUP4 MSTORE SWAP2 PUSH1 0x20 ADD SWAP2 PUSH2 0x703 JUMP JUMPDEST DUP3 ADD SWAP2 SWAP1 PUSH0 MSTORE PUSH1 0x20 PUSH0 KECCAK256 SWAP1 JUMPDEST DUP2 SLOAD DUP2 MSTORE SWAP1 PUSH1 0x1 ADD SWAP1 PUSH1 0x20 ADD DUP1 DUP4 GT PUSH2 0x6E6 JUMPI DUP3 SWAP1 SUB PUSH1 0x1F AND DUP3 ADD SWAP2 JUMPDEST POP POP POP POP POP SWAP1 POP SWAP1 JUMP JUMPDEST PUSH0 PUSH2 0x717 DUP3 PUSH2 0x13F8 JUMP JUMPDEST POP PUSH0 DUP3 DUP2 MSTORE PUSH1 0x4 PUSH1 0x20 MSTORE PUSH1 0x40 SWAP1 KECCAK256 SLOAD PUSH1 0x1 PUSH1 0x1 PUSH1 0xA0 SHL SUB AND PUSH2 0x678 JUMP JUMPDEST PUSH2 0x73F DUP3 DUP3 CALLER PUSH2 0x1430 JUMP JUMPDEST POP POP JUMP JUMPDEST PUSH1 0x1 PUSH1 0x1 PUSH1 0xA0 SHL SUB DUP3 AND PUSH2 0x771 JUMPI PUSH1 0x40 MLOAD PUSH4 0x32505749 PUSH1 0xE1 SHL DUP2 MSTORE PUSH0 PUSH1 0x4 DUP3 ADD MSTORE PUSH1 0x24 ADD JUMPDEST PUSH1 0x40 MLOAD DUP1 SWAP2 SUB SWAP1 REVERT JUMPDEST PUSH0 PUSH2 0x77D DUP4 DUP4 CALLER PUSH2 0x143D JUMP JUMPDEST SWAP1 POP DUP4 PUSH1 0x1 PUSH1 0x1 PUSH1 0xA0 SHL SUB AND DUP2 PUSH1 0x1 PUSH1 0x1 PUSH1 0xA0 SHL SUB AND EQ PUSH2 0x7CB JUMPI PUSH1 0x40 MLOAD PUSH4 0x64283D7B PUSH1 0xE0 SHL DUP2 MSTORE PUSH1 0x1 PUSH1 0x1 PUSH1 0xA0 SHL SUB DUP1 DUP7 AND PUSH1 0x4 DUP4 ADD MSTORE PUSH1 0x24 DUP3 ADD DUP5 SWAP1 MSTORE DUP3 AND PUSH1 0x44 DUP3 ADD MSTORE PUSH1 0x64 ADD PUSH2 0x768 JUMP JUMPDEST POP POP POP POP JUMP JUMPDEST PUSH1 0x8 SLOAD PUSH1 0x40 MLOAD PUSH4 0x72693107 PUSH1 0xE1 SHL DUP2 MSTORE CALLER PUSH1 0x4 DUP3 ADD MSTORE PUSH0 SWAP2 PUSH1 0x1 PUSH1 0x1 PUSH1 0xA0 SHL SUB AND SWAP1 PUSH4 0xE4D2620E SWAP1 PUSH1 0x24 ADD PUSH1 0x20 PUSH1 0x40 MLOAD DUP1 DUP4 SUB DUP2 DUP7 GAS STATICCALL ISZERO DUP1 ISZERO PUSH2 0x817 JUMPI RETURNDATASIZE PUSH0 DUP1 RETURNDATACOPY RETURNDATASIZE PUSH0 REVERT JUMPDEST POP POP POP POP PUSH1 0x40 MLOAD RETURNDATASIZE PUSH1 0x1F NOT PUSH1 0x1F DUP3 ADD AND DUP3 ADD DUP1 PUSH1 0x40 MSTORE POP DUP2 ADD SWAP1 PUSH2 0x83B SWAP2 SWAP1 PUSH2 0x2067 JUMP JUMPDEST SWAP1 POP PUSH1 0x2 DUP2 PUSH1 0x2 DUP2 GT ISZERO PUSH2 0x851 JUMPI PUSH2 0x851 PUSH2 0x2085 JUMP JUMPDEST EQ PUSH2 0x894 JUMPI PUSH1 0x40 MLOAD PUSH3 0x461BCD PUSH1 0xE5 SHL DUP2 MSTORE PUSH1 0x20 PUSH1 0x4 DUP3 ADD MSTORE PUSH1 0x13 PUSH1 0x24 DUP3 ADD MSTORE PUSH19 0x2932B8BAB4B932B9902722AC2AA9903A34B2B9 PUSH1 0x69 SHL PUSH1 0x44 DUP3 ADD MSTORE PUSH1 0x64 ADD PUSH2 0x768 JUMP JUMPDEST CALLER PUSH0 SWAP1 DUP2 MSTORE PUSH1 0xD PUSH1 0x20 SWAP1 DUP2 MSTORE PUSH1 0x40 DUP1 DUP4 KECCAK256 PUSH1 0x3 DUP5 MSTORE SWAP1 SWAP2 MSTORE SWAP1 KECCAK256 SLOAD PUSH1 0xFF AND ISZERO PUSH2 0x8CF JUMPI PUSH1 0x40 MLOAD PUSH3 0x461BCD PUSH1 0xE5 SHL DUP2 MSTORE PUSH1 0x4 ADD PUSH2 0x768 SWAP1 PUSH2 0x2119 JUMP JUMPDEST PUSH1 0x9 DUP1 SLOAD PUSH0 SWAP2 DUP3 PUSH2 0x8DF DUP4 PUSH2 0x2099 JUMP JUMPDEST SWAP2 SWAP1 POP SSTORE SWAP1 POP PUSH2 0x8EF CALLER DUP3 PUSH2 0x1341 JUMP JUMPDEST PUSH2 0x922 DUP2 PUSH1 0x40 MLOAD DUP1 PUSH1 0x40 ADD PUSH1 0x40 MSTORE DUP1 PUSH1 0x11 DUP2 MSTORE PUSH1 0x20 ADD PUSH17 0x697066733A2F2F62616467652D626C7565 PUSH1 0x78 SHL DUP2 MSTORE POP PUSH2 0x135A JUMP JUMPDEST CALLER PUSH0 DUP2 DUP2 MSTORE PUSH1 0xD PUSH1 0x20 SWAP1 DUP2 MSTORE PUSH1 0x40 DUP1 DUP4 KECCAK256 PUSH1 0x3 DUP1 DUP6 MSTORE SWAP1 DUP4 MSTORE SWAP3 DUP2 SWAP1 KECCAK256 DUP1 SLOAD PUSH1 0xFF NOT AND PUSH1 0x1 OR SWAP1 SSTORE MLOAD SWAP2 DUP3 MSTORE PUSH32 0xC5E5B314108C1F776C2302351B8278910DDB812B122B2717B1BC973146145E9A SWAP2 ADD JUMPDEST PUSH1 0x40 MLOAD DUP1 SWAP2 SUB SWAP1 LOG2 POP POP JUMP JUMPDEST PUSH2 0x998 DUP4 DUP4 DUP4 PUSH1 0x40 MLOAD DUP1 PUSH1 0x20 ADD PUSH1 0x40 MSTORE DUP1 PUSH0 DUP2 MSTORE POP PUSH2 0x108F JUMP JUMPDEST POP POP POP JUMP JUMPDEST CALLER PUSH2 0x9A7 DUP3 PUSH2 0xD19 JUMP JUMPDEST PUSH1 0x1 PUSH1 0x1 PUSH1 0xA0 SHL SUB AND EQ PUSH2 0x9ED JUMPI PUSH1 0x40 MLOAD PUSH3 0x461BCD PUSH1 0xE5 SHL DUP2 MSTORE PUSH1 0x20 PUSH1 0x4 DUP3 ADD MSTORE PUSH1 0xD PUSH1 0x24 DUP3 ADD MSTORE PUSH13 0x2737BA103A34329037BBB732B9 PUSH1 0x99 SHL PUSH1 0x44 DUP3 ADD MSTORE PUSH1 0x64 ADD PUSH2 0x768 JUMP JUMPDEST CALLER PUSH0 SWAP1 DUP2 MSTORE PUSH1 0xB PUSH1 0x20 MSTORE PUSH1 0x40 SWAP1 KECCAK256 SLOAD DUP2 SWAP1 SUB PUSH2 0xA13 JUMPI CALLER PUSH0 SWAP1 DUP2 MSTORE PUSH1 0xB PUSH1 0x20 MSTORE PUSH1 0x40 DUP2 KECCAK256 SSTORE JUMPDEST CALLER PUSH0 SWAP1 DUP2 MSTORE PUSH1 0xD PUSH1 0x20 SWAP1 DUP2 MSTORE PUSH1 0x40 DUP1 DUP4 KECCAK256 PUSH1 0x1 DUP5 MSTORE SWAP1 SWAP2 MSTORE SWAP1 KECCAK256 SLOAD PUSH1 0xFF AND ISZERO PUSH2 0xB11 JUMPI PUSH1 0x40 MLOAD PUSH4 0xC87B56DD PUSH1 0xE0 SHL DUP2 MSTORE PUSH1 0x4 DUP2 ADD DUP3 SWAP1 MSTORE ADDRESS SWAP1 PUSH4 0xC87B56DD SWAP1 PUSH1 0x24 ADD PUSH0 PUSH1 0x40 MLOAD DUP1 DUP4 SUB DUP2 DUP7 GAS STATICCALL SWAP3 POP POP POP DUP1 ISZERO PUSH2 0xA91 JUMPI POP PUSH1 0x40 MLOAD RETURNDATASIZE PUSH0 DUP3 RETURNDATACOPY PUSH1 0x1F RETURNDATASIZE SWAP1 DUP2 ADD PUSH1 0x1F NOT AND DUP3 ADD PUSH1 0x40 MSTORE PUSH2 0xA8E SWAP2 SWAP1 DUP2 ADD SWAP1 PUSH2 0x2147 JUMP JUMPDEST PUSH1 0x1 JUMPDEST ISZERO PUSH2 0xB11 JUMPI PUSH1 0x40 DUP1 MLOAD DUP1 DUP3 ADD SWAP1 SWAP2 MSTORE PUSH1 0x12 DUP2 MSTORE PUSH18 0x34B833399D1797B130B233B296B3B932B2B7 PUSH1 0x71 SHL PUSH1 0x20 SWAP2 DUP3 ADD MSTORE DUP2 MLOAD SWAP1 DUP3 ADD KECCAK256 PUSH32 0xF05F68D080697F587BB9F0A064AB4D3DF1243A854A8B2C0B2F19BF56D2981D2F ADD PUSH2 0xB0F JUMPI CALLER PUSH0 SWAP1 DUP2 MSTORE PUSH1 0xD PUSH1 0x20 SWAP1 DUP2 MSTORE PUSH1 0x40 DUP1 DUP4 KECCAK256 PUSH1 0x1 DUP5 MSTORE SWAP1 SWAP2 MSTORE SWAP1 KECCAK256 DUP1 SLOAD PUSH1 0xFF NOT AND SWAP1 SSTORE JUMPDEST POP JUMPDEST CALLER PUSH0 SWAP1 DUP2 MSTORE PUSH1 0xD PUSH1 0x20 SWAP1 DUP2 MSTORE PUSH1 0x40 DUP1 DUP4 KECCAK256 PUSH1 0x2 DUP5 MSTORE SWAP1 SWAP2 MSTORE SWAP1 KECCAK256 SLOAD PUSH1 0xFF AND ISZERO PUSH2 0xC10 JUMPI PUSH1 0x40 MLOAD PUSH4 0xC87B56DD PUSH1 0xE0 SHL DUP2 MSTORE PUSH1 0x4 DUP2 ADD DUP3 SWAP1 MSTORE ADDRESS SWAP1 PUSH4 0xC87B56DD SWAP1 PUSH1 0x24 ADD PUSH0 PUSH1 0x40 MLOAD DUP1 DUP4 SUB DUP2 DUP7 GAS STATICCALL SWAP3 POP POP POP DUP1 ISZERO PUSH2 0xB8F JUMPI POP PUSH1 0x40 MLOAD RETURNDATASIZE PUSH0 DUP3 RETURNDATACOPY PUSH1 0x1F RETURNDATASIZE SWAP1 DUP2 ADD PUSH1 0x1F NOT AND DUP3 ADD PUSH1 0x40 MSTORE PUSH2 0xB8C SWAP2 SWAP1 DUP2 ADD SWAP1 PUSH2 0x2147 JUMP JUMPDEST PUSH1 0x1 JUMPDEST ISZERO PUSH2 0xC10 JUMPI PUSH1 0x40 DUP1 MLOAD DUP1 DUP3 ADD SWAP1 SWAP2 MSTORE PUSH1 0x13 DUP2 MSTORE PUSH19 0x697066733A2F2F62616467652D79656C6C6F77 PUSH1 0x68 SHL PUSH1 0x20 SWAP2 DUP3 ADD MSTORE DUP2 MLOAD SWAP1 DUP3 ADD KECCAK256 PUSH32 0x5B4D49074A2268BFDE4365DAD15C156DECC5D65641F1BD299AD30C61F44BC6C ADD PUSH2 0xC0E JUMPI CALLER PUSH0 SWAP1 DUP2 MSTORE PUSH1 0xD PUSH1 0x20 SWAP1 DUP2 MSTORE PUSH1 0x40 DUP1 DUP4 KECCAK256 PUSH1 0x2 DUP5 MSTORE SWAP1 SWAP2 MSTORE SWAP1 KECCAK256 DUP1 SLOAD PUSH1 0xFF NOT AND SWAP1 SSTORE JUMPDEST POP JUMPDEST CALLER PUSH0 SWAP1 DUP2 MSTORE PUSH1 0xD PUSH1 0x20 SWAP1 DUP2 MSTORE PUSH1 0x40 DUP1 DUP4 KECCAK256 PUSH1 0x3 DUP5 MSTORE SWAP1 SWAP2 MSTORE SWAP1 KECCAK256 SLOAD PUSH1 0xFF AND ISZERO PUSH2 0xD0D JUMPI PUSH1 0x40 MLOAD PUSH4 0xC87B56DD PUSH1 0xE0 SHL DUP2 MSTORE PUSH1 0x4 DUP2 ADD DUP3 SWAP1 MSTORE ADDRESS SWAP1 PUSH4 0xC87B56DD SWAP1 PUSH1 0x24 ADD PUSH0 PUSH1 0x40 MLOAD DUP1 DUP4 SUB DUP2 DUP7 GAS STATICCALL SWAP3 POP POP POP DUP1 ISZERO PUSH2 0xC8E JUMPI POP PUSH1 0x40 MLOAD RETURNDATASIZE PUSH0 DUP3 RETURNDATACOPY PUSH1 0x1F RETURNDATASIZE SWAP1 DUP2 ADD PUSH1 0x1F NOT AND DUP3 ADD PUSH1 0x40 MSTORE PUSH2 0xC8B SWAP2 SWAP1 DUP2 ADD SWAP1 PUSH2 0x2147 JUMP JUMPDEST PUSH1 0x1 JUMPDEST ISZERO PUSH2 0xD0D JUMPI PUSH1 0x40 DUP1 MLOAD DUP1 DUP3 ADD SWAP1 SWAP2 MSTORE PUSH1 0x11 DUP2 MSTORE PUSH17 0x697066733A2F2F62616467652D626C7565 PUSH1 0x78 SHL PUSH1 0x20 SWAP2 DUP3 ADD MSTORE DUP2 MLOAD SWAP1 DUP3 ADD KECCAK256 PUSH32 0xA85E0FBA6C23B0459AD9500D94D3F53E46C22EFB78EC8448D6D13EA6931F174D ADD PUSH2 0xD0B JUMPI CALLER PUSH0 SWAP1 DUP2 MSTORE PUSH1 0xD PUSH1 0x20 SWAP1 DUP2 MSTORE PUSH1 0x40 DUP1 DUP4 KECCAK256 PUSH1 0x3 DUP5 MSTORE SWAP1 SWAP2 MSTORE SWAP1 KECCAK256 DUP1 SLOAD PUSH1 0xFF NOT AND SWAP1 SSTORE JUMPDEST POP JUMPDEST PUSH2 0xD16 DUP2 PUSH2 0x149D JUMP JUMPDEST POP JUMP JUMPDEST PUSH0 PUSH2 0x678 DUP3 PUSH2 0x13F8 JUMP JUMPDEST PUSH0 PUSH1 0x1 PUSH1 0x1 PUSH1 0xA0 SHL SUB DUP3 AND PUSH2 0xD4D JUMPI PUSH1 0x40 MLOAD PUSH4 0x22718AD9 PUSH1 0xE2 SHL DUP2 MSTORE PUSH0 PUSH1 0x4 DUP3 ADD MSTORE PUSH1 0x24 ADD PUSH2 0x768 JUMP JUMPDEST POP PUSH1 0x1 PUSH1 0x1 PUSH1 0xA0 SHL SUB AND PUSH0 SWAP1 DUP2 MSTORE PUSH1 0x3 PUSH1 0x20 MSTORE PUSH1 0x40 SWAP1 KECCAK256 SLOAD SWAP1 JUMP JUMPDEST PUSH2 0xD70 PUSH2 0x1314 JUMP JUMPDEST PUSH2 0xD79 PUSH0 PUSH2 0x14D5 JUMP JUMPDEST JUMP JUMPDEST PUSH1 0x8 SLOAD PUSH1 0x40 MLOAD PUSH4 0x72693107 PUSH1 0xE1 SHL DUP2 MSTORE CALLER PUSH1 0x4 DUP3 ADD MSTORE PUSH0 SWAP2 PUSH1 0x1 PUSH1 0x1 PUSH1 0xA0 SHL SUB AND SWAP1 PUSH4 0xE4D2620E SWAP1 PUSH1 0x24 ADD PUSH1 0x20 PUSH1 0x40 MLOAD DUP1 DUP4 SUB DUP2 DUP7 GAS STATICCALL ISZERO DUP1 ISZERO PUSH2 0xDC1 JUMPI RETURNDATASIZE PUSH0 DUP1 RETURNDATACOPY RETURNDATASIZE PUSH0 REVERT JUMPDEST POP POP POP POP PUSH1 0x40 MLOAD RETURNDATASIZE PUSH1 0x1F NOT PUSH1 0x1F DUP3 ADD AND DUP3 ADD DUP1 PUSH1 0x40 MSTORE POP DUP2 ADD SWAP1 PUSH2 0xDE5 SWAP2 SWAP1 PUSH2 0x2067 JUMP JUMPDEST SWAP1 POP PUSH1 0x1 DUP2 PUSH1 0x2 DUP2 GT ISZERO PUSH2 0xDFB JUMPI PUSH2 0xDFB PUSH2 0x2085 JUMP JUMPDEST EQ DUP1 PUSH2 0xE18 JUMPI POP PUSH1 0x2 DUP2 PUSH1 0x2 DUP2 GT ISZERO PUSH2 0xE16 JUMPI PUSH2 0xE16 PUSH2 0x2085 JUMP JUMPDEST EQ JUMPDEST PUSH2 0xE5B JUMPI PUSH1 0x40 MLOAD PUSH3 0x461BCD PUSH1 0xE5 SHL DUP2 MSTORE PUSH1 0x20 PUSH1 0x4 DUP3 ADD MSTORE PUSH1 0x14 PUSH1 0x24 DUP3 ADD MSTORE PUSH20 0x2932B8BAB4B932B9902B22A1AA27A9103A34B2B9 PUSH1 0x61 SHL PUSH1 0x44 DUP3 ADD MSTORE PUSH1 0x64 ADD PUSH2 0x768 JUMP JUMPDEST CALLER PUSH0 SWAP1 DUP2 MSTORE PUSH1 0xD PUSH1 0x20 SWAP1 DUP2 MSTORE PUSH1 0x40 DUP1 DUP4 KECCAK256 PUSH1 0x2 DUP5 MSTORE SWAP1 SWAP2 MSTORE SWAP1 KECCAK256 SLOAD PUSH1 0xFF AND ISZERO PUSH2 0xE96 JUMPI PUSH1 0x40 MLOAD PUSH3 0x461BCD PUSH1 0xE5 SHL DUP2 MSTORE PUSH1 0x4 ADD PUSH2 0x768 SWAP1 PUSH2 0x2119 JUMP JUMPDEST PUSH1 0x9 DUP1 SLOAD PUSH0 SWAP2 DUP3 PUSH2 0xEA6 DUP4 PUSH2 0x2099 JUMP JUMPDEST SWAP2 SWAP1 POP SSTORE SWAP1 POP PUSH2 0xEB6 CALLER DUP3 PUSH2 0x1341 JUMP JUMPDEST PUSH2 0xEEB DUP2 PUSH1 0x40 MLOAD DUP1 PUSH1 0x40 ADD PUSH1 0x40 MSTORE DUP1 PUSH1 0x13 DUP2 MSTORE PUSH1 0x20 ADD PUSH19 0x697066733A2F2F62616467652D79656C6C6F77 PUSH1 0x68 SHL DUP2 MSTORE POP PUSH2 0x135A JUMP JUMPDEST CALLER PUSH0 DUP2 DUP2 MSTORE PUSH1 0xD PUSH1 0x20 SWAP1 DUP2 MSTORE PUSH1 0x40 DUP1 DUP4 KECCAK256 PUSH1 0x2 DUP1 DUP6 MSTORE SWAP1 DUP4 MSTORE SWAP3 DUP2 SWAP1 KECCAK256 DUP1 SLOAD PUSH1 0xFF NOT AND PUSH1 0x1 OR SWAP1 SSTORE MLOAD SWAP2 DUP3 MSTORE PUSH32 0xC5E5B314108C1F776C2302351B8278910DDB812B122B2717B1BC973146145E9A SWAP2 ADD PUSH2 0x972 JUMP JUMPDEST PUSH1 0x60 PUSH1 0x1 DUP1 SLOAD PUSH2 0x68C SWAP1 PUSH2 0x20E1 JUMP JUMPDEST PUSH2 0x73F CALLER DUP4 DUP4 PUSH2 0x1526 JUMP JUMPDEST CALLER PUSH0 SWAP1 DUP2 MSTORE PUSH1 0xC PUSH1 0x20 MSTORE PUSH1 0x40 SWAP1 KECCAK256 SLOAD PUSH2 0xFA7 JUMPI PUSH1 0x40 MLOAD PUSH3 0x461BCD PUSH1 0xE5 SHL DUP2 MSTORE PUSH1 0x20 PUSH1 0x4 DUP3 ADD MSTORE PUSH1 0x10 PUSH1 0x24 DUP3 ADD MSTORE PUSH16 0x5265717569726573203E203020747873 PUSH1 0x80 SHL PUSH1 0x44 DUP3 ADD MSTORE PUSH1 0x64 ADD PUSH2 0x768 JUMP JUMPDEST CALLER PUSH0 SWAP1 DUP2 MSTORE PUSH1 0xD PUSH1 0x20 SWAP1 DUP2 MSTORE PUSH1 0x40 DUP1 DUP4 KECCAK256 PUSH1 0x1 DUP5 MSTORE SWAP1 SWAP2 MSTORE SWAP1 KECCAK256 SLOAD PUSH1 0xFF AND ISZERO PUSH2 0xFE2 JUMPI PUSH1 0x40 MLOAD PUSH3 0x461BCD PUSH1 0xE5 SHL DUP2 MSTORE PUSH1 0x4 ADD PUSH2 0x768 SWAP1 PUSH2 0x2119 JUMP JUMPDEST PUSH1 0x9 DUP1 SLOAD PUSH0 SWAP2 DUP3 PUSH2 0xFF2 DUP4 PUSH2 0x2099 JUMP JUMPDEST SWAP2 SWAP1 POP SSTORE SWAP1 POP PUSH2 0x1002 CALLER DUP3 PUSH2 0x1341 JUMP JUMPDEST PUSH2 0x1036 DUP2 PUSH1 0x40 MLOAD DUP1 PUSH1 0x40 ADD PUSH1 0x40 MSTORE DUP1 PUSH1 0x12 DUP2 MSTORE PUSH1 0x20 ADD PUSH18 0x34B833399D1797B130B233B296B3B932B2B7 PUSH1 0x71 SHL DUP2 MSTORE POP PUSH2 0x135A JUMP JUMPDEST CALLER PUSH0 DUP2 DUP2 MSTORE PUSH1 0xD PUSH1 0x20 SWAP1 DUP2 MSTORE PUSH1 0x40 DUP1 DUP4 KECCAK256 PUSH1 0x1 DUP1 DUP6 MSTORE SWAP1 DUP4 MSTORE SWAP3 DUP2 SWAP1 KECCAK256 DUP1 SLOAD PUSH1 0xFF NOT AND DUP5 OR SWAP1 SSTORE MLOAD SWAP2 DUP3 MSTORE PUSH32 0xC5E5B314108C1F776C2302351B8278910DDB812B122B2717B1BC973146145E9A SWAP2 ADD PUSH1 0x40 MLOAD DUP1 SWAP2 SUB SWAP1 LOG2 POP JUMP JUMPDEST PUSH2 0x109A DUP5 DUP5 DUP5 PUSH2 0x743 JUMP JUMPDEST PUSH2 0x7CB CALLER DUP6 DUP6 DUP6 DUP6 PUSH2 0x15ED JUMP JUMPDEST PUSH1 0x60 PUSH2 0x10B2 DUP3 PUSH2 0x13F8 JUMP JUMPDEST POP PUSH0 PUSH2 0x10C8 PUSH1 0x40 DUP1 MLOAD PUSH1 0x20 DUP2 ADD SWAP1 SWAP2 MSTORE PUSH0 DUP2 MSTORE SWAP1 JUMP JUMPDEST SWAP1 POP PUSH0 PUSH2 0x10D4 DUP5 PUSH2 0x1715 JUMP JUMPDEST SWAP1 POP DUP2 MLOAD PUSH0 SUB PUSH2 0x10E5 JUMPI SWAP4 SWAP3 POP POP POP JUMP JUMPDEST DUP1 MLOAD ISZERO PUSH2 0x1117 JUMPI DUP2 DUP2 PUSH1 0x40 MLOAD PUSH1 0x20 ADD PUSH2 0x10FF SWAP3 SWAP2 SWAP1 PUSH2 0x21B0 JUMP JUMPDEST PUSH1 0x40 MLOAD PUSH1 0x20 DUP2 DUP4 SUB SUB DUP2 MSTORE SWAP1 PUSH1 0x40 MSTORE SWAP3 POP POP POP SWAP2 SWAP1 POP JUMP JUMPDEST PUSH2 0x1120 DUP5 PUSH2 0x17B4 JUMP JUMPDEST SWAP5 SWAP4 POP POP POP POP JUMP JUMPDEST PUSH2 0x1130 PUSH2 0x1314 JUMP JUMPDEST PUSH1 0x8 DUP1 SLOAD PUSH1 0x1 PUSH1 0x1 PUSH1 0xA0 SHL SUB NOT AND PUSH1 0x1 PUSH1 0x1 PUSH1 0xA0 SHL SUB SWAP3 SWAP1 SWAP3 AND SWAP2 SWAP1 SWAP2 OR SWAP1 SSTORE JUMP JUMPDEST CALLER PUSH2 0x115C DUP5 PUSH2 0xD19 JUMP JUMPDEST PUSH1 0x1 PUSH1 0x1 PUSH1 0xA0 SHL SUB AND EQ PUSH2 0x119E JUMPI PUSH1 0x40 MLOAD PUSH3 0x461BCD PUSH1 0xE5 SHL DUP2 MSTORE PUSH1 0x20 PUSH1 0x4 DUP3 ADD MSTORE PUSH1 0x9 PUSH1 0x24 DUP3 ADD MSTORE PUSH9 0x2737BA1037BBB732B9 PUSH1 0xB9 SHL PUSH1 0x44 DUP3 ADD MSTORE PUSH1 0x64 ADD PUSH2 0x768 JUMP JUMPDEST PUSH1 0x8 SLOAD PUSH1 0x40 MLOAD PUSH4 0x72693107 PUSH1 0xE1 SHL DUP2 MSTORE CALLER PUSH1 0x4 DUP3 ADD MSTORE PUSH0 SWAP2 PUSH1 0x1 PUSH1 0x1 PUSH1 0xA0 SHL SUB AND SWAP1 PUSH4 0xE4D2620E SWAP1 PUSH1 0x24 ADD PUSH1 0x20 PUSH1 0x40 MLOAD DUP1 DUP4 SUB DUP2 DUP7 GAS STATICCALL ISZERO DUP1 ISZERO PUSH2 0x11E4 JUMPI RETURNDATASIZE PUSH0 DUP1 RETURNDATACOPY RETURNDATASIZE PUSH0 REVERT JUMPDEST POP POP POP POP PUSH1 0x40 MLOAD RETURNDATASIZE PUSH1 0x1F NOT PUSH1 0x1F DUP3 ADD AND DUP3 ADD DUP1 PUSH1 0x40 MSTORE POP DUP2 ADD SWAP1 PUSH2 0x1208 SWAP2 SWAP1 PUSH2 0x2067 JUMP JUMPDEST SWAP1 POP PUSH1 0x2 DUP2 PUSH1 0x2 DUP2 GT ISZERO PUSH2 0x121E JUMPI PUSH2 0x121E PUSH2 0x2085 JUMP JUMPDEST EQ PUSH2 0x123C JUMPI PUSH1 0x40 MLOAD PUSH4 0x9238E155 PUSH1 0xE0 SHL DUP2 MSTORE PUSH1 0x4 ADD PUSH1 0x40 MLOAD DUP1 SWAP2 SUB SWAP1 REVERT JUMPDEST PUSH2 0x127B DUP5 DUP5 DUP5 DUP1 DUP1 PUSH1 0x1F ADD PUSH1 0x20 DUP1 SWAP2 DIV MUL PUSH1 0x20 ADD PUSH1 0x40 MLOAD SWAP1 DUP2 ADD PUSH1 0x40 MSTORE DUP1 SWAP4 SWAP3 SWAP2 SWAP1 DUP2 DUP2 MSTORE PUSH1 0x20 ADD DUP4 DUP4 DUP1 DUP3 DUP5 CALLDATACOPY PUSH0 SWAP3 ADD SWAP2 SWAP1 SWAP2 MSTORE POP PUSH2 0x135A SWAP3 POP POP POP JUMP JUMPDEST DUP4 PUSH32 0x459157BA24C7AB9878B165EF465FA6AE2AB42BCD8445F576BE378768B0C47309 DUP5 DUP5 PUSH1 0x40 MLOAD PUSH2 0x646 SWAP3 SWAP2 SWAP1 PUSH2 0x21DE JUMP JUMPDEST PUSH1 0x1 PUSH1 0x1 PUSH1 0xA0 SHL SUB SWAP2 DUP3 AND PUSH0 SWAP1 DUP2 MSTORE PUSH1 0x5 PUSH1 0x20 SWAP1 DUP2 MSTORE PUSH1 0x40 DUP1 DUP4 KECCAK256 SWAP4 SWAP1 SWAP5 AND DUP3 MSTORE SWAP2 SWAP1 SWAP2 MSTORE KECCAK256 SLOAD PUSH1 0xFF AND SWAP1 JUMP JUMPDEST PUSH2 0x12E2 PUSH2 0x1314 JUMP JUMPDEST PUSH1 0x1 PUSH1 0x1 PUSH1 0xA0 SHL SUB DUP2 AND PUSH2 0x130B JUMPI PUSH1 0x40 MLOAD PUSH4 0x1E4FBDF7 PUSH1 0xE0 SHL DUP2 MSTORE PUSH0 PUSH1 0x4 DUP3 ADD MSTORE PUSH1 0x24 ADD PUSH2 0x768 JUMP JUMPDEST PUSH2 0xD16 DUP2 PUSH2 0x14D5 JUMP JUMPDEST PUSH1 0x7 SLOAD PUSH1 0x1 PUSH1 0x1 PUSH1 0xA0 SHL SUB AND CALLER EQ PUSH2 0xD79 JUMPI PUSH1 0x40 MLOAD PUSH4 0x118CDAA7 PUSH1 0xE0 SHL DUP2 MSTORE CALLER PUSH1 0x4 DUP3 ADD MSTORE PUSH1 0x24 ADD PUSH2 0x768 JUMP JUMPDEST PUSH2 0x73F DUP3 DUP3 PUSH1 0x40 MLOAD DUP1 PUSH1 0x20 ADD PUSH1 0x40 MSTORE DUP1 PUSH0 DUP2 MSTORE POP PUSH2 0x1825 JUMP JUMPDEST PUSH0 DUP3 DUP2 MSTORE PUSH1 0x6 PUSH1 0x20 MSTORE PUSH1 0x40 SWAP1 KECCAK256 PUSH2 0x1371 DUP3 DUP3 PUSH2 0x2250 JUMP JUMPDEST POP PUSH1 0x40 MLOAD DUP3 DUP2 MSTORE PUSH32 0xF8E1A15ABA9398E019F0B49DF1A4FDE98EE17AE345CB5F6B5E2C27F5033E8CE7 SWAP1 PUSH1 0x20 ADD PUSH1 0x40 MLOAD DUP1 SWAP2 SUB SWAP1 LOG1 POP POP JUMP JUMPDEST PUSH0 PUSH1 0x1 PUSH1 0x1 PUSH1 0xE0 SHL SUB NOT DUP3 AND PUSH4 0x80AC58CD PUSH1 0xE0 SHL EQ DUP1 PUSH2 0x13D9 JUMPI POP PUSH1 0x1 PUSH1 0x1 PUSH1 0xE0 SHL SUB NOT DUP3 AND PUSH4 0x5B5E139F PUSH1 0xE0 SHL EQ JUMPDEST DUP1 PUSH2 0x678 JUMPI POP PUSH4 0x1FFC9A7 PUSH1 0xE0 SHL PUSH1 0x1 PUSH1 0x1 PUSH1 0xE0 SHL SUB NOT DUP4 AND EQ PUSH2 0x678 JUMP JUMPDEST PUSH0 DUP2 DUP2 MSTORE PUSH1 0x2 PUSH1 0x20 MSTORE PUSH1 0x40 DUP2 KECCAK256 SLOAD PUSH1 0x1 PUSH1 0x1 PUSH1 0xA0 SHL SUB AND DUP1 PUSH2 0x678 JUMPI PUSH1 0x40 MLOAD PUSH4 0x7E273289 PUSH1 0xE0 SHL DUP2 MSTORE PUSH1 0x4 DUP2 ADD DUP5 SWAP1 MSTORE PUSH1 0x24 ADD PUSH2 0x768 JUMP JUMPDEST PUSH2 0x998 DUP4 DUP4 DUP4 PUSH1 0x1 PUSH2 0x183C JUMP JUMPDEST PUSH0 DUP3 DUP2 MSTORE PUSH1 0x2 PUSH1 0x20 MSTORE PUSH1 0x40 DUP2 KECCAK256 SLOAD PUSH1 0x1 PUSH1 0x1 PUSH1 0xA0 SHL SUB AND DUP1 ISZERO DUP1 ISZERO SWAP1 PUSH2 0x146B JUMPI POP PUSH1 0x1 PUSH1 0x1 PUSH1 0xA0 SHL SUB DUP6 AND ISZERO ISZERO JUMPDEST ISZERO PUSH2 0x1489 JUMPI PUSH1 0x40 MLOAD PUSH4 0x9CBE2357 PUSH1 0xE0 SHL DUP2 MSTORE PUSH1 0x4 ADD PUSH1 0x40 MLOAD DUP1 SWAP2 SUB SWAP1 REVERT JUMPDEST PUSH2 0x1494 DUP6 DUP6 DUP6 PUSH2 0x1940 JUMP JUMPDEST SWAP6 SWAP5 POP POP POP POP POP JUMP JUMPDEST PUSH0 PUSH2 0x14A9 PUSH0 DUP4 PUSH0 PUSH2 0x143D JUMP JUMPDEST SWAP1 POP PUSH1 0x1 PUSH1 0x1 PUSH1 0xA0 SHL SUB DUP2 AND PUSH2 0x73F JUMPI PUSH1 0x40 MLOAD PUSH4 0x7E273289 PUSH1 0xE0 SHL DUP2 MSTORE PUSH1 0x4 DUP2 ADD DUP4 SWAP1 MSTORE PUSH1 0x24 ADD PUSH2 0x768 JUMP JUMPDEST PUSH1 0x7 DUP1 SLOAD PUSH1 0x1 PUSH1 0x1 PUSH1 0xA0 SHL SUB DUP4 DUP2 AND PUSH1 0x1 PUSH1 0x1 PUSH1 0xA0 SHL SUB NOT DUP4 AND DUP2 OR SWAP1 SWAP4 SSTORE PUSH1 0x40 MLOAD SWAP2 AND SWAP2 SWAP1 DUP3 SWAP1 PUSH32 0x8BE0079C531659141344CD1FD0A4F28419497F9722A3DAAFE3B4186F6B6457E0 SWAP1 PUSH0 SWAP1 LOG3 POP POP JUMP JUMPDEST PUSH1 0x1 PUSH1 0x1 PUSH1 0xA0 SHL SUB DUP4 AND PUSH2 0x154F JUMPI PUSH1 0x40 MLOAD PUSH4 0xA9FBF51F PUSH1 0xE0 SHL DUP2 MSTORE PUSH0 PUSH1 0x4 DUP3 ADD MSTORE PUSH1 0x24 ADD PUSH2 0x768 JUMP JUMPDEST PUSH1 0x1 PUSH1 0x1 PUSH1 0xA0 SHL SUB DUP3 AND PUSH2 0x1581 JUMPI PUSH1 0x40 MLOAD PUSH4 0xB611743 PUSH1 0xE3 SHL DUP2 MSTORE PUSH1 0x1 PUSH1 0x1 PUSH1 0xA0 SHL SUB DUP4 AND PUSH1 0x4 DUP3 ADD MSTORE PUSH1 0x24 ADD PUSH2 0x768 JUMP JUMPDEST PUSH1 0x1 PUSH1 0x1 PUSH1 0xA0 SHL SUB DUP4 DUP2 AND PUSH0 DUP2 DUP2 MSTORE PUSH1 0x5 PUSH1 0x20 SWAP1 DUP2 MSTORE PUSH1 0x40 DUP1 DUP4 KECCAK256 SWAP5 DUP8 AND DUP1 DUP5 MSTORE SWAP5 DUP3 MSTORE SWAP2 DUP3 SWAP1 KECCAK256 DUP1 SLOAD PUSH1 0xFF NOT AND DUP7 ISZERO ISZERO SWAP1 DUP2 OR SWAP1 SWAP2 SSTORE SWAP2 MLOAD SWAP2 DUP3 MSTORE PUSH32 0x17307EAB39AB6107E8899845AD3D59BD9653F200F220920489CA2B5937696C31 SWAP2 ADD PUSH1 0x40 MLOAD DUP1 SWAP2 SUB SWAP1 LOG3 POP POP POP JUMP JUMPDEST PUSH1 0x1 PUSH1 0x1 PUSH1 0xA0 SHL SUB DUP4 AND EXTCODESIZE ISZERO PUSH2 0x170E JUMPI PUSH1 0x40 MLOAD PUSH4 0xA85BD01 PUSH1 0xE1 SHL DUP2 MSTORE PUSH1 0x1 PUSH1 0x1 PUSH1 0xA0 SHL SUB DUP5 AND SWAP1 PUSH4 0x150B7A02 SWAP1 PUSH2 0x162F SWAP1 DUP9 SWAP1 DUP9 SWAP1 DUP8 SWAP1 DUP8 SWAP1 PUSH1 0x4 ADD PUSH2 0x230C JUMP JUMPDEST PUSH1 0x20 PUSH1 0x40 MLOAD DUP1 DUP4 SUB DUP2 PUSH0 DUP8 GAS CALL SWAP3 POP POP POP DUP1 ISZERO PUSH2 0x1669 JUMPI POP PUSH1 0x40 DUP1 MLOAD PUSH1 0x1F RETURNDATASIZE SWAP1 DUP2 ADD PUSH1 0x1F NOT AND DUP3 ADD SWAP1 SWAP3 MSTORE PUSH2 0x1666 SWAP2 DUP2 ADD SWAP1 PUSH2 0x2348 JUMP JUMPDEST PUSH1 0x1 JUMPDEST PUSH2 0x16D0 JUMPI RETURNDATASIZE DUP1 DUP1 ISZERO PUSH2 0x1696 JUMPI PUSH1 0x40 MLOAD SWAP2 POP PUSH1 0x1F NOT PUSH1 0x3F RETURNDATASIZE ADD AND DUP3 ADD PUSH1 0x40 MSTORE RETURNDATASIZE DUP3 MSTORE RETURNDATASIZE PUSH0 PUSH1 0x20 DUP5 ADD RETURNDATACOPY PUSH2 0x169B JUMP JUMPDEST PUSH1 0x60 SWAP2 POP JUMPDEST POP DUP1 MLOAD PUSH0 SUB PUSH2 0x16C8 JUMPI PUSH1 0x40 MLOAD PUSH4 0x32505749 PUSH1 0xE1 SHL DUP2 MSTORE PUSH1 0x1 PUSH1 0x1 PUSH1 0xA0 SHL SUB DUP6 AND PUSH1 0x4 DUP3 ADD MSTORE PUSH1 0x24 ADD PUSH2 0x768 JUMP JUMPDEST DUP1 MLOAD PUSH1 0x20 DUP3 ADD REVERT JUMPDEST PUSH1 0x1 PUSH1 0x1 PUSH1 0xE0 SHL SUB NOT DUP2 AND PUSH4 0xA85BD01 PUSH1 0xE1 SHL EQ PUSH2 0x170C JUMPI PUSH1 0x40 MLOAD PUSH4 0x32505749 PUSH1 0xE1 SHL DUP2 MSTORE PUSH1 0x1 PUSH1 0x1 PUSH1 0xA0 SHL SUB DUP6 AND PUSH1 0x4 DUP3 ADD MSTORE PUSH1 0x24 ADD PUSH2 0x768 JUMP JUMPDEST POP JUMPDEST POP POP POP POP POP JUMP JUMPDEST PUSH0 DUP2 DUP2 MSTORE PUSH1 0x6 PUSH1 0x20 MSTORE PUSH1 0x40 SWAP1 KECCAK256 DUP1 SLOAD PUSH1 0x60 SWAP2 SWAP1 PUSH2 0x1731 SWAP1 PUSH2 0x20E1 JUMP JUMPDEST DUP1 PUSH1 0x1F ADD PUSH1 0x20 DUP1 SWAP2 DIV MUL PUSH1 0x20 ADD PUSH1 0x40 MLOAD SWAP1 DUP2 ADD PUSH1 0x40 MSTORE DUP1 SWAP3 SWAP2 SWAP1 DUP2 DUP2 MSTORE PUSH1 0x20 ADD DUP3 DUP1 SLOAD PUSH2 0x175D SWAP1 PUSH2 0x20E1 JUMP JUMPDEST DUP1 ISZERO PUSH2 0x17A8 JUMPI DUP1 PUSH1 0x1F LT PUSH2 0x177F JUMPI PUSH2 0x100 DUP1 DUP4 SLOAD DIV MUL DUP4 MSTORE SWAP2 PUSH1 0x20 ADD SWAP2 PUSH2 0x17A8 JUMP JUMPDEST DUP3 ADD SWAP2 SWAP1 PUSH0 MSTORE PUSH1 0x20 PUSH0 KECCAK256 SWAP1 JUMPDEST DUP2 SLOAD DUP2 MSTORE SWAP1 PUSH1 0x1 ADD SWAP1 PUSH1 0x20 ADD DUP1 DUP4 GT PUSH2 0x178B JUMPI DUP3 SWAP1 SUB PUSH1 0x1F AND DUP3 ADD SWAP2 JUMPDEST POP POP POP POP POP SWAP1 POP SWAP2 SWAP1 POP JUMP JUMPDEST PUSH1 0x60 PUSH2 0x17BF DUP3 PUSH2 0x13F8 JUMP JUMPDEST POP PUSH0 PUSH2 0x17D5 PUSH1 0x40 DUP1 MLOAD PUSH1 0x20 DUP2 ADD SWAP1 SWAP2 MSTORE PUSH0 DUP2 MSTORE SWAP1 JUMP JUMPDEST SWAP1 POP PUSH0 DUP2 MLOAD GT PUSH2 0x17F3 JUMPI PUSH1 0x40 MLOAD DUP1 PUSH1 0x20 ADD PUSH1 0x40 MSTORE DUP1 PUSH0 DUP2 MSTORE POP PUSH2 0x181E JUMP JUMPDEST DUP1 PUSH2 0x17FD DUP5 PUSH2 0x1A32 JUMP JUMPDEST PUSH1 0x40 MLOAD PUSH1 0x20 ADD PUSH2 0x180E SWAP3 SWAP2 SWAP1 PUSH2 0x21B0 JUMP JUMPDEST PUSH1 0x40 MLOAD PUSH1 0x20 DUP2 DUP4 SUB SUB DUP2 MSTORE SWAP1 PUSH1 0x40 MSTORE JUMPDEST SWAP4 SWAP3 POP POP POP JUMP JUMPDEST PUSH2 0x182F DUP4 DUP4 PUSH2 0x1AC2 JUMP JUMPDEST PUSH2 0x998 CALLER PUSH0 DUP6 DUP6 DUP6 PUSH2 0x15ED JUMP JUMPDEST DUP1 DUP1 PUSH2 0x1850 JUMPI POP PUSH1 0x1 PUSH1 0x1 PUSH1 0xA0 SHL SUB DUP3 AND ISZERO ISZERO JUMPDEST ISZERO PUSH2 0x1911 JUMPI PUSH0 PUSH2 0x185F DUP5 PUSH2 0x13F8 JUMP JUMPDEST SWAP1 POP PUSH1 0x1 PUSH1 0x1 PUSH1 0xA0 SHL SUB DUP4 AND ISZERO DUP1 ISZERO SWAP1 PUSH2 0x188B JUMPI POP DUP3 PUSH1 0x1 PUSH1 0x1 PUSH1 0xA0 SHL SUB AND DUP2 PUSH1 0x1 PUSH1 0x1 PUSH1 0xA0 SHL SUB AND EQ ISZERO JUMPDEST DUP1 ISZERO PUSH2 0x189E JUMPI POP PUSH2 0x189C DUP2 DUP5 PUSH2 0x12AD JUMP JUMPDEST ISZERO JUMPDEST ISZERO PUSH2 0x18C7 JUMPI PUSH1 0x40 MLOAD PUSH4 0xA9FBF51F PUSH1 0xE0 SHL DUP2 MSTORE PUSH1 0x1 PUSH1 0x1 PUSH1 0xA0 SHL SUB DUP5 AND PUSH1 0x4 DUP3 ADD MSTORE PUSH1 0x24 ADD PUSH2 0x768 JUMP JUMPDEST DUP2 ISZERO PUSH2 0x190F JUMPI DUP4 DUP6 PUSH1 0x1 PUSH1 0x1 PUSH1 0xA0 SHL SUB AND DUP3 PUSH1 0x1 PUSH1 0x1 PUSH1 0xA0 SHL SUB AND PUSH32 0x8C5BE1E5EBEC7D5BD14F71427D1E84F3DD0314C0F7B2291E5B200AC8C7C3B925 PUSH1 0x40 MLOAD PUSH1 0x40 MLOAD DUP1 SWAP2 SUB SWAP1 LOG4 JUMPDEST POP JUMPDEST POP POP PUSH0 SWAP1 DUP2 MSTORE PUSH1 0x4 PUSH1 0x20 MSTORE PUSH1 0x40 SWAP1 KECCAK256 DUP1 SLOAD PUSH1 0x1 PUSH1 0x1 PUSH1 0xA0 SHL SUB NOT AND PUSH1 0x1 PUSH1 0x1 PUSH1 0xA0 SHL SUB SWAP3 SWAP1 SWAP3 AND SWAP2 SWAP1 SWAP2 OR SWAP1 SSTORE JUMP JUMPDEST PUSH0 DUP3 DUP2 MSTORE PUSH1 0x2 PUSH1 0x20 MSTORE PUSH1 0x40 DUP2 KECCAK256 SLOAD PUSH1 0x1 PUSH1 0x1 PUSH1 0xA0 SHL SUB SWAP1 DUP2 AND SWAP1 DUP4 AND ISZERO PUSH2 0x196C JUMPI PUSH2 0x196C DUP2 DUP5 DUP7 PUSH2 0x1B23 JUMP JUMPDEST PUSH1 0x1 PUSH1 0x1 PUSH1 0xA0 SHL SUB DUP2 AND ISZERO PUSH2 0x19A6 JUMPI PUSH2 0x1987 PUSH0 DUP6 PUSH0 DUP1 PUSH2 0x183C JUMP JUMPDEST PUSH1 0x1 PUSH1 0x1 PUSH1 0xA0 SHL SUB DUP2 AND PUSH0 SWAP1 DUP2 MSTORE PUSH1 0x3 PUSH1 0x20 MSTORE PUSH1 0x40 SWAP1 KECCAK256 DUP1 SLOAD PUSH0 NOT ADD SWAP1 SSTORE JUMPDEST PUSH1 0x1 PUSH1 0x1 PUSH1 0xA0 SHL SUB DUP6 AND ISZERO PUSH2 0x19D4 JUMPI PUSH1 0x1 PUSH1 0x1 PUSH1 0xA0 SHL SUB DUP6 AND PUSH0 SWAP1 DUP2 MSTORE PUSH1 0x3 PUSH1 0x20 MSTORE PUSH1 0x40 SWAP1 KECCAK256 DUP1 SLOAD PUSH1 0x1 ADD SWAP1 SSTORE JUMPDEST PUSH0 DUP5 DUP2 MSTORE PUSH1 0x2 PUSH1 0x20 MSTORE PUSH1 0x40 DUP1 DUP3 KECCAK256 DUP1 SLOAD PUSH1 0x1 PUSH1 0x1 PUSH1 0xA0 SHL SUB NOT AND PUSH1 0x1 PUSH1 0x1 PUSH1 0xA0 SHL SUB DUP10 DUP2 AND SWAP2 DUP3 OR SWAP1 SWAP3 SSTORE SWAP2 MLOAD DUP8 SWAP4 SWAP2 DUP6 AND SWAP2 PUSH32 0xDDF252AD1BE2C89B69C2B068FC378DAA952BA7F163C4A11628F55A4DF523B3EF SWAP2 LOG4 SWAP5 SWAP4 POP POP POP POP JUMP JUMPDEST PUSH1 0x60 PUSH0 PUSH2 0x1A3E DUP4 PUSH2 0x1B87 JUMP JUMPDEST PUSH1 0x1 ADD SWAP1 POP PUSH0 DUP2 PUSH8 0xFFFFFFFFFFFFFFFF DUP2 GT ISZERO PUSH2 0x1A5D JUMPI PUSH2 0x1A5D PUSH2 0x1EB7 JUMP JUMPDEST PUSH1 0x40 MLOAD SWAP1 DUP1 DUP3 MSTORE DUP1 PUSH1 0x1F ADD PUSH1 0x1F NOT AND PUSH1 0x20 ADD DUP3 ADD PUSH1 0x40 MSTORE DUP1 ISZERO PUSH2 0x1A87 JUMPI PUSH1 0x20 DUP3 ADD DUP2 DUP1 CALLDATASIZE DUP4 CALLDATACOPY ADD SWAP1 POP JUMPDEST POP SWAP1 POP DUP2 DUP2 ADD PUSH1 0x20 ADD JUMPDEST PUSH0 NOT ADD PUSH16 0x181899199A1A9B1B9C1CB0B131B232B3 PUSH1 0x81 SHL PUSH1 0xA DUP7 MOD BYTE DUP2 MSTORE8 PUSH1 0xA DUP6 DIV SWAP5 POP DUP5 PUSH2 0x1A91 JUMPI POP SWAP4 SWAP3 POP POP POP JUMP JUMPDEST PUSH1 0x1 PUSH1 0x1 PUSH1 0xA0 SHL SUB DUP3 AND PUSH2 0x1AEB JUMPI PUSH1 0x40 MLOAD PUSH4 0x32505749 PUSH1 0xE1 SHL DUP2 MSTORE PUSH0 PUSH1 0x4 DUP3 ADD MSTORE PUSH1 0x24 ADD PUSH2 0x768 JUMP JUMPDEST PUSH0 PUSH2 0x1AF7 DUP4 DUP4 PUSH0 PUSH2 0x143D JUMP JUMPDEST SWAP1 POP PUSH1 0x1 PUSH1 0x1 PUSH1 0xA0 SHL SUB DUP2 AND ISZERO PUSH2 0x998 JUMPI PUSH1 0x40 MLOAD PUSH4 0x39E35637 PUSH1 0xE1 SHL DUP2 MSTORE PUSH0 PUSH1 0x4 DUP3 ADD MSTORE PUSH1 0x24 ADD PUSH2 0x768 JUMP JUMPDEST PUSH2 0x1B2E DUP4 DUP4 DUP4 PUSH2 0x1C5E JUMP JUMPDEST PUSH2 0x998 JUMPI PUSH1 0x1 PUSH1 0x1 PUSH1 0xA0 SHL SUB DUP4 AND PUSH2 0x1B5C JUMPI PUSH1 0x40 MLOAD PUSH4 0x7E273289 PUSH1 0xE0 SHL DUP2 MSTORE PUSH1 0x4 DUP2 ADD DUP3 SWAP1 MSTORE PUSH1 0x24 ADD PUSH2 0x768 JUMP JUMPDEST PUSH1 0x40 MLOAD PUSH4 0x177E802F PUSH1 0xE0 SHL DUP2 MSTORE PUSH1 0x1 PUSH1 0x1 PUSH1 0xA0 SHL SUB DUP4 AND PUSH1 0x4 DUP3 ADD MSTORE PUSH1 0x24 DUP2 ADD DUP3 SWAP1 MSTORE PUSH1 0x44 ADD PUSH2 0x768 JUMP JUMPDEST PUSH0 DUP1 PUSH19 0x184F03E93FF9F4DAA797ED6E38ED64BF6A1F01 PUSH1 0x40 SHL DUP4 LT PUSH2 0x1BC5 JUMPI PUSH19 0x184F03E93FF9F4DAA797ED6E38ED64BF6A1F01 PUSH1 0x40 SHL DUP4 DIV SWAP3 POP PUSH1 0x40 ADD JUMPDEST PUSH14 0x4EE2D6D415B85ACEF8100000000 DUP4 LT PUSH2 0x1BF1 JUMPI PUSH14 0x4EE2D6D415B85ACEF8100000000 DUP4 DIV SWAP3 POP PUSH1 0x20 ADD JUMPDEST PUSH7 0x2386F26FC10000 DUP4 LT PUSH2 0x1C0F JUMPI PUSH7 0x2386F26FC10000 DUP4 DIV SWAP3 POP PUSH1 0x10 ADD JUMPDEST PUSH4 0x5F5E100 DUP4 LT PUSH2 0x1C27 JUMPI PUSH4 0x5F5E100 DUP4 DIV SWAP3 POP PUSH1 0x8 ADD JUMPDEST PUSH2 0x2710 DUP4 LT PUSH2 0x1C3B JUMPI PUSH2 0x2710 DUP4 DIV SWAP3 POP PUSH1 0x4 ADD JUMPDEST PUSH1 0x64 DUP4 LT PUSH2 0x1C4D JUMPI PUSH1 0x64 DUP4 DIV SWAP3 POP PUSH1 0x2 ADD JUMPDEST PUSH1 0xA DUP4 LT PUSH2 0x678 JUMPI PUSH1 0x1 ADD SWAP3 SWAP2 POP POP JUMP JUMPDEST PUSH0 PUSH1 0x1 PUSH1 0x1 PUSH1 0xA0 SHL SUB DUP4 AND ISZERO DUP1 ISZERO SWAP1 PUSH2 0x1120 JUMPI POP DUP3 PUSH1 0x1 PUSH1 0x1 PUSH1 0xA0 SHL SUB AND DUP5 PUSH1 0x1 PUSH1 0x1 PUSH1 0xA0 SHL SUB AND EQ DUP1 PUSH2 0x1C97 JUMPI POP PUSH2 0x1C97 DUP5 DUP5 PUSH2 0x12AD JUMP JUMPDEST DUP1 PUSH2 0x1120 JUMPI POP POP PUSH0 SWAP1 DUP2 MSTORE PUSH1 0x4 PUSH1 0x20 MSTORE PUSH1 0x40 SWAP1 KECCAK256 SLOAD PUSH1 0x1 PUSH1 0x1 PUSH1 0xA0 SHL SUB SWAP1 DUP2 AND SWAP2 AND EQ SWAP2 SWAP1 POP JUMP JUMPDEST DUP1 CALLDATALOAD PUSH1 0x1 PUSH1 0x1 PUSH1 0xA0 SHL SUB DUP2 AND DUP2 EQ PUSH2 0x1CD5 JUMPI PUSH0 DUP1 REVERT JUMPDEST SWAP2 SWAP1 POP JUMP JUMPDEST PUSH0 DUP1 PUSH1 0x40 DUP4 DUP6 SUB SLT ISZERO PUSH2 0x1CEB JUMPI PUSH0 DUP1 REVERT JUMPDEST PUSH2 0x1CF4 DUP4 PUSH2 0x1CBF JUMP JUMPDEST SWAP5 PUSH1 0x20 SWAP4 SWAP1 SWAP4 ADD CALLDATALOAD SWAP4 POP POP POP JUMP JUMPDEST PUSH0 DUP1 DUP4 PUSH1 0x1F DUP5 ADD SLT PUSH2 0x1D12 JUMPI PUSH0 DUP1 REVERT JUMPDEST POP DUP2 CALLDATALOAD PUSH8 0xFFFFFFFFFFFFFFFF DUP2 GT ISZERO PUSH2 0x1D29 JUMPI PUSH0 DUP1 REVERT JUMPDEST PUSH1 0x20 DUP4 ADD SWAP2 POP DUP4 PUSH1 0x20 DUP3 DUP6 ADD ADD GT ISZERO PUSH2 0x1D40 JUMPI PUSH0 DUP1 REVERT JUMPDEST SWAP3 POP SWAP3 SWAP1 POP JUMP JUMPDEST PUSH0 DUP1 PUSH1 0x20 DUP4 DUP6 SUB SLT ISZERO PUSH2 0x1D58 JUMPI PUSH0 DUP1 REVERT JUMPDEST DUP3 CALLDATALOAD PUSH8 0xFFFFFFFFFFFFFFFF DUP2 GT ISZERO PUSH2 0x1D6E JUMPI PUSH0 DUP1 REVERT JUMPDEST PUSH2 0x1D7A DUP6 DUP3 DUP7 ADD PUSH2 0x1D02 JUMP JUMPDEST SWAP1 SWAP7 SWAP1 SWAP6 POP SWAP4 POP POP POP POP JUMP JUMPDEST PUSH1 0x1 PUSH1 0x1 PUSH1 0xE0 SHL SUB NOT DUP2 AND DUP2 EQ PUSH2 0xD16 JUMPI PUSH0 DUP1 REVERT JUMPDEST PUSH0 PUSH1 0x20 DUP3 DUP5 SUB SLT ISZERO PUSH2 0x1DAB JUMPI PUSH0 DUP1 REVERT JUMPDEST DUP2 CALLDATALOAD PUSH2 0x181E DUP2 PUSH2 0x1D86 JUMP JUMPDEST PUSH0 JUMPDEST DUP4 DUP2 LT ISZERO PUSH2 0x1DD0 JUMPI DUP2 DUP2 ADD MLOAD DUP4 DUP3 ADD MSTORE PUSH1 0x20 ADD PUSH2 0x1DB8 JUMP JUMPDEST POP POP PUSH0 SWAP2 ADD MSTORE JUMP JUMPDEST PUSH0 DUP2 MLOAD DUP1 DUP5 MSTORE PUSH2 0x1DEF DUP2 PUSH1 0x20 DUP7 ADD PUSH1 0x20 DUP7 ADD PUSH2 0x1DB6 JUMP JUMPDEST PUSH1 0x1F ADD PUSH1 0x1F NOT AND SWAP3 SWAP1 SWAP3 ADD PUSH1 0x20 ADD SWAP3 SWAP2 POP POP JUMP JUMPDEST PUSH1 0x20 DUP2 MSTORE PUSH0 PUSH2 0x181E PUSH1 0x20 DUP4 ADD DUP5 PUSH2 0x1DD8 JUMP JUMPDEST PUSH0 PUSH1 0x20 DUP3 DUP5 SUB SLT ISZERO PUSH2 0x1E25 JUMPI PUSH0 DUP1 REVERT JUMPDEST POP CALLDATALOAD SWAP2 SWAP1 POP JUMP JUMPDEST PUSH0 PUSH1 0x20 DUP3 DUP5 SUB SLT ISZERO PUSH2 0x1E3C JUMPI PUSH0 DUP1 REVERT JUMPDEST PUSH2 0x181E DUP3 PUSH2 0x1CBF JUMP JUMPDEST PUSH0 DUP1 PUSH0 PUSH1 0x60 DUP5 DUP7 SUB SLT ISZERO PUSH2 0x1E57 JUMPI PUSH0 DUP1 REVERT JUMPDEST PUSH2 0x1E60 DUP5 PUSH2 0x1CBF JUMP JUMPDEST SWAP3 POP PUSH2 0x1E6E PUSH1 0x20 DUP6 ADD PUSH2 0x1CBF JUMP JUMPDEST SWAP2 POP PUSH1 0x40 DUP5 ADD CALLDATALOAD SWAP1 POP SWAP3 POP SWAP3 POP SWAP3 JUMP JUMPDEST PUSH0 DUP1 PUSH1 0x40 DUP4 DUP6 SUB SLT ISZERO PUSH2 0x1E8F JUMPI PUSH0 DUP1 REVERT JUMPDEST PUSH2 0x1E98 DUP4 PUSH2 0x1CBF JUMP JUMPDEST SWAP2 POP PUSH1 0x20 DUP4 ADD CALLDATALOAD DUP1 ISZERO ISZERO DUP2 EQ PUSH2 0x1EAC JUMPI PUSH0 DUP1 REVERT JUMPDEST DUP1 SWAP2 POP POP SWAP3 POP SWAP3 SWAP1 POP JUMP JUMPDEST PUSH4 0x4E487B71 PUSH1 0xE0 SHL PUSH0 MSTORE PUSH1 0x41 PUSH1 0x4 MSTORE PUSH1 0x24 PUSH0 REVERT JUMPDEST PUSH1 0x40 MLOAD PUSH1 0x1F DUP3 ADD PUSH1 0x1F NOT AND DUP2 ADD PUSH8 0xFFFFFFFFFFFFFFFF DUP2 GT DUP3 DUP3 LT OR ISZERO PUSH2 0x1EF4 JUMPI PUSH2 0x1EF4 PUSH2 0x1EB7 JUMP JUMPDEST PUSH1 0x40 MSTORE SWAP2 SWAP1 POP JUMP JUMPDEST PUSH0 PUSH8 0xFFFFFFFFFFFFFFFF DUP3 GT ISZERO PUSH2 0x1F15 JUMPI PUSH2 0x1F15 PUSH2 0x1EB7 JUMP JUMPDEST POP PUSH1 0x1F ADD PUSH1 0x1F NOT AND PUSH1 0x20 ADD SWAP1 JUMP JUMPDEST PUSH0 DUP1 PUSH0 DUP1 PUSH1 0x80 DUP6 DUP8 SUB SLT ISZERO PUSH2 0x1F36 JUMPI PUSH0 DUP1 REVERT JUMPDEST PUSH2 0x1F3F DUP6 PUSH2 0x1CBF JUMP JUMPDEST SWAP4 POP PUSH2 0x1F4D PUSH1 0x20 DUP7 ADD PUSH2 0x1CBF JUMP JUMPDEST SWAP3 POP PUSH1 0x40 DUP6 ADD CALLDATALOAD SWAP2 POP PUSH1 0x60 DUP6 ADD CALLDATALOAD PUSH8 0xFFFFFFFFFFFFFFFF DUP2 GT ISZERO PUSH2 0x1F6F JUMPI PUSH0 DUP1 REVERT JUMPDEST DUP6 ADD PUSH1 0x1F DUP2 ADD DUP8 SGT PUSH2 0x1F7F JUMPI PUSH0 DUP1 REVERT JUMPDEST DUP1 CALLDATALOAD PUSH2 0x1F92 PUSH2 0x1F8D DUP3 PUSH2 0x1EFC JUMP JUMPDEST PUSH2 0x1ECB JUMP JUMPDEST DUP2 DUP2 MSTORE DUP9 PUSH1 0x20 DUP4 DUP6 ADD ADD GT ISZERO PUSH2 0x1FA6 JUMPI PUSH0 DUP1 REVERT JUMPDEST DUP2 PUSH1 0x20 DUP5 ADD PUSH1 0x20 DUP4 ADD CALLDATACOPY PUSH0 PUSH1 0x20 DUP4 DUP4 ADD ADD MSTORE DUP1 SWAP4 POP POP POP POP SWAP3 SWAP6 SWAP2 SWAP5 POP SWAP3 POP JUMP JUMPDEST PUSH0 DUP1 PUSH0 PUSH1 0x40 DUP5 DUP7 SUB SLT ISZERO PUSH2 0x1FD9 JUMPI PUSH0 DUP1 REVERT JUMPDEST DUP4 CALLDATALOAD SWAP3 POP PUSH1 0x20 DUP5 ADD CALLDATALOAD PUSH8 0xFFFFFFFFFFFFFFFF DUP2 GT ISZERO PUSH2 0x1FF6 JUMPI PUSH0 DUP1 REVERT JUMPDEST PUSH2 0x2002 DUP7 DUP3 DUP8 ADD PUSH2 0x1D02 JUMP JUMPDEST SWAP5 SWAP8 SWAP1 SWAP7 POP SWAP4 SWAP5 POP POP POP POP JUMP JUMPDEST PUSH0 DUP1 PUSH1 0x40 DUP4 DUP6 SUB SLT ISZERO PUSH2 0x2020 JUMPI PUSH0 DUP1 REVERT JUMPDEST PUSH2 0x2029 DUP4 PUSH2 0x1CBF JUMP JUMPDEST SWAP2 POP PUSH2 0x2037 PUSH1 0x20 DUP5 ADD PUSH2 0x1CBF JUMP JUMPDEST SWAP1 POP SWAP3 POP SWAP3 SWAP1 POP JUMP JUMPDEST PUSH4 0x4E487B71 PUSH1 0xE0 SHL PUSH0 MSTORE PUSH1 0x11 PUSH1 0x4 MSTORE PUSH1 0x24 PUSH0 REVERT JUMPDEST DUP1 DUP3 ADD DUP1 DUP3 GT ISZERO PUSH2 0x678 JUMPI PUSH2 0x678 PUSH2 0x2040 JUMP JUMPDEST PUSH0 PUSH1 0x20 DUP3 DUP5 SUB SLT ISZERO PUSH2 0x2077 JUMPI PUSH0 DUP1 REVERT JUMPDEST DUP2 MLOAD PUSH1 0x3 DUP2 LT PUSH2 0x181E JUMPI PUSH0 DUP1 REVERT JUMPDEST PUSH4 0x4E487B71 PUSH1 0xE0 SHL PUSH0 MSTORE PUSH1 0x21 PUSH1 0x4 MSTORE PUSH1 0x24 PUSH0 REVERT JUMPDEST PUSH0 PUSH1 0x1 DUP3 ADD PUSH2 0x20AA JUMPI PUSH2 0x20AA PUSH2 0x2040 JUMP JUMPDEST POP PUSH1 0x1 ADD SWAP1 JUMP JUMPDEST DUP3 DUP2 MSTORE PUSH1 0x40 DUP2 ADD PUSH1 0x3 DUP4 LT PUSH2 0x20D4 JUMPI PUSH4 0x4E487B71 PUSH1 0xE0 SHL PUSH0 MSTORE PUSH1 0x21 PUSH1 0x4 MSTORE PUSH1 0x24 PUSH0 REVERT JUMPDEST DUP3 PUSH1 0x20 DUP4 ADD MSTORE SWAP4 SWAP3 POP POP POP JUMP JUMPDEST PUSH1 0x1 DUP2 DUP2 SHR SWAP1 DUP3 AND DUP1 PUSH2 0x20F5 JUMPI PUSH1 0x7F DUP3 AND SWAP2 POP JUMPDEST PUSH1 0x20 DUP3 LT DUP2 SUB PUSH2 0x2113 JUMPI PUSH4 0x4E487B71 PUSH1 0xE0 SHL PUSH0 MSTORE PUSH1 0x22 PUSH1 0x4 MSTORE PUSH1 0x24 PUSH0 REVERT JUMPDEST POP SWAP2 SWAP1 POP JUMP JUMPDEST PUSH1 0x20 DUP1 DUP3 MSTORE PUSH1 0x14 SWAP1 DUP3 ADD MSTORE PUSH20 0x10985919D948185B1C9958591E481B5A5B9D1959 PUSH1 0x62 SHL PUSH1 0x40 DUP3 ADD MSTORE PUSH1 0x60 ADD SWAP1 JUMP JUMPDEST PUSH0 PUSH1 0x20 DUP3 DUP5 SUB SLT ISZERO PUSH2 0x2157 JUMPI PUSH0 DUP1 REVERT JUMPDEST DUP2 MLOAD PUSH8 0xFFFFFFFFFFFFFFFF DUP2 GT ISZERO PUSH2 0x216D JUMPI PUSH0 DUP1 REVERT JUMPDEST DUP3 ADD PUSH1 0x1F DUP2 ADD DUP5 SGT PUSH2 0x217D JUMPI PUSH0 DUP1 REVERT JUMPDEST DUP1 MLOAD PUSH2 0x218B PUSH2 0x1F8D DUP3 PUSH2 0x1EFC JUMP JUMPDEST DUP2 DUP2 MSTORE DUP6 PUSH1 0x20 DUP4 DUP6 ADD ADD GT ISZERO PUSH2 0x219F JUMPI PUSH0 DUP1 REVERT JUMPDEST PUSH2 0x1494 DUP3 PUSH1 0x20 DUP4 ADD PUSH1 0x20 DUP7 ADD PUSH2 0x1DB6 JUMP JUMPDEST PUSH0 DUP4 MLOAD PUSH2 0x21C1 DUP2 DUP5 PUSH1 0x20 DUP9 ADD PUSH2 0x1DB6 JUMP JUMPDEST DUP4 MLOAD SWAP1 DUP4 ADD SWAP1 PUSH2 0x21D5 DUP2 DUP4 PUSH1 0x20 DUP9 ADD PUSH2 0x1DB6 JUMP JUMPDEST ADD SWAP5 SWAP4 POP POP POP POP JUMP JUMPDEST PUSH1 0x20 DUP2 MSTORE DUP2 PUSH1 0x20 DUP3 ADD MSTORE DUP2 DUP4 PUSH1 0x40 DUP4 ADD CALLDATACOPY PUSH0 DUP2 DUP4 ADD PUSH1 0x40 SWAP1 DUP2 ADD SWAP2 SWAP1 SWAP2 MSTORE PUSH1 0x1F SWAP1 SWAP3 ADD PUSH1 0x1F NOT AND ADD ADD SWAP2 SWAP1 POP JUMP JUMPDEST PUSH1 0x1F DUP3 GT ISZERO PUSH2 0x998 JUMPI DUP1 PUSH0 MSTORE PUSH1 0x20 PUSH0 KECCAK256 PUSH1 0x1F DUP5 ADD PUSH1 0x5 SHR DUP2 ADD PUSH1 0x20 DUP6 LT ISZERO PUSH2 0x2231 JUMPI POP DUP1 JUMPDEST PUSH1 0x1F DUP5 ADD PUSH1 0x5 SHR DUP3 ADD SWAP2 POP JUMPDEST DUP2 DUP2 LT ISZERO PUSH2 0x170E JUMPI PUSH0 DUP2 SSTORE PUSH1 0x1 ADD PUSH2 0x223D JUMP JUMPDEST DUP2 MLOAD PUSH8 0xFFFFFFFFFFFFFFFF DUP2 GT ISZERO PUSH2 0x226A JUMPI PUSH2 0x226A PUSH2 0x1EB7 JUMP JUMPDEST PUSH2 0x227E DUP2 PUSH2 0x2278 DUP5 SLOAD PUSH2 0x20E1 JUMP JUMPDEST DUP5 PUSH2 0x220C JUMP JUMPDEST PUSH1 0x20 DUP1 PUSH1 0x1F DUP4 GT PUSH1 0x1 DUP2 EQ PUSH2 0x22B1 JUMPI PUSH0 DUP5 ISZERO PUSH2 0x229A JUMPI POP DUP6 DUP4 ADD MLOAD JUMPDEST PUSH0 NOT PUSH1 0x3 DUP7 SWAP1 SHL SHR NOT AND PUSH1 0x1 DUP6 SWAP1 SHL OR DUP6 SSTORE PUSH2 0x170C JUMP JUMPDEST PUSH0 DUP6 DUP2 MSTORE PUSH1 0x20 DUP2 KECCAK256 PUSH1 0x1F NOT DUP7 AND SWAP2 JUMPDEST DUP3 DUP2 LT ISZERO PUSH2 0x22DF JUMPI DUP9 DUP7 ADD MLOAD DUP3 SSTORE SWAP5 DUP5 ADD SWAP5 PUSH1 0x1 SWAP1 SWAP2 ADD SWAP1 DUP5 ADD PUSH2 0x22C0 JUMP JUMPDEST POP DUP6 DUP3 LT ISZERO PUSH2 0x22FC JUMPI DUP8 DUP6 ADD MLOAD PUSH0 NOT PUSH1 0x3 DUP9 SWAP1 SHL PUSH1 0xF8 AND SHR NOT AND DUP2 SSTORE JUMPDEST POP POP POP POP POP PUSH1 0x1 SWAP1 DUP2 SHL ADD SWAP1 SSTORE POP JUMP JUMPDEST PUSH1 0x1 PUSH1 0x1 PUSH1 0xA0 SHL SUB DUP6 DUP2 AND DUP3 MSTORE DUP5 AND PUSH1 0x20 DUP3 ADD MSTORE PUSH1 0x40 DUP2 ADD DUP4 SWAP1 MSTORE PUSH1 0x80 PUSH1 0x60 DUP3 ADD DUP2 SWAP1 MSTORE PUSH0 SWAP1 PUSH2 0x233E SWAP1 DUP4 ADD DUP5 PUSH2 0x1DD8 JUMP JUMPDEST SWAP7 SWAP6 POP POP POP POP POP POP JUMP JUMPDEST PUSH0 PUSH1 0x20 DUP3 DUP5 SUB SLT ISZERO PUSH2 0x2358 JUMPI PUSH0 DUP1 REVERT JUMPDEST DUP2 MLOAD PUSH2 0x181E DUP2 PUSH2 0x1D86 JUMP INVALID LOG2 PUSH5 0x6970667358 0x22 SLT KECCAK256 BALANCE PUSH15 0x6EE5F7F9E6BD943E68044CD3155159 BASEFEE JUMP SELFDESTRUCT 0xB4 GAS SWAP15 PUSH6 0x7C4A783C3DCC 0xB4 DIV PUSH5 0x736F6C6343 STOP ADDMOD XOR STOP CALLER "},"methodIdentifiers":{"BADGE_GENESIS()":"dfff91c2","BADGE_NEXUS()":"b9d50c2b","BADGE_VECTOR()":"044c8280","addTransactionCount(address,uint256)":"00525d32","approve(address,uint256)":"095ea7b3","balanceOf(address)":"70a08231","burn(uint256)":"42966c68","getApproved(uint256)":"081812fc","hasBadge(address,uint256)":"4c6a70ce","isApprovedForAll(address,address)":"e985e9c5","lastMintTimestamp(address)":"be13197b","mintGenesisBadge()":"aa7e0b77","mintNexusBadge()":"3597458e","mintSubscribedNFT(string)":"01ec2644","mintVectorBadge()":"94f904ce","name()":"06fdde03","owner()":"8da5cb5b","ownerOf(uint256)":"6352211e","renounceOwnership()":"715018a6","saasContract()":"873de8a5","safeTransferFrom(address,address,uint256)":"42842e0e","safeTransferFrom(address,address,uint256,bytes)":"b88d4fde","setApprovalForAll(address,bool)":"a22cb465","setSaasContract(address)":"e1346b38","supportsInterface(bytes4)":"01ffc9a7","symbol()":"95d89b41","tokenURI(uint256)":"c87b56dd","transferFrom(address,address,uint256)":"23b872dd","transferOwnership(address)":"f2fde38b","updatePremiumMetadata(uint256,string)":"e88a0704","userTokenId(address)":"715ca542","userTransactionCount(address)":"15ae40b8"}}}}}