{"src/SpectraProfile.sol":{"SpectraProfile":{"abi":[{"anonymous":false,"inputs":[{"indexed":true,"internalType":"address","name":"user","type":"address"}],"name":"ProfileCreated","type":"event"},{"anonymous":false,"inputs":[{"indexed":true,"internalType":"address","name":"user","type":"address"}],"name":"ProfileDeleted","type":"event"},{"anonymous":false,"inputs":[{"indexed":true,"internalType":"address","name":"user","type":"address"}],"name":"ProfileUpdated","type":"event"},{"inputs":[{"internalType":"string","name":"_name","type":"string"},{"internalType":"string","name":"_email","type":"string"},{"internalType":"string","name":"_phone","type":"string"},{"internalType":"string","name":"_bio","type":"string"},{"internalType":"uint8","name":"_avatarId","type":"uint8"}],"name":"createProfile","outputs":[],"stateMutability":"nonpayable","type":"function"},{"inputs":[],"name":"deleteProfile","outputs":[],"stateMutability":"nonpayable","type":"function"},{"inputs":[{"internalType":"address","name":"_user","type":"address"}],"name":"getProfile","outputs":[{"components":[{"internalType":"string","name":"name","type":"string"},{"internalType":"string","name":"email","type":"string"},{"internalType":"string","name":"phone","type":"string"},{"internalType":"string","name":"bio","type":"string"},{"internalType":"uint8","name":"avatarId","type":"uint8"},{"internalType":"bool","name":"exists","type":"bool"}],"internalType":"struct SpectraProfile.User","name":"","type":"tuple"}],"stateMutability":"view","type":"function"},{"inputs":[{"internalType":"string","name":"_name","type":"string"},{"internalType":"string","name":"_email","type":"string"},{"internalType":"string","name":"_phone","type":"string"},{"internalType":"string","name":"_bio","type":"string"},{"internalType":"uint8","name":"_avatarId","type":"uint8"}],"name":"updateProfile","outputs":[],"stateMutability":"nonpayable","type":"function"}],"evm":{"bytecode":{"linkReferences":{},"object":"608060405234801561000f575f80fd5b50610b5e8061001d5f395ff3fe608060405234801561000f575f80fd5b506004361061004a575f3560e01c80630f53a4701461004e578063668da675146100775780636d4540eb1461008c5780639616bf5b14610094575b5f80fd5b61006161005c36600461073d565b6100a7565b60405161006e91906107ad565b60405180910390f35b61008a6100853660046108e4565b610369565b005b61008a6104f4565b61008a6100a23660046108e4565b6105cc565b6100e36040518060c00160405280606081526020016060815260200160608152602001606081526020015f60ff1681526020015f151581525090565b6001600160a01b0382165f9081526020819052604090819020815160c08101909252805482908290610114906109a3565b80601f0160208091040260200160405190810160405280929190818152602001828054610140906109a3565b801561018b5780601f106101625761010080835404028352916020019161018b565b820191905f5260205f20905b81548152906001019060200180831161016e57829003601f168201915b505050505081526020016001820180546101a4906109a3565b80601f01602080910402602001604051908101604052809291908181526020018280546101d0906109a3565b801561021b5780601f106101f25761010080835404028352916020019161021b565b820191905f5260205f20905b8154815290600101906020018083116101fe57829003601f168201915b50505050508152602001600282018054610234906109a3565b80601f0160208091040260200160405190810160405280929190818152602001828054610260906109a3565b80156102ab5780601f10610282576101008083540402835291602001916102ab565b820191905f5260205f20905b81548152906001019060200180831161028e57829003601f168201915b505050505081526020016003820180546102c4906109a3565b80601f01602080910402602001604051908101604052809291908181526020018280546102f0906109a3565b801561033b5780601f106103125761010080835404028352916020019161033b565b820191905f5260205f20905b81548152906001019060200180831161031e57829003601f168201915b50505091835250506004919091015460ff808216602084015261010090910416151560409091015292915050565b8060018160ff1610158015610382575060068160ff1611155b6103a75760405162461bcd60e51b815260040161039e906109db565b60405180910390fd5b335f90815260208190526040902060040154610100900460ff16156104075760405162461bcd60e51b815260206004820152601660248201527550726f66696c6520616c72656164792065786973747360501b604482015260640161039e565b6040805160c08101825287815260208082018890528183018790526060820186905260ff85166080830152600160a0830152335f9081529081905291909120815181906104549082610a68565b50602082015160018201906104699082610a68565b506040820151600282019061047e9082610a68565b50606082015160038201906104939082610a68565b5060808201516004909101805460a09093015115156101000261ffff1990931660ff9092169190911791909117905560405133907ff10ec97e920cde75887622583772c637595a40b1f7777c18e51ea36cd127475c905f90a2505050505050565b335f90815260208190526040902060040154610100900460ff166105535760405162461bcd60e51b8152602060048201526016602482015275141c9bd99a5b1948191bd95cc81b9bdd08195e1a5cdd60521b604482015260640161039e565b335f9081526020819052604081209061056c82826106eb565b610579600183015f6106eb565b610586600283015f6106eb565b610593600383015f6106eb565b50600401805461ffff1916905560405133907f517b492f6c7db035d7c3c4fa1ce0cb2d05e1f24219256f50fbab78242e544c04905f90a2565b335f90815260208190526040902060040154610100900460ff1661062b5760405162461bcd60e51b8152602060048201526016602482015275141c9bd99a5b1948191bd95cc81b9bdd08195e1a5cdd60521b604482015260640161039e565b8060018160ff1610158015610644575060068160ff1611155b6106605760405162461bcd60e51b815260040161039e906109db565b335f908152602081905260409020806106798882610a68565b50600181016106888782610a68565b50600281016106978682610a68565b50600381016106a68582610a68565b5060048101805460ff191660ff851617905560405133907fbe4ec58a792f909e102ee3d745d0c3b34a4d437a54d903c4db098d31c556422f905f90a250505050505050565b5080546106f7906109a3565b5f825580601f10610706575050565b601f0160209004905f5260205f20908101906107229190610725565b50565b5b80821115610739575f8155600101610726565b5090565b5f6020828403121561074d575f80fd5b81356001600160a01b0381168114610763575f80fd5b9392505050565b5f81518084525f5b8181101561078e57602081850181015186830182015201610772565b505f602082860101526020601f19601f83011685010191505092915050565b602081525f825160c060208401526107c860e084018261076a565b90506020840151601f19808584030160408601526107e6838361076a565b92506040860151915080858403016060860152610803838361076a565b9250606086015191508085840301608086015250610821828261076a565b91505060ff60808501511660a084015260a0840151151560c08401528091505092915050565b634e487b7160e01b5f52604160045260245ffd5b5f82601f83011261086a575f80fd5b813567ffffffffffffffff8082111561088557610885610847565b604051601f8301601f19908116603f011681019082821181831017156108ad576108ad610847565b816040528381528660208588010111156108c5575f80fd5b836020870160208301375f602085830101528094505050505092915050565b5f805f805f60a086880312156108f8575f80fd5b853567ffffffffffffffff8082111561090f575f80fd5b61091b89838a0161085b565b96506020880135915080821115610930575f80fd5b61093c89838a0161085b565b95506040880135915080821115610951575f80fd5b61095d89838a0161085b565b94506060880135915080821115610972575f80fd5b5061097f8882890161085b565b925050608086013560ff81168114610995575f80fd5b809150509295509295909350565b600181811c908216806109b757607f821691505b6020821081036109d557634e487b7160e01b5f52602260045260245ffd5b50919050565b60208082526021908201527f417661746172204944206d757374206265206265747765656e203120616e64206040820152601b60f91b606082015260800190565b601f821115610a6357805f5260205f20601f840160051c81016020851015610a415750805b601f840160051c820191505b81811015610a60575f8155600101610a4d565b50505b505050565b815167ffffffffffffffff811115610a8257610a82610847565b610a9681610a9084546109a3565b84610a1c565b602080601f831160018114610ac9575f8415610ab25750858301515b5f19600386901b1c1916600185901b178555610b20565b5f85815260208120601f198616915b82811015610af757888601518255948401946001909101908401610ad8565b5085821015610b1457878501515f19600388901b60f8161c191681555b505060018460011b0185555b50505050505056fea2646970667358221220d54c171390c9739ac7d6a8b8782eb65f8ecd0813d9c3c398dacb34657fb8ecf164736f6c63430008180033","opcodes":"PUSH1 0x80 PUSH1 0x40 MSTORE CALLVALUE DUP1 ISZERO PUSH2 0xF JUMPI PUSH0 DUP1 REVERT JUMPDEST POP PUSH2 0xB5E DUP1 PUSH2 0x1D PUSH0 CODECOPY PUSH0 RETURN INVALID PUSH1 0x80 PUSH1 0x40 MSTORE CALLVALUE DUP1 ISZERO PUSH2 0xF JUMPI PUSH0 DUP1 REVERT JUMPDEST POP PUSH1 0x4 CALLDATASIZE LT PUSH2 0x4A JUMPI PUSH0 CALLDATALOAD PUSH1 0xE0 SHR DUP1 PUSH4 0xF53A470 EQ PUSH2 0x4E JUMPI DUP1 PUSH4 0x668DA675 EQ PUSH2 0x77 JUMPI DUP1 PUSH4 0x6D4540EB EQ PUSH2 0x8C JUMPI DUP1 PUSH4 0x9616BF5B EQ PUSH2 0x94 JUMPI JUMPDEST PUSH0 DUP1 REVERT JUMPDEST PUSH2 0x61 PUSH2 0x5C CALLDATASIZE PUSH1 0x4 PUSH2 0x73D JUMP JUMPDEST PUSH2 0xA7 JUMP JUMPDEST PUSH1 0x40 MLOAD PUSH2 0x6E SWAP2 SWAP1 PUSH2 0x7AD JUMP JUMPDEST PUSH1 0x40 MLOAD DUP1 SWAP2 SUB SWAP1 RETURN JUMPDEST PUSH2 0x8A PUSH2 0x85 CALLDATASIZE PUSH1 0x4 PUSH2 0x8E4 JUMP JUMPDEST PUSH2 0x369 JUMP JUMPDEST STOP JUMPDEST PUSH2 0x8A PUSH2 0x4F4 JUMP JUMPDEST PUSH2 0x8A PUSH2 0xA2 CALLDATASIZE PUSH1 0x4 PUSH2 0x8E4 JUMP JUMPDEST PUSH2 0x5CC JUMP JUMPDEST PUSH2 0xE3 PUSH1 0x40 MLOAD DUP1 PUSH1 0xC0 ADD PUSH1 0x40 MSTORE DUP1 PUSH1 0x60 DUP2 MSTORE PUSH1 0x20 ADD PUSH1 0x60 DUP2 MSTORE PUSH1 0x20 ADD PUSH1 0x60 DUP2 MSTORE PUSH1 0x20 ADD PUSH1 0x60 DUP2 MSTORE PUSH1 0x20 ADD PUSH0 PUSH1 0xFF AND DUP2 MSTORE PUSH1 0x20 ADD PUSH0 ISZERO ISZERO DUP2 MSTORE POP SWAP1 JUMP JUMPDEST PUSH1 0x1 PUSH1 0x1 PUSH1 0xA0 SHL SUB DUP3 AND PUSH0 SWAP1 DUP2 MSTORE PUSH1 0x20 DUP2 SWAP1 MSTORE PUSH1 0x40 SWAP1 DUP2 SWAP1 KECCAK256 DUP2 MLOAD PUSH1 0xC0 DUP2 ADD SWAP1 SWAP3 MSTORE DUP1 SLOAD DUP3 SWAP1 DUP3 SWAP1 PUSH2 0x114 SWAP1 PUSH2 0x9A3 JUMP JUMPDEST DUP1 PUSH1 0x1F ADD PUSH1 0x20 DUP1 SWAP2 DIV MUL PUSH1 0x20 ADD PUSH1 0x40 MLOAD SWAP1 DUP2 ADD PUSH1 0x40 MSTORE DUP1 SWAP3 SWAP2 SWAP1 DUP2 DUP2 MSTORE PUSH1 0x20 ADD DUP3 DUP1 SLOAD PUSH2 0x140 SWAP1 PUSH2 0x9A3 JUMP JUMPDEST DUP1 ISZERO PUSH2 0x18B JUMPI DUP1 PUSH1 0x1F LT PUSH2 0x162 JUMPI PUSH2 0x100 DUP1 DUP4 SLOAD DIV MUL DUP4 MSTORE SWAP2 PUSH1 0x20 ADD SWAP2 PUSH2 0x18B JUMP JUMPDEST DUP3 ADD SWAP2 SWAP1 PUSH0 MSTORE PUSH1 0x20 PUSH0 KECCAK256 SWAP1 JUMPDEST DUP2 SLOAD DUP2 MSTORE SWAP1 PUSH1 0x1 ADD SWAP1 PUSH1 0x20 ADD DUP1 DUP4 GT PUSH2 0x16E JUMPI DUP3 SWAP1 SUB PUSH1 0x1F AND DUP3 ADD SWAP2 JUMPDEST POP POP POP POP POP DUP2 MSTORE PUSH1 0x20 ADD PUSH1 0x1 DUP3 ADD DUP1 SLOAD PUSH2 0x1A4 SWAP1 PUSH2 0x9A3 JUMP JUMPDEST DUP1 PUSH1 0x1F ADD PUSH1 0x20 DUP1 SWAP2 DIV MUL PUSH1 0x20 ADD PUSH1 0x40 MLOAD SWAP1 DUP2 ADD PUSH1 0x40 MSTORE DUP1 SWAP3 SWAP2 SWAP1 DUP2 DUP2 MSTORE PUSH1 0x20 ADD DUP3 DUP1 SLOAD PUSH2 0x1D0 SWAP1 PUSH2 0x9A3 JUMP JUMPDEST DUP1 ISZERO PUSH2 0x21B JUMPI DUP1 PUSH1 0x1F LT PUSH2 0x1F2 JUMPI PUSH2 0x100 DUP1 DUP4 SLOAD DIV MUL DUP4 MSTORE SWAP2 PUSH1 0x20 ADD SWAP2 PUSH2 0x21B JUMP JUMPDEST DUP3 ADD SWAP2 SWAP1 PUSH0 MSTORE PUSH1 0x20 PUSH0 KECCAK256 SWAP1 JUMPDEST DUP2 SLOAD DUP2 MSTORE SWAP1 PUSH1 0x1 ADD SWAP1 PUSH1 0x20 ADD DUP1 DUP4 GT PUSH2 0x1FE JUMPI DUP3 SWAP1 SUB PUSH1 0x1F AND DUP3 ADD SWAP2 JUMPDEST POP POP POP POP POP DUP2 MSTORE PUSH1 0x20 ADD PUSH1 0x2 DUP3 ADD DUP1 SLOAD PUSH2 0x234 SWAP1 PUSH2 0x9A3 JUMP JUMPDEST DUP1 PUSH1 0x1F ADD PUSH1 0x20 DUP1 SWAP2 DIV MUL PUSH1 0x20 ADD PUSH1 0x40 MLOAD SWAP1 DUP2 ADD PUSH1 0x40 MSTORE DUP1 SWAP3 SWAP2 SWAP1 DUP2 DUP2 MSTORE PUSH1 0x20 ADD DUP3 DUP1 SLOAD PUSH2 0x260 SWAP1 PUSH2 0x9A3 JUMP JUMPDEST DUP1 ISZERO PUSH2 0x2AB JUMPI DUP1 PUSH1 0x1F LT PUSH2 0x282 JUMPI PUSH2 0x100 DUP1 DUP4 SLOAD DIV MUL DUP4 MSTORE SWAP2 PUSH1 0x20 ADD SWAP2 PUSH2 0x2AB JUMP JUMPDEST DUP3 ADD SWAP2 SWAP1 PUSH0 MSTORE PUSH1 0x20 PUSH0 KECCAK256 SWAP1 JUMPDEST DUP2 SLOAD DUP2 MSTORE SWAP1 PUSH1 0x1 ADD SWAP1 PUSH1 0x20 ADD DUP1 DUP4 GT PUSH2 0x28E JUMPI DUP3 SWAP1 SUB PUSH1 0x1F AND DUP3 ADD SWAP2 JUMPDEST POP POP POP POP POP DUP2 MSTORE PUSH1 0x20 ADD PUSH1 0x3 DUP3 ADD DUP1 SLOAD PUSH2 0x2C4 SWAP1 PUSH2 0x9A3 JUMP JUMPDEST DUP1 PUSH1 0x1F ADD PUSH1 0x20 DUP1 SWAP2 DIV MUL PUSH1 0x20 ADD PUSH1 0x40 MLOAD SWAP1 DUP2 ADD PUSH1 0x40 MSTORE DUP1 SWAP3 SWAP2 SWAP1 DUP2 DUP2 MSTORE PUSH1 0x20 ADD DUP3 DUP1 SLOAD PUSH2 0x2F0 SWAP1 PUSH2 0x9A3 JUMP JUMPDEST DUP1 ISZERO PUSH2 0x33B JUMPI DUP1 PUSH1 0x1F LT PUSH2 0x312 JUMPI PUSH2 0x100 DUP1 DUP4 SLOAD DIV MUL DUP4 MSTORE SWAP2 PUSH1 0x20 ADD SWAP2 PUSH2 0x33B JUMP JUMPDEST DUP3 ADD SWAP2 SWAP1 PUSH0 MSTORE PUSH1 0x20 PUSH0 KECCAK256 SWAP1 JUMPDEST DUP2 SLOAD DUP2 MSTORE SWAP1 PUSH1 0x1 ADD SWAP1 PUSH1 0x20 ADD DUP1 DUP4 GT PUSH2 0x31E JUMPI DUP3 SWAP1 SUB PUSH1 0x1F AND DUP3 ADD SWAP2 JUMPDEST POP POP POP SWAP2 DUP4 MSTORE POP POP PUSH1 0x4 SWAP2 SWAP1 SWAP2 ADD SLOAD PUSH1 0xFF DUP1 DUP3 AND PUSH1 0x20 DUP5 ADD MSTORE PUSH2 0x100 SWAP1 SWAP2 DIV AND ISZERO ISZERO PUSH1 0x40 SWAP1 SWAP2 ADD MSTORE SWAP3 SWAP2 POP POP JUMP JUMPDEST DUP1 PUSH1 0x1 DUP2 PUSH1 0xFF AND LT ISZERO DUP1 ISZERO PUSH2 0x382 JUMPI POP PUSH1 0x6 DUP2 PUSH1 0xFF AND GT ISZERO JUMPDEST PUSH2 0x3A7 JUMPI PUSH1 0x40 MLOAD PUSH3 0x461BCD PUSH1 0xE5 SHL DUP2 MSTORE PUSH1 0x4 ADD PUSH2 0x39E SWAP1 PUSH2 0x9DB JUMP JUMPDEST PUSH1 0x40 MLOAD DUP1 SWAP2 SUB SWAP1 REVERT JUMPDEST CALLER PUSH0 SWAP1 DUP2 MSTORE PUSH1 0x20 DUP2 SWAP1 MSTORE PUSH1 0x40 SWAP1 KECCAK256 PUSH1 0x4 ADD SLOAD PUSH2 0x100 SWAP1 DIV PUSH1 0xFF AND ISZERO PUSH2 0x407 JUMPI PUSH1 0x40 MLOAD PUSH3 0x461BCD PUSH1 0xE5 SHL DUP2 MSTORE PUSH1 0x20 PUSH1 0x4 DUP3 ADD MSTORE PUSH1 0x16 PUSH1 0x24 DUP3 ADD MSTORE PUSH22 0x50726F66696C6520616C726561647920657869737473 PUSH1 0x50 SHL PUSH1 0x44 DUP3 ADD MSTORE PUSH1 0x64 ADD PUSH2 0x39E JUMP JUMPDEST PUSH1 0x40 DUP1 MLOAD PUSH1 0xC0 DUP2 ADD DUP3 MSTORE DUP8 DUP2 MSTORE PUSH1 0x20 DUP1 DUP3 ADD DUP9 SWAP1 MSTORE DUP2 DUP4 ADD DUP8 SWAP1 MSTORE PUSH1 0x60 DUP3 ADD DUP7 SWAP1 MSTORE PUSH1 0xFF DUP6 AND PUSH1 0x80 DUP4 ADD MSTORE PUSH1 0x1 PUSH1 0xA0 DUP4 ADD MSTORE CALLER PUSH0 SWAP1 DUP2 MSTORE SWAP1 DUP2 SWAP1 MSTORE SWAP2 SWAP1 SWAP2 KECCAK256 DUP2 MLOAD DUP2 SWAP1 PUSH2 0x454 SWAP1 DUP3 PUSH2 0xA68 JUMP JUMPDEST POP PUSH1 0x20 DUP3 ADD MLOAD PUSH1 0x1 DUP3 ADD SWAP1 PUSH2 0x469 SWAP1 DUP3 PUSH2 0xA68 JUMP JUMPDEST POP PUSH1 0x40 DUP3 ADD MLOAD PUSH1 0x2 DUP3 ADD SWAP1 PUSH2 0x47E SWAP1 DUP3 PUSH2 0xA68 JUMP JUMPDEST POP PUSH1 0x60 DUP3 ADD MLOAD PUSH1 0x3 DUP3 ADD SWAP1 PUSH2 0x493 SWAP1 DUP3 PUSH2 0xA68 JUMP JUMPDEST POP PUSH1 0x80 DUP3 ADD MLOAD PUSH1 0x4 SWAP1 SWAP2 ADD DUP1 SLOAD PUSH1 0xA0 SWAP1 SWAP4 ADD MLOAD ISZERO ISZERO PUSH2 0x100 MUL PUSH2 0xFFFF NOT SWAP1 SWAP4 AND PUSH1 0xFF SWAP1 SWAP3 AND SWAP2 SWAP1 SWAP2 OR SWAP2 SWAP1 SWAP2 OR SWAP1 SSTORE PUSH1 0x40 MLOAD CALLER SWAP1 PUSH32 0xF10EC97E920CDE75887622583772C637595A40B1F7777C18E51EA36CD127475C SWAP1 PUSH0 SWAP1 LOG2 POP POP POP POP POP POP JUMP JUMPDEST CALLER PUSH0 SWAP1 DUP2 MSTORE PUSH1 0x20 DUP2 SWAP1 MSTORE PUSH1 0x40 SWAP1 KECCAK256 PUSH1 0x4 ADD SLOAD PUSH2 0x100 SWAP1 DIV PUSH1 0xFF AND PUSH2 0x553 JUMPI PUSH1 0x40 MLOAD PUSH3 0x461BCD PUSH1 0xE5 SHL DUP2 MSTORE PUSH1 0x20 PUSH1 0x4 DUP3 ADD MSTORE PUSH1 0x16 PUSH1 0x24 DUP3 ADD MSTORE PUSH22 0x141C9BD99A5B1948191BD95CC81B9BDD08195E1A5CDD PUSH1 0x52 SHL PUSH1 0x44 DUP3 ADD MSTORE PUSH1 0x64 ADD PUSH2 0x39E JUMP JUMPDEST CALLER PUSH0 SWAP1 DUP2 MSTORE PUSH1 0x20 DUP2 SWAP1 MSTORE PUSH1 0x40 DUP2 KECCAK256 SWAP1 PUSH2 0x56C DUP3 DUP3 PUSH2 0x6EB JUMP JUMPDEST PUSH2 0x579 PUSH1 0x1 DUP4 ADD PUSH0 PUSH2 0x6EB JUMP JUMPDEST PUSH2 0x586 PUSH1 0x2 DUP4 ADD PUSH0 PUSH2 0x6EB JUMP JUMPDEST PUSH2 0x593 PUSH1 0x3 DUP4 ADD PUSH0 PUSH2 0x6EB JUMP JUMPDEST POP PUSH1 0x4 ADD DUP1 SLOAD PUSH2 0xFFFF NOT AND SWAP1 SSTORE PUSH1 0x40 MLOAD CALLER SWAP1 PUSH32 0x517B492F6C7DB035D7C3C4FA1CE0CB2D05E1F24219256F50FBAB78242E544C04 SWAP1 PUSH0 SWAP1 LOG2 JUMP JUMPDEST CALLER PUSH0 SWAP1 DUP2 MSTORE PUSH1 0x20 DUP2 SWAP1 MSTORE PUSH1 0x40 SWAP1 KECCAK256 PUSH1 0x4 ADD SLOAD PUSH2 0x100 SWAP1 DIV PUSH1 0xFF AND PUSH2 0x62B JUMPI PUSH1 0x40 MLOAD PUSH3 0x461BCD PUSH1 0xE5 SHL DUP2 MSTORE PUSH1 0x20 PUSH1 0x4 DUP3 ADD MSTORE PUSH1 0x16 PUSH1 0x24 DUP3 ADD MSTORE PUSH22 0x141C9BD99A5B1948191BD95CC81B9BDD08195E1A5CDD PUSH1 0x52 SHL PUSH1 0x44 DUP3 ADD MSTORE PUSH1 0x64 ADD PUSH2 0x39E JUMP JUMPDEST DUP1 PUSH1 0x1 DUP2 PUSH1 0xFF AND LT ISZERO DUP1 ISZERO PUSH2 0x644 JUMPI POP PUSH1 0x6 DUP2 PUSH1 0xFF AND GT ISZERO JUMPDEST PUSH2 0x660 JUMPI PUSH1 0x40 MLOAD PUSH3 0x461BCD PUSH1 0xE5 SHL DUP2 MSTORE PUSH1 0x4 ADD PUSH2 0x39E SWAP1 PUSH2 0x9DB JUMP JUMPDEST CALLER PUSH0 SWAP1 DUP2 MSTORE PUSH1 0x20 DUP2 SWAP1 MSTORE PUSH1 0x40 SWAP1 KECCAK256 DUP1 PUSH2 0x679 DUP9 DUP3 PUSH2 0xA68 JUMP JUMPDEST POP PUSH1 0x1 DUP2 ADD PUSH2 0x688 DUP8 DUP3 PUSH2 0xA68 JUMP JUMPDEST POP PUSH1 0x2 DUP2 ADD PUSH2 0x697 DUP7 DUP3 PUSH2 0xA68 JUMP JUMPDEST POP PUSH1 0x3 DUP2 ADD PUSH2 0x6A6 DUP6 DUP3 PUSH2 0xA68 JUMP JUMPDEST POP PUSH1 0x4 DUP2 ADD DUP1 SLOAD PUSH1 0xFF NOT AND PUSH1 0xFF DUP6 AND OR SWAP1 SSTORE PUSH1 0x40 MLOAD CALLER SWAP1 PUSH32 0xBE4EC58A792F909E102EE3D745D0C3B34A4D437A54D903C4DB098D31C556422F SWAP1 PUSH0 SWAP1 LOG2 POP POP POP POP POP POP POP JUMP JUMPDEST POP DUP1 SLOAD PUSH2 0x6F7 SWAP1 PUSH2 0x9A3 JUMP JUMPDEST PUSH0 DUP3 SSTORE DUP1 PUSH1 0x1F LT PUSH2 0x706 JUMPI POP POP JUMP JUMPDEST PUSH1 0x1F ADD PUSH1 0x20 SWAP1 DIV SWAP1 PUSH0 MSTORE PUSH1 0x20 PUSH0 KECCAK256 SWAP1 DUP2 ADD SWAP1 PUSH2 0x722 SWAP2 SWAP1 PUSH2 0x725 JUMP JUMPDEST POP JUMP JUMPDEST JUMPDEST DUP1 DUP3 GT ISZERO PUSH2 0x739 JUMPI PUSH0 DUP2 SSTORE PUSH1 0x1 ADD PUSH2 0x726 JUMP JUMPDEST POP SWAP1 JUMP JUMPDEST PUSH0 PUSH1 0x20 DUP3 DUP5 SUB SLT ISZERO PUSH2 0x74D JUMPI PUSH0 DUP1 REVERT JUMPDEST DUP2 CALLDATALOAD PUSH1 0x1 PUSH1 0x1 PUSH1 0xA0 SHL SUB DUP2 AND DUP2 EQ PUSH2 0x763 JUMPI PUSH0 DUP1 REVERT JUMPDEST SWAP4 SWAP3 POP POP POP JUMP JUMPDEST PUSH0 DUP2 MLOAD DUP1 DUP5 MSTORE PUSH0 JUMPDEST DUP2 DUP2 LT ISZERO PUSH2 0x78E JUMPI PUSH1 0x20 DUP2 DUP6 ADD DUP2 ADD MLOAD DUP7 DUP4 ADD DUP3 ADD MSTORE ADD PUSH2 0x772 JUMP JUMPDEST POP PUSH0 PUSH1 0x20 DUP3 DUP7 ADD ADD MSTORE PUSH1 0x20 PUSH1 0x1F NOT PUSH1 0x1F DUP4 ADD AND DUP6 ADD ADD SWAP2 POP POP SWAP3 SWAP2 POP POP JUMP JUMPDEST PUSH1 0x20 DUP2 MSTORE PUSH0 DUP3 MLOAD PUSH1 0xC0 PUSH1 0x20 DUP5 ADD MSTORE PUSH2 0x7C8 PUSH1 0xE0 DUP5 ADD DUP3 PUSH2 0x76A JUMP JUMPDEST SWAP1 POP PUSH1 0x20 DUP5 ADD MLOAD PUSH1 0x1F NOT DUP1 DUP6 DUP5 SUB ADD PUSH1 0x40 DUP7 ADD MSTORE PUSH2 0x7E6 DUP4 DUP4 PUSH2 0x76A JUMP JUMPDEST SWAP3 POP PUSH1 0x40 DUP7 ADD MLOAD SWAP2 POP DUP1 DUP6 DUP5 SUB ADD PUSH1 0x60 DUP7 ADD MSTORE PUSH2 0x803 DUP4 DUP4 PUSH2 0x76A JUMP JUMPDEST SWAP3 POP PUSH1 0x60 DUP7 ADD MLOAD SWAP2 POP DUP1 DUP6 DUP5 SUB ADD PUSH1 0x80 DUP7 ADD MSTORE POP PUSH2 0x821 DUP3 DUP3 PUSH2 0x76A JUMP JUMPDEST SWAP2 POP POP PUSH1 0xFF PUSH1 0x80 DUP6 ADD MLOAD AND PUSH1 0xA0 DUP5 ADD MSTORE PUSH1 0xA0 DUP5 ADD MLOAD ISZERO ISZERO PUSH1 0xC0 DUP5 ADD MSTORE DUP1 SWAP2 POP POP SWAP3 SWAP2 POP POP JUMP JUMPDEST PUSH4 0x4E487B71 PUSH1 0xE0 SHL PUSH0 MSTORE PUSH1 0x41 PUSH1 0x4 MSTORE PUSH1 0x24 PUSH0 REVERT JUMPDEST PUSH0 DUP3 PUSH1 0x1F DUP4 ADD SLT PUSH2 0x86A JUMPI PUSH0 DUP1 REVERT JUMPDEST DUP2 CALLDATALOAD PUSH8 0xFFFFFFFFFFFFFFFF DUP1 DUP3 GT ISZERO PUSH2 0x885 JUMPI PUSH2 0x885 PUSH2 0x847 JUMP JUMPDEST PUSH1 0x40 MLOAD PUSH1 0x1F DUP4 ADD PUSH1 0x1F NOT SWAP1 DUP2 AND PUSH1 0x3F ADD AND DUP2 ADD SWAP1 DUP3 DUP3 GT DUP2 DUP4 LT OR ISZERO PUSH2 0x8AD JUMPI PUSH2 0x8AD PUSH2 0x847 JUMP JUMPDEST DUP2 PUSH1 0x40 MSTORE DUP4 DUP2 MSTORE DUP7 PUSH1 0x20 DUP6 DUP9 ADD ADD GT ISZERO PUSH2 0x8C5 JUMPI PUSH0 DUP1 REVERT JUMPDEST DUP4 PUSH1 0x20 DUP8 ADD PUSH1 0x20 DUP4 ADD CALLDATACOPY PUSH0 PUSH1 0x20 DUP6 DUP4 ADD ADD MSTORE DUP1 SWAP5 POP POP POP POP POP SWAP3 SWAP2 POP POP JUMP JUMPDEST PUSH0 DUP1 PUSH0 DUP1 PUSH0 PUSH1 0xA0 DUP7 DUP9 SUB SLT ISZERO PUSH2 0x8F8 JUMPI PUSH0 DUP1 REVERT JUMPDEST DUP6 CALLDATALOAD PUSH8 0xFFFFFFFFFFFFFFFF DUP1 DUP3 GT ISZERO PUSH2 0x90F JUMPI PUSH0 DUP1 REVERT JUMPDEST PUSH2 0x91B DUP10 DUP4 DUP11 ADD PUSH2 0x85B JUMP JUMPDEST SWAP7 POP PUSH1 0x20 DUP9 ADD CALLDATALOAD SWAP2 POP DUP1 DUP3 GT ISZERO PUSH2 0x930 JUMPI PUSH0 DUP1 REVERT JUMPDEST PUSH2 0x93C DUP10 DUP4 DUP11 ADD PUSH2 0x85B JUMP JUMPDEST SWAP6 POP PUSH1 0x40 DUP9 ADD CALLDATALOAD SWAP2 POP DUP1 DUP3 GT ISZERO PUSH2 0x951 JUMPI PUSH0 DUP1 REVERT JUMPDEST PUSH2 0x95D DUP10 DUP4 DUP11 ADD PUSH2 0x85B JUMP JUMPDEST SWAP5 POP PUSH1 0x60 DUP9 ADD CALLDATALOAD SWAP2 POP DUP1 DUP3 GT ISZERO PUSH2 0x972 JUMPI PUSH0 DUP1 REVERT JUMPDEST POP PUSH2 0x97F DUP9 DUP3 DUP10 ADD PUSH2 0x85B JUMP JUMPDEST SWAP3 POP POP PUSH1 0x80 DUP7 ADD CALLDATALOAD PUSH1 0xFF DUP2 AND DUP2 EQ PUSH2 0x995 JUMPI PUSH0 DUP1 REVERT JUMPDEST DUP1 SWAP2 POP POP SWAP3 SWAP6 POP SWAP3 SWAP6 SWAP1 SWAP4 POP JUMP JUMPDEST PUSH1 0x1 DUP2 DUP2 SHR SWAP1 DUP3 AND DUP1 PUSH2 0x9B7 JUMPI PUSH1 0x7F DUP3 AND SWAP2 POP JUMPDEST PUSH1 0x20 DUP3 LT DUP2 SUB PUSH2 0x9D5 JUMPI PUSH4 0x4E487B71 PUSH1 0xE0 SHL PUSH0 MSTORE PUSH1 0x22 PUSH1 0x4 MSTORE PUSH1 0x24 PUSH0 REVERT JUMPDEST POP SWAP2 SWAP1 POP JUMP JUMPDEST PUSH1 0x20 DUP1 DUP3 MSTORE PUSH1 0x21 SWAP1 DUP3 ADD MSTORE PUSH32 0x417661746172204944206D757374206265206265747765656E203120616E6420 PUSH1 0x40 DUP3 ADD MSTORE PUSH1 0x1B PUSH1 0xF9 SHL PUSH1 0x60 DUP3 ADD MSTORE PUSH1 0x80 ADD SWAP1 JUMP JUMPDEST PUSH1 0x1F DUP3 GT ISZERO PUSH2 0xA63 JUMPI DUP1 PUSH0 MSTORE PUSH1 0x20 PUSH0 KECCAK256 PUSH1 0x1F DUP5 ADD PUSH1 0x5 SHR DUP2 ADD PUSH1 0x20 DUP6 LT ISZERO PUSH2 0xA41 JUMPI POP DUP1 JUMPDEST PUSH1 0x1F DUP5 ADD PUSH1 0x5 SHR DUP3 ADD SWAP2 POP JUMPDEST DUP2 DUP2 LT ISZERO PUSH2 0xA60 JUMPI PUSH0 DUP2 SSTORE PUSH1 0x1 ADD PUSH2 0xA4D JUMP JUMPDEST POP POP JUMPDEST POP POP POP JUMP JUMPDEST DUP2 MLOAD PUSH8 0xFFFFFFFFFFFFFFFF DUP2 GT ISZERO PUSH2 0xA82 JUMPI PUSH2 0xA82 PUSH2 0x847 JUMP JUMPDEST PUSH2 0xA96 DUP2 PUSH2 0xA90 DUP5 SLOAD PUSH2 0x9A3 JUMP JUMPDEST DUP5 PUSH2 0xA1C JUMP JUMPDEST PUSH1 0x20 DUP1 PUSH1 0x1F DUP4 GT PUSH1 0x1 DUP2 EQ PUSH2 0xAC9 JUMPI PUSH0 DUP5 ISZERO PUSH2 0xAB2 JUMPI POP DUP6 DUP4 ADD MLOAD JUMPDEST PUSH0 NOT PUSH1 0x3 DUP7 SWAP1 SHL SHR NOT AND PUSH1 0x1 DUP6 SWAP1 SHL OR DUP6 SSTORE PUSH2 0xB20 JUMP JUMPDEST PUSH0 DUP6 DUP2 MSTORE PUSH1 0x20 DUP2 KECCAK256 PUSH1 0x1F NOT DUP7 AND SWAP2 JUMPDEST DUP3 DUP2 LT ISZERO PUSH2 0xAF7 JUMPI DUP9 DUP7 ADD MLOAD DUP3 SSTORE SWAP5 DUP5 ADD SWAP5 PUSH1 0x1 SWAP1 SWAP2 ADD SWAP1 DUP5 ADD PUSH2 0xAD8 JUMP JUMPDEST POP DUP6 DUP3 LT ISZERO PUSH2 0xB14 JUMPI DUP8 DUP6 ADD MLOAD PUSH0 NOT PUSH1 0x3 DUP9 SWAP1 SHL PUSH1 0xF8 AND SHR NOT AND DUP2 SSTORE JUMPDEST POP POP PUSH1 0x1 DUP5 PUSH1 0x1 SHL ADD DUP6 SSTORE JUMPDEST POP POP POP POP POP POP JUMP INVALID LOG2 PUSH5 0x6970667358 0x22 SLT KECCAK256 0xD5 0x4C OR SGT SWAP1 0xC9 PUSH20 0x9AC7D6A8B8782EB65F8ECD0813D9C3C398DACB34 PUSH6 0x7FB8ECF16473 PUSH16 0x6C634300081800330000000000000000 "},"methodIdentifiers":{"createProfile(string,string,string,string,uint8)":"668da675","deleteProfile()":"6d4540eb","getProfile(address)":"0f53a470","updateProfile(string,string,string,string,uint8)":"9616bf5b"}}}}}