{"src/SpectraSaaS.sol":{"SpectraSaaS":{"abi":[{"inputs":[{"internalType":"address","name":"_mockUSD","type":"address"}],"stateMutability":"nonpayable","type":"constructor"},{"inputs":[{"internalType":"address","name":"owner","type":"address"}],"name":"OwnableInvalidOwner","type":"error"},{"inputs":[{"internalType":"address","name":"account","type":"address"}],"name":"OwnableUnauthorizedAccount","type":"error"},{"inputs":[],"name":"ReentrancyGuardReentrantCall","type":"error"},{"anonymous":false,"inputs":[{"indexed":true,"internalType":"address","name":"previousOwner","type":"address"},{"indexed":true,"internalType":"address","name":"newOwner","type":"address"}],"name":"OwnershipTransferred","type":"event"},{"anonymous":false,"inputs":[{"indexed":true,"internalType":"address","name":"user","type":"address"},{"indexed":false,"internalType":"uint256","name":"amount","type":"uint256"}],"name":"Renewed","type":"event"},{"anonymous":false,"inputs":[{"indexed":true,"internalType":"address","name":"user","type":"address"},{"indexed":false,"internalType":"enum SpectraSaaS.PlanTier","name":"tier","type":"uint8"}],"name":"Subscribed","type":"event"},{"anonymous":false,"inputs":[{"indexed":true,"internalType":"address","name":"user","type":"address"}],"name":"SubscriptionCancelled","type":"event"},{"anonymous":false,"inputs":[{"indexed":true,"internalType":"address","name":"user","type":"address"},{"indexed":false,"internalType":"uint256","name":"dailyCount","type":"uint256"}],"name":"TransactionExecuted","type":"event"},{"inputs":[],"name":"cancelSubscription","outputs":[],"stateMutability":"nonpayable","type":"function"},{"inputs":[{"internalType":"address","name":"_user","type":"address"}],"name":"checkNFTAccess","outputs":[{"internalType":"bool","name":"","type":"bool"}],"stateMutability":"view","type":"function"},{"inputs":[{"internalType":"address","name":"_user","type":"address"}],"name":"getRemainingTransactions","outputs":[{"internalType":"uint256","name":"","type":"uint256"}],"stateMutability":"view","type":"function"},{"inputs":[{"internalType":"address","name":"_user","type":"address"}],"name":"getUserTier","outputs":[{"internalType":"enum SpectraSaaS.PlanTier","name":"","type":"uint8"}],"stateMutability":"view","type":"function"},{"inputs":[],"name":"mockUSD","outputs":[{"internalType":"contract IERC20","name":"","type":"address"}],"stateMutability":"view","type":"function"},{"inputs":[],"name":"owner","outputs":[{"internalType":"address","name":"","type":"address"}],"stateMutability":"view","type":"function"},{"inputs":[{"internalType":"address","name":"_user","type":"address"}],"name":"recordTransaction","outputs":[],"stateMutability":"nonpayable","type":"function"},{"inputs":[{"internalType":"address","name":"_user","type":"address"}],"name":"renewSubscription","outputs":[],"stateMutability":"nonpayable","type":"function"},{"inputs":[],"name":"renounceOwnership","outputs":[],"stateMutability":"nonpayable","type":"function"},{"inputs":[{"internalType":"enum SpectraSaaS.PlanTier","name":"_tier","type":"uint8"}],"name":"subscribe","outputs":[],"stateMutability":"nonpayable","type":"function"},{"inputs":[{"internalType":"enum SpectraSaaS.PlanTier","name":"","type":"uint8"}],"name":"tiers","outputs":[{"internalType":"uint256","name":"dailyTxLimit","type":"uint256"},{"internalType":"uint256","name":"monthlyFee","type":"uint256"},{"internalType":"bool","name":"hasNFTAccess","type":"bool"}],"stateMutability":"view","type":"function"},{"inputs":[{"internalType":"address","name":"newOwner","type":"address"}],"name":"transferOwnership","outputs":[],"stateMutability":"nonpayable","type":"function"},{"inputs":[{"internalType":"enum SpectraSaaS.PlanTier","name":"_tier","type":"uint8"},{"internalType":"uint256","name":"_limit","type":"uint256"},{"internalType":"uint256","name":"_fee","type":"uint256"},{"internalType":"bool","name":"_nft","type":"bool"}],"name":"updateTierInfo","outputs":[],"stateMutability":"nonpayable","type":"function"},{"inputs":[{"internalType":"address","name":"","type":"address"}],"name":"userDailyUsage","outputs":[{"internalType":"uint256","name":"count","type":"uint256"},{"internalType":"uint256","name":"firstTxTimestamp","type":"uint256"}],"stateMutability":"view","type":"function"},{"inputs":[{"internalType":"address","name":"","type":"address"}],"name":"userSubscriptions","outputs":[{"internalType":"enum SpectraSaaS.PlanTier","name":"tier","type":"uint8"},{"internalType":"uint256","name":"lastBillingTimestamp","type":"uint256"},{"internalType":"uint256","name":"nextBillingTimestamp","type":"uint256"}],"stateMutability":"view","type":"function"},{"inputs":[],"name":"withdrawFees","outputs":[],"stateMutability":"nonpayable","type":"function"}],"evm":{"bytecode":{"linkReferences":{},"object":"608060405234801561000f575f80fd5b506040516112ab3803806112ab83398101604081905261002e916102c7565b338061005357604051631e4fbdf760e01b81525f600482015260240160405180910390fd5b61005c81610278565b5060017f9b779b17422d0df92223018b32b4d1fa46e071723d6817e2486d003becc55f0055600180546001600160a01b03929092166001600160a01b03199092169190911781556040805160608082018352600a82525f6020808401828152848601838152838052600280845295517fac33ff75c19e70fe83507db0d683fd3465c996598dc972688b7ace676c89077b5590517fac33ff75c19e70fe83507db0d683fd3465c996598dc972688b7ace676c89077c55517fac33ff75c19e70fe83507db0d683fd3465c996598dc972688b7ace676c89077d805491151560ff1992831617905585518085018752600f815262e4e1c081840190815281880189815289865287855291517fe90b7bceb6e7df5418fb78d8ee546e97c83a08bbccc01a0644d599ccd2a7c2e055517fe90b7bceb6e7df5418fb78d8ee546e97c83a08bbccc01a0644d599ccd2a7c2e155517fe90b7bceb6e7df5418fb78d8ee546e97c83a08bbccc01a0644d599ccd2a7c2e2805491151591831691909117905585519384018652601e84526302ebae408483019081529584019687529184905292909252517f679795a0195a1b76cdebb7c51d74e058aee92919b8c3389af86ef24535e8a28c5590517f679795a0195a1b76cdebb7c51d74e058aee92919b8c3389af86ef24535e8a28d5590517f679795a0195a1b76cdebb7c51d74e058aee92919b8c3389af86ef24535e8a28e8054911515919092161790556102f4565b5f80546001600160a01b038381166001600160a01b0319831681178455604051919092169283917f8be0079c531659141344cd1fd0a4f28419497f9722a3daafe3b4186f6b6457e09190a35050565b5f602082840312156102d7575f80fd5b81516001600160a01b03811681146102ed575f80fd5b9392505050565b610faa806103015f395ff3fe608060405234801561000f575f80fd5b50600436106100fb575f3560e01c8063abfbd2dc11610093578063e02eb10911610063578063e02eb10914610288578063e4d2620e1461029b578063f1a7ac9f146102d3578063f2fde38b146102e6575f80fd5b8063abfbd2dc146101ac578063cf14b9e4146101bf578063d1d7997414610200578063dbe1ecd31461024d575f80fd5b8063715018a6116100ce578063715018a61461013757806388d11d331461013f5780638da5cb5b14610165578063a8efed7514610189575f80fd5b80631db1c61a146100ff57806324e9edb014610114578063476343ee1461011c57806349c7e63914610124575b5f80fd5b61011261010d366004610dde565b6102f9565b005b610112610382565b61011261041e565b610112610132366004610e23565b61056b565b6101126107a0565b61015261014d366004610e43565b6107b3565b6040519081526020015b60405180910390f35b5f546001600160a01b03165b6040516001600160a01b03909116815260200161015c565b61019c610197366004610e43565b61089e565b604051901515815260200161015c565b6101126101ba366004610e43565b6108fb565b6101f16101cd366004610e43565b60036020525f908152604090208054600182015460029092015460ff909116919083565b60405161015c93929190610e9d565b61023061020e366004610e23565b600260208190525f918252604090912080546001820154919092015460ff1683565b60408051938452602084019290925215159082015260600161015c565b61027361025b366004610e43565b60046020525f90815260409020805460019091015482565b6040805192835260208301919091520161015c565b610112610296366004610e43565b610aab565b6102c66102a9366004610e43565b6001600160a01b03165f9081526003602052604090205460ff1690565b60405161015c9190610ebc565b600154610171906001600160a01b031681565b6101126102f4366004610e43565b610cbf565b610301610cf9565b604051806060016040528084815260200183815260200182151581525060025f86600281111561033357610333610e69565b600281111561034457610344610e69565b815260208082019290925260409081015f208351815591830151600183015591909101516002909101805460ff191691151591909117905550505050565b604080516060810182525f80825242602080840182905283850191909152338252600390529190912081518154829060ff191660018360028111156103c9576103c9610e69565b0217905550602082015160018201556040918201516002909101555133907fce8d9e12780003dbeb4fd0ed5ab85fee8f44a69557fdbb3579dee544318229fb90610414905f90610ebc565b60405180910390a2565b610426610cf9565b6001546040516370a0823160e01b81523060048201525f916001600160a01b0316906370a0823190602401602060405180830381865afa15801561046c573d5f803e3d5ffd5b505050506040513d601f19601f820116820180604052508101906104909190610ed0565b6001549091506001600160a01b031663a9059cbb6104b55f546001600160a01b031690565b6040516001600160e01b031960e084901b1681526001600160a01b039091166004820152602481018490526044016020604051808303815f875af11580156104ff573d5f803e3d5ffd5b505050506040513d601f19601f820116820180604052508101906105239190610ee7565b6105685760405162461bcd60e51b815260206004820152601160248201527015da5d1a191c985dd85b0819985a5b1959607a1b60448201526064015b60405180910390fd5b50565b610573610d25565b5f60025f83600281111561058957610589610e69565b600281111561059a5761059a610e69565b815260208082019290925260409081015f20815160608101835281548152600182015493810184905260029091015460ff161515918101919091529150156106d15760015460208201516040516323b872dd60e01b815233600482015230602482015260448101919091526001600160a01b03909116906323b872dd906064016020604051808303815f875af1158015610636573d5f803e3d5ffd5b505050506040513d601f19601f8201168201806040525081019061065a9190610ee7565b6106975760405162461bcd60e51b815260206004820152600e60248201526d14185e5b595b9d0819985a5b195960921b604482015260640161055f565b60208082015160405190815233917f149b8ef5614c26b28a55bb6a04b1b9ca363691c31302c66a7c6a32c91c0653ce910160405180910390a25b60405180606001604052808360028111156106ee576106ee610e69565b81526020014281526020014262278d006107089190610f16565b9052335f90815260036020526040902081518154829060ff1916600183600281111561073657610736610e69565b0217905550602082015160018201556040918201516002909101555133907fce8d9e12780003dbeb4fd0ed5ab85fee8f44a69557fdbb3579dee544318229fb90610781908590610ebc565b60405180910390a25061056860015f80516020610f5583398151915255565b6107a8610cf9565b6107b15f610d40565b565b6001600160a01b0381165f81815260046020908152604080832081518083018352815481526001909101548184015293835260039091528120549091908290600290829060ff168281111561080a5761080a610e69565b600281111561081b5761081b610e69565b815260208082019290925260409081015f2081516060810183528154815260018201548185015260029091015460ff16151591810191909152908301519091506108689062015180610f16565b421061087657519392505050565b805182511061088857505f9392505050565b815181516108969190610f29565b949350505050565b6001600160a01b0381165f90815260036020526040812054600290829060ff16828111156108ce576108ce610e69565b60028111156108df576108df610e69565b815260208101919091526040015f206002015460ff1692915050565b6001600160a01b0381165f908152600360205260408082208151606081019092528054829060ff16600281111561093457610934610e69565b600281111561094557610945610e69565b81526020016001820154815260200160028201548152505090505f60025f835f0151600281111561097857610978610e69565b600281111561098957610989610e69565b815260208082019290925260409081015f9081208251606081018452815481526001808301548287015260029092015460ff161515818501526001600160a01b0388168352600490945291902090810154919250906109eb9062015180610f16565b4210610a005760018082554290820155610a13565b8054815f610a0d83610f3c565b91905055505b815181541115610a655760405162461bcd60e51b815260206004820181905260248201527f4461696c79207472616e73616374696f6e206c696d6974206578636565646564604482015260640161055f565b80546040519081526001600160a01b038516907f4e86ad0da28cbaaaa7e93e36c43b32696e970535225b316f1b84fbf30bdc04e89060200160405180910390a250505050565b610ab3610d25565b6001600160a01b0381165f9081526003602052604090206002810154421015610b135760405162461bcd60e51b8152602060048201526012602482015271546f6f206561726c7920746f2072656e657760701b604482015260640161055f565b80545f90600290829060ff1682811115610b2f57610b2f610e69565b6002811115610b4057610b40610e69565b815260208082019290925260409081015f20815160608101835281548152600182015493810184905260029091015460ff16151591810191909152915015610c8a5760015460208201516040516323b872dd60e01b81526001600160a01b03868116600483015230602483015260448201929092529116906323b872dd906064016020604051808303815f875af1158015610bdd573d5f803e3d5ffd5b505050506040513d601f19601f82011682018060405250810190610c019190610ee7565b610c425760405162461bcd60e51b8152602060048201526012602482015271105d5d1bcb5919591d58dd0819985a5b195960721b604482015260640161055f565b826001600160a01b03167f149b8ef5614c26b28a55bb6a04b1b9ca363691c31302c66a7c6a32c91c0653ce8260200151604051610c8191815260200190565b60405180910390a25b4260018301819055610c9f9062278d00610f16565b8260020181905550505061056860015f80516020610f5583398151915255565b610cc7610cf9565b6001600160a01b038116610cf057604051631e4fbdf760e01b81525f600482015260240161055f565b61056881610d40565b5f546001600160a01b031633146107b15760405163118cdaa760e01b815233600482015260240161055f565b610d2d610d8f565b60025f80516020610f5583398151915255565b5f80546001600160a01b038381166001600160a01b0319831681178455604051919092169283917f8be0079c531659141344cd1fd0a4f28419497f9722a3daafe3b4186f6b6457e09190a35050565b5f80516020610f55833981519152546002036107b157604051633ee5aeb560e01b815260040160405180910390fd5b803560038110610dcc575f80fd5b919050565b8015158114610568575f80fd5b5f805f8060808587031215610df1575f80fd5b610dfa85610dbe565b935060208501359250604085013591506060850135610e1881610dd1565b939692955090935050565b5f60208284031215610e33575f80fd5b610e3c82610dbe565b9392505050565b5f60208284031215610e53575f80fd5b81356001600160a01b0381168114610e3c575f80fd5b634e487b7160e01b5f52602160045260245ffd5b60038110610e9957634e487b7160e01b5f52602160045260245ffd5b9052565b60608101610eab8286610e7d565b602082019390935260400152919050565b60208101610eca8284610e7d565b92915050565b5f60208284031215610ee0575f80fd5b5051919050565b5f60208284031215610ef7575f80fd5b8151610e3c81610dd1565b634e487b7160e01b5f52601160045260245ffd5b80820180821115610eca57610eca610f02565b81810381811115610eca57610eca610f02565b5f60018201610f4d57610f4d610f02565b506001019056fe9b779b17422d0df92223018b32b4d1fa46e071723d6817e2486d003becc55f00a26469706673582212204bcfc669bd77924ae726097e487a2342e7400df4689cba0bb47e6afcf8b76cfd64736f6c63430008180033","opcodes":"PUSH1 0x80 PUSH1 0x40 MSTORE CALLVALUE DUP1 ISZERO PUSH2 0xF JUMPI PUSH0 DUP1 REVERT JUMPDEST POP PUSH1 0x40 MLOAD PUSH2 0x12AB CODESIZE SUB DUP1 PUSH2 0x12AB DUP4 CODECOPY DUP2 ADD PUSH1 0x40 DUP2 SWAP1 MSTORE PUSH2 0x2E SWAP2 PUSH2 0x2C7 JUMP JUMPDEST CALLER DUP1 PUSH2 0x53 JUMPI PUSH1 0x40 MLOAD PUSH4 0x1E4FBDF7 PUSH1 0xE0 SHL DUP2 MSTORE PUSH0 PUSH1 0x4 DUP3 ADD MSTORE PUSH1 0x24 ADD PUSH1 0x40 MLOAD DUP1 SWAP2 SUB SWAP1 REVERT JUMPDEST PUSH2 0x5C DUP2 PUSH2 0x278 JUMP JUMPDEST POP PUSH1 0x1 PUSH32 0x9B779B17422D0DF92223018B32B4D1FA46E071723D6817E2486D003BECC55F00 SSTORE PUSH1 0x1 DUP1 SLOAD PUSH1 0x1 PUSH1 0x1 PUSH1 0xA0 SHL SUB SWAP3 SWAP1 SWAP3 AND PUSH1 0x1 PUSH1 0x1 PUSH1 0xA0 SHL SUB NOT SWAP1 SWAP3 AND SWAP2 SWAP1 SWAP2 OR DUP2 SSTORE PUSH1 0x40 DUP1 MLOAD PUSH1 0x60 DUP1 DUP3 ADD DUP4 MSTORE PUSH1 0xA DUP3 MSTORE PUSH0 PUSH1 0x20 DUP1 DUP5 ADD DUP3 DUP2 MSTORE DUP5 DUP7 ADD DUP4 DUP2 MSTORE DUP4 DUP1 MSTORE PUSH1 0x2 DUP1 DUP5 MSTORE SWAP6 MLOAD PUSH32 0xAC33FF75C19E70FE83507DB0D683FD3465C996598DC972688B7ACE676C89077B SSTORE SWAP1 MLOAD PUSH32 0xAC33FF75C19E70FE83507DB0D683FD3465C996598DC972688B7ACE676C89077C SSTORE MLOAD PUSH32 0xAC33FF75C19E70FE83507DB0D683FD3465C996598DC972688B7ACE676C89077D DUP1 SLOAD SWAP2 ISZERO ISZERO PUSH1 0xFF NOT SWAP3 DUP4 AND OR SWAP1 SSTORE DUP6 MLOAD DUP1 DUP6 ADD DUP8 MSTORE PUSH1 0xF DUP2 MSTORE PUSH3 0xE4E1C0 DUP2 DUP5 ADD SWAP1 DUP2 MSTORE DUP2 DUP9 ADD DUP10 DUP2 MSTORE DUP10 DUP7 MSTORE DUP8 DUP6 MSTORE SWAP2 MLOAD PUSH32 0xE90B7BCEB6E7DF5418FB78D8EE546E97C83A08BBCCC01A0644D599CCD2A7C2E0 SSTORE MLOAD PUSH32 0xE90B7BCEB6E7DF5418FB78D8EE546E97C83A08BBCCC01A0644D599CCD2A7C2E1 SSTORE MLOAD PUSH32 0xE90B7BCEB6E7DF5418FB78D8EE546E97C83A08BBCCC01A0644D599CCD2A7C2E2 DUP1 SLOAD SWAP2 ISZERO ISZERO SWAP2 DUP4 AND SWAP2 SWAP1 SWAP2 OR SWAP1 SSTORE DUP6 MLOAD SWAP4 DUP5 ADD DUP7 MSTORE PUSH1 0x1E DUP5 MSTORE PUSH4 0x2EBAE40 DUP5 DUP4 ADD SWAP1 DUP2 MSTORE SWAP6 DUP5 ADD SWAP7 DUP8 MSTORE SWAP2 DUP5 SWAP1 MSTORE SWAP3 SWAP1 SWAP3 MSTORE MLOAD PUSH32 0x679795A0195A1B76CDEBB7C51D74E058AEE92919B8C3389AF86EF24535E8A28C SSTORE SWAP1 MLOAD PUSH32 0x679795A0195A1B76CDEBB7C51D74E058AEE92919B8C3389AF86EF24535E8A28D SSTORE SWAP1 MLOAD PUSH32 0x679795A0195A1B76CDEBB7C51D74E058AEE92919B8C3389AF86EF24535E8A28E DUP1 SLOAD SWAP2 ISZERO ISZERO SWAP2 SWAP1 SWAP3 AND OR SWAP1 SSTORE PUSH2 0x2F4 JUMP JUMPDEST PUSH0 DUP1 SLOAD PUSH1 0x1 PUSH1 0x1 PUSH1 0xA0 SHL SUB DUP4 DUP2 AND PUSH1 0x1 PUSH1 0x1 PUSH1 0xA0 SHL SUB NOT DUP4 AND DUP2 OR DUP5 SSTORE PUSH1 0x40 MLOAD SWAP2 SWAP1 SWAP3 AND SWAP3 DUP4 SWAP2 PUSH32 0x8BE0079C531659141344CD1FD0A4F28419497F9722A3DAAFE3B4186F6B6457E0 SWAP2 SWAP1 LOG3 POP POP JUMP JUMPDEST PUSH0 PUSH1 0x20 DUP3 DUP5 SUB SLT ISZERO PUSH2 0x2D7 JUMPI PUSH0 DUP1 REVERT JUMPDEST DUP2 MLOAD PUSH1 0x1 PUSH1 0x1 PUSH1 0xA0 SHL SUB DUP2 AND DUP2 EQ PUSH2 0x2ED JUMPI PUSH0 DUP1 REVERT JUMPDEST SWAP4 SWAP3 POP POP POP JUMP JUMPDEST PUSH2 0xFAA DUP1 PUSH2 0x301 PUSH0 CODECOPY PUSH0 RETURN INVALID PUSH1 0x80 PUSH1 0x40 MSTORE CALLVALUE DUP1 ISZERO PUSH2 0xF JUMPI PUSH0 DUP1 REVERT JUMPDEST POP PUSH1 0x4 CALLDATASIZE LT PUSH2 0xFB JUMPI PUSH0 CALLDATALOAD PUSH1 0xE0 SHR DUP1 PUSH4 0xABFBD2DC GT PUSH2 0x93 JUMPI DUP1 PUSH4 0xE02EB109 GT PUSH2 0x63 JUMPI DUP1 PUSH4 0xE02EB109 EQ PUSH2 0x288 JUMPI DUP1 PUSH4 0xE4D2620E EQ PUSH2 0x29B JUMPI DUP1 PUSH4 0xF1A7AC9F EQ PUSH2 0x2D3 JUMPI DUP1 PUSH4 0xF2FDE38B EQ PUSH2 0x2E6 JUMPI PUSH0 DUP1 REVERT JUMPDEST DUP1 PUSH4 0xABFBD2DC EQ PUSH2 0x1AC JUMPI DUP1 PUSH4 0xCF14B9E4 EQ PUSH2 0x1BF JUMPI DUP1 PUSH4 0xD1D79974 EQ PUSH2 0x200 JUMPI DUP1 PUSH4 0xDBE1ECD3 EQ PUSH2 0x24D JUMPI PUSH0 DUP1 REVERT JUMPDEST DUP1 PUSH4 0x715018A6 GT PUSH2 0xCE JUMPI DUP1 PUSH4 0x715018A6 EQ PUSH2 0x137 JUMPI DUP1 PUSH4 0x88D11D33 EQ PUSH2 0x13F JUMPI DUP1 PUSH4 0x8DA5CB5B EQ PUSH2 0x165 JUMPI DUP1 PUSH4 0xA8EFED75 EQ PUSH2 0x189 JUMPI PUSH0 DUP1 REVERT JUMPDEST DUP1 PUSH4 0x1DB1C61A EQ PUSH2 0xFF JUMPI DUP1 PUSH4 0x24E9EDB0 EQ PUSH2 0x114 JUMPI DUP1 PUSH4 0x476343EE EQ PUSH2 0x11C JUMPI DUP1 PUSH4 0x49C7E639 EQ PUSH2 0x124 JUMPI JUMPDEST PUSH0 DUP1 REVERT JUMPDEST PUSH2 0x112 PUSH2 0x10D CALLDATASIZE PUSH1 0x4 PUSH2 0xDDE JUMP JUMPDEST PUSH2 0x2F9 JUMP JUMPDEST STOP JUMPDEST PUSH2 0x112 PUSH2 0x382 JUMP JUMPDEST PUSH2 0x112 PUSH2 0x41E JUMP JUMPDEST PUSH2 0x112 PUSH2 0x132 CALLDATASIZE PUSH1 0x4 PUSH2 0xE23 JUMP JUMPDEST PUSH2 0x56B JUMP JUMPDEST PUSH2 0x112 PUSH2 0x7A0 JUMP JUMPDEST PUSH2 0x152 PUSH2 0x14D CALLDATASIZE PUSH1 0x4 PUSH2 0xE43 JUMP JUMPDEST PUSH2 0x7B3 JUMP JUMPDEST PUSH1 0x40 MLOAD SWAP1 DUP2 MSTORE PUSH1 0x20 ADD JUMPDEST PUSH1 0x40 MLOAD DUP1 SWAP2 SUB SWAP1 RETURN JUMPDEST PUSH0 SLOAD PUSH1 0x1 PUSH1 0x1 PUSH1 0xA0 SHL SUB AND JUMPDEST PUSH1 0x40 MLOAD PUSH1 0x1 PUSH1 0x1 PUSH1 0xA0 SHL SUB SWAP1 SWAP2 AND DUP2 MSTORE PUSH1 0x20 ADD PUSH2 0x15C JUMP JUMPDEST PUSH2 0x19C PUSH2 0x197 CALLDATASIZE PUSH1 0x4 PUSH2 0xE43 JUMP JUMPDEST PUSH2 0x89E JUMP JUMPDEST PUSH1 0x40 MLOAD SWAP1 ISZERO ISZERO DUP2 MSTORE PUSH1 0x20 ADD PUSH2 0x15C JUMP JUMPDEST PUSH2 0x112 PUSH2 0x1BA CALLDATASIZE PUSH1 0x4 PUSH2 0xE43 JUMP JUMPDEST PUSH2 0x8FB JUMP JUMPDEST PUSH2 0x1F1 PUSH2 0x1CD CALLDATASIZE PUSH1 0x4 PUSH2 0xE43 JUMP JUMPDEST PUSH1 0x3 PUSH1 0x20 MSTORE PUSH0 SWAP1 DUP2 MSTORE PUSH1 0x40 SWAP1 KECCAK256 DUP1 SLOAD PUSH1 0x1 DUP3 ADD SLOAD PUSH1 0x2 SWAP1 SWAP3 ADD SLOAD PUSH1 0xFF SWAP1 SWAP2 AND SWAP2 SWAP1 DUP4 JUMP JUMPDEST PUSH1 0x40 MLOAD PUSH2 0x15C SWAP4 SWAP3 SWAP2 SWAP1 PUSH2 0xE9D JUMP JUMPDEST PUSH2 0x230 PUSH2 0x20E CALLDATASIZE PUSH1 0x4 PUSH2 0xE23 JUMP JUMPDEST PUSH1 0x2 PUSH1 0x20 DUP2 SWAP1 MSTORE PUSH0 SWAP2 DUP3 MSTORE PUSH1 0x40 SWAP1 SWAP2 KECCAK256 DUP1 SLOAD PUSH1 0x1 DUP3 ADD SLOAD SWAP2 SWAP1 SWAP3 ADD SLOAD PUSH1 0xFF AND DUP4 JUMP JUMPDEST PUSH1 0x40 DUP1 MLOAD SWAP4 DUP5 MSTORE PUSH1 0x20 DUP5 ADD SWAP3 SWAP1 SWAP3 MSTORE ISZERO ISZERO SWAP1 DUP3 ADD MSTORE PUSH1 0x60 ADD PUSH2 0x15C JUMP JUMPDEST PUSH2 0x273 PUSH2 0x25B CALLDATASIZE PUSH1 0x4 PUSH2 0xE43 JUMP JUMPDEST PUSH1 0x4 PUSH1 0x20 MSTORE PUSH0 SWAP1 DUP2 MSTORE PUSH1 0x40 SWAP1 KECCAK256 DUP1 SLOAD PUSH1 0x1 SWAP1 SWAP2 ADD SLOAD DUP3 JUMP JUMPDEST PUSH1 0x40 DUP1 MLOAD SWAP3 DUP4 MSTORE PUSH1 0x20 DUP4 ADD SWAP2 SWAP1 SWAP2 MSTORE ADD PUSH2 0x15C JUMP JUMPDEST PUSH2 0x112 PUSH2 0x296 CALLDATASIZE PUSH1 0x4 PUSH2 0xE43 JUMP JUMPDEST PUSH2 0xAAB JUMP JUMPDEST PUSH2 0x2C6 PUSH2 0x2A9 CALLDATASIZE PUSH1 0x4 PUSH2 0xE43 JUMP JUMPDEST PUSH1 0x1 PUSH1 0x1 PUSH1 0xA0 SHL SUB AND PUSH0 SWAP1 DUP2 MSTORE PUSH1 0x3 PUSH1 0x20 MSTORE PUSH1 0x40 SWAP1 KECCAK256 SLOAD PUSH1 0xFF AND SWAP1 JUMP JUMPDEST PUSH1 0x40 MLOAD PUSH2 0x15C SWAP2 SWAP1 PUSH2 0xEBC JUMP JUMPDEST PUSH1 0x1 SLOAD PUSH2 0x171 SWAP1 PUSH1 0x1 PUSH1 0x1 PUSH1 0xA0 SHL SUB AND DUP2 JUMP JUMPDEST PUSH2 0x112 PUSH2 0x2F4 CALLDATASIZE PUSH1 0x4 PUSH2 0xE43 JUMP JUMPDEST PUSH2 0xCBF JUMP JUMPDEST PUSH2 0x301 PUSH2 0xCF9 JUMP JUMPDEST PUSH1 0x40 MLOAD DUP1 PUSH1 0x60 ADD PUSH1 0x40 MSTORE DUP1 DUP5 DUP2 MSTORE PUSH1 0x20 ADD DUP4 DUP2 MSTORE PUSH1 0x20 ADD DUP3 ISZERO ISZERO DUP2 MSTORE POP PUSH1 0x2 PUSH0 DUP7 PUSH1 0x2 DUP2 GT ISZERO PUSH2 0x333 JUMPI PUSH2 0x333 PUSH2 0xE69 JUMP JUMPDEST PUSH1 0x2 DUP2 GT ISZERO PUSH2 0x344 JUMPI PUSH2 0x344 PUSH2 0xE69 JUMP JUMPDEST DUP2 MSTORE PUSH1 0x20 DUP1 DUP3 ADD SWAP3 SWAP1 SWAP3 MSTORE PUSH1 0x40 SWAP1 DUP2 ADD PUSH0 KECCAK256 DUP4 MLOAD DUP2 SSTORE SWAP2 DUP4 ADD MLOAD PUSH1 0x1 DUP4 ADD SSTORE SWAP2 SWAP1 SWAP2 ADD MLOAD PUSH1 0x2 SWAP1 SWAP2 ADD DUP1 SLOAD PUSH1 0xFF NOT AND SWAP2 ISZERO ISZERO SWAP2 SWAP1 SWAP2 OR SWAP1 SSTORE POP POP POP POP JUMP JUMPDEST PUSH1 0x40 DUP1 MLOAD PUSH1 0x60 DUP2 ADD DUP3 MSTORE PUSH0 DUP1 DUP3 MSTORE TIMESTAMP PUSH1 0x20 DUP1 DUP5 ADD DUP3 SWAP1 MSTORE DUP4 DUP6 ADD SWAP2 SWAP1 SWAP2 MSTORE CALLER DUP3 MSTORE PUSH1 0x3 SWAP1 MSTORE SWAP2 SWAP1 SWAP2 KECCAK256 DUP2 MLOAD DUP2 SLOAD DUP3 SWAP1 PUSH1 0xFF NOT AND PUSH1 0x1 DUP4 PUSH1 0x2 DUP2 GT ISZERO PUSH2 0x3C9 JUMPI PUSH2 0x3C9 PUSH2 0xE69 JUMP JUMPDEST MUL OR SWAP1 SSTORE POP PUSH1 0x20 DUP3 ADD MLOAD PUSH1 0x1 DUP3 ADD SSTORE PUSH1 0x40 SWAP2 DUP3 ADD MLOAD PUSH1 0x2 SWAP1 SWAP2 ADD SSTORE MLOAD CALLER SWAP1 PUSH32 0xCE8D9E12780003DBEB4FD0ED5AB85FEE8F44A69557FDBB3579DEE544318229FB SWAP1 PUSH2 0x414 SWAP1 PUSH0 SWAP1 PUSH2 0xEBC JUMP JUMPDEST PUSH1 0x40 MLOAD DUP1 SWAP2 SUB SWAP1 LOG2 JUMP JUMPDEST PUSH2 0x426 PUSH2 0xCF9 JUMP JUMPDEST PUSH1 0x1 SLOAD PUSH1 0x40 MLOAD PUSH4 0x70A08231 PUSH1 0xE0 SHL DUP2 MSTORE ADDRESS PUSH1 0x4 DUP3 ADD MSTORE PUSH0 SWAP2 PUSH1 0x1 PUSH1 0x1 PUSH1 0xA0 SHL SUB AND SWAP1 PUSH4 0x70A08231 SWAP1 PUSH1 0x24 ADD PUSH1 0x20 PUSH1 0x40 MLOAD DUP1 DUP4 SUB DUP2 DUP7 GAS STATICCALL ISZERO DUP1 ISZERO PUSH2 0x46C JUMPI RETURNDATASIZE PUSH0 DUP1 RETURNDATACOPY RETURNDATASIZE PUSH0 REVERT JUMPDEST POP POP POP POP PUSH1 0x40 MLOAD RETURNDATASIZE PUSH1 0x1F NOT PUSH1 0x1F DUP3 ADD AND DUP3 ADD DUP1 PUSH1 0x40 MSTORE POP DUP2 ADD SWAP1 PUSH2 0x490 SWAP2 SWAP1 PUSH2 0xED0 JUMP JUMPDEST PUSH1 0x1 SLOAD SWAP1 SWAP2 POP PUSH1 0x1 PUSH1 0x1 PUSH1 0xA0 SHL SUB AND PUSH4 0xA9059CBB PUSH2 0x4B5 PUSH0 SLOAD PUSH1 0x1 PUSH1 0x1 PUSH1 0xA0 SHL SUB AND SWAP1 JUMP JUMPDEST PUSH1 0x40 MLOAD PUSH1 0x1 PUSH1 0x1 PUSH1 0xE0 SHL SUB NOT PUSH1 0xE0 DUP5 SWAP1 SHL AND DUP2 MSTORE PUSH1 0x1 PUSH1 0x1 PUSH1 0xA0 SHL SUB SWAP1 SWAP2 AND PUSH1 0x4 DUP3 ADD MSTORE PUSH1 0x24 DUP2 ADD DUP5 SWAP1 MSTORE PUSH1 0x44 ADD PUSH1 0x20 PUSH1 0x40 MLOAD DUP1 DUP4 SUB DUP2 PUSH0 DUP8 GAS CALL ISZERO DUP1 ISZERO PUSH2 0x4FF JUMPI RETURNDATASIZE PUSH0 DUP1 RETURNDATACOPY RETURNDATASIZE PUSH0 REVERT JUMPDEST POP POP POP POP PUSH1 0x40 MLOAD RETURNDATASIZE PUSH1 0x1F NOT PUSH1 0x1F DUP3 ADD AND DUP3 ADD DUP1 PUSH1 0x40 MSTORE POP DUP2 ADD SWAP1 PUSH2 0x523 SWAP2 SWAP1 PUSH2 0xEE7 JUMP JUMPDEST PUSH2 0x568 JUMPI PUSH1 0x40 MLOAD PUSH3 0x461BCD PUSH1 0xE5 SHL DUP2 MSTORE PUSH1 0x20 PUSH1 0x4 DUP3 ADD MSTORE PUSH1 0x11 PUSH1 0x24 DUP3 ADD MSTORE PUSH17 0x15DA5D1A191C985DD85B0819985A5B1959 PUSH1 0x7A SHL PUSH1 0x44 DUP3 ADD MSTORE PUSH1 0x64 ADD JUMPDEST PUSH1 0x40 MLOAD DUP1 SWAP2 SUB SWAP1 REVERT JUMPDEST POP JUMP JUMPDEST PUSH2 0x573 PUSH2 0xD25 JUMP JUMPDEST PUSH0 PUSH1 0x2 PUSH0 DUP4 PUSH1 0x2 DUP2 GT ISZERO PUSH2 0x589 JUMPI PUSH2 0x589 PUSH2 0xE69 JUMP JUMPDEST PUSH1 0x2 DUP2 GT ISZERO PUSH2 0x59A JUMPI PUSH2 0x59A PUSH2 0xE69 JUMP JUMPDEST DUP2 MSTORE PUSH1 0x20 DUP1 DUP3 ADD SWAP3 SWAP1 SWAP3 MSTORE PUSH1 0x40 SWAP1 DUP2 ADD PUSH0 KECCAK256 DUP2 MLOAD PUSH1 0x60 DUP2 ADD DUP4 MSTORE DUP2 SLOAD DUP2 MSTORE PUSH1 0x1 DUP3 ADD SLOAD SWAP4 DUP2 ADD DUP5 SWAP1 MSTORE PUSH1 0x2 SWAP1 SWAP2 ADD SLOAD PUSH1 0xFF AND ISZERO ISZERO SWAP2 DUP2 ADD SWAP2 SWAP1 SWAP2 MSTORE SWAP2 POP ISZERO PUSH2 0x6D1 JUMPI PUSH1 0x1 SLOAD PUSH1 0x20 DUP3 ADD MLOAD PUSH1 0x40 MLOAD PUSH4 0x23B872DD PUSH1 0xE0 SHL DUP2 MSTORE CALLER PUSH1 0x4 DUP3 ADD MSTORE ADDRESS PUSH1 0x24 DUP3 ADD MSTORE PUSH1 0x44 DUP2 ADD SWAP2 SWAP1 SWAP2 MSTORE PUSH1 0x1 PUSH1 0x1 PUSH1 0xA0 SHL SUB SWAP1 SWAP2 AND SWAP1 PUSH4 0x23B872DD SWAP1 PUSH1 0x64 ADD PUSH1 0x20 PUSH1 0x40 MLOAD DUP1 DUP4 SUB DUP2 PUSH0 DUP8 GAS CALL ISZERO DUP1 ISZERO PUSH2 0x636 JUMPI RETURNDATASIZE PUSH0 DUP1 RETURNDATACOPY RETURNDATASIZE PUSH0 REVERT JUMPDEST POP POP POP POP PUSH1 0x40 MLOAD RETURNDATASIZE PUSH1 0x1F NOT PUSH1 0x1F DUP3 ADD AND DUP3 ADD DUP1 PUSH1 0x40 MSTORE POP DUP2 ADD SWAP1 PUSH2 0x65A SWAP2 SWAP1 PUSH2 0xEE7 JUMP JUMPDEST PUSH2 0x697 JUMPI PUSH1 0x40 MLOAD PUSH3 0x461BCD PUSH1 0xE5 SHL DUP2 MSTORE PUSH1 0x20 PUSH1 0x4 DUP3 ADD MSTORE PUSH1 0xE PUSH1 0x24 DUP3 ADD MSTORE PUSH14 0x14185E5B595B9D0819985A5B1959 PUSH1 0x92 SHL PUSH1 0x44 DUP3 ADD MSTORE PUSH1 0x64 ADD PUSH2 0x55F JUMP JUMPDEST PUSH1 0x20 DUP1 DUP3 ADD MLOAD PUSH1 0x40 MLOAD SWAP1 DUP2 MSTORE CALLER SWAP2 PUSH32 0x149B8EF5614C26B28A55BB6A04B1B9CA363691C31302C66A7C6A32C91C0653CE SWAP2 ADD PUSH1 0x40 MLOAD DUP1 SWAP2 SUB SWAP1 LOG2 JUMPDEST PUSH1 0x40 MLOAD DUP1 PUSH1 0x60 ADD PUSH1 0x40 MSTORE DUP1 DUP4 PUSH1 0x2 DUP2 GT ISZERO PUSH2 0x6EE JUMPI PUSH2 0x6EE PUSH2 0xE69 JUMP JUMPDEST DUP2 MSTORE PUSH1 0x20 ADD TIMESTAMP DUP2 MSTORE PUSH1 0x20 ADD TIMESTAMP PUSH3 0x278D00 PUSH2 0x708 SWAP2 SWAP1 PUSH2 0xF16 JUMP JUMPDEST SWAP1 MSTORE CALLER PUSH0 SWAP1 DUP2 MSTORE PUSH1 0x3 PUSH1 0x20 MSTORE PUSH1 0x40 SWAP1 KECCAK256 DUP2 MLOAD DUP2 SLOAD DUP3 SWAP1 PUSH1 0xFF NOT AND PUSH1 0x1 DUP4 PUSH1 0x2 DUP2 GT ISZERO PUSH2 0x736 JUMPI PUSH2 0x736 PUSH2 0xE69 JUMP JUMPDEST MUL OR SWAP1 SSTORE POP PUSH1 0x20 DUP3 ADD MLOAD PUSH1 0x1 DUP3 ADD SSTORE PUSH1 0x40 SWAP2 DUP3 ADD MLOAD PUSH1 0x2 SWAP1 SWAP2 ADD SSTORE MLOAD CALLER SWAP1 PUSH32 0xCE8D9E12780003DBEB4FD0ED5AB85FEE8F44A69557FDBB3579DEE544318229FB SWAP1 PUSH2 0x781 SWAP1 DUP6 SWAP1 PUSH2 0xEBC JUMP JUMPDEST PUSH1 0x40 MLOAD DUP1 SWAP2 SUB SWAP1 LOG2 POP PUSH2 0x568 PUSH1 0x1 PUSH0 DUP1 MLOAD PUSH1 0x20 PUSH2 0xF55 DUP4 CODECOPY DUP2 MLOAD SWAP2 MSTORE SSTORE JUMP JUMPDEST PUSH2 0x7A8 PUSH2 0xCF9 JUMP JUMPDEST PUSH2 0x7B1 PUSH0 PUSH2 0xD40 JUMP JUMPDEST JUMP JUMPDEST PUSH1 0x1 PUSH1 0x1 PUSH1 0xA0 SHL SUB DUP2 AND PUSH0 DUP2 DUP2 MSTORE PUSH1 0x4 PUSH1 0x20 SWAP1 DUP2 MSTORE PUSH1 0x40 DUP1 DUP4 KECCAK256 DUP2 MLOAD DUP1 DUP4 ADD DUP4 MSTORE DUP2 SLOAD DUP2 MSTORE PUSH1 0x1 SWAP1 SWAP2 ADD SLOAD DUP2 DUP5 ADD MSTORE SWAP4 DUP4 MSTORE PUSH1 0x3 SWAP1 SWAP2 MSTORE DUP2 KECCAK256 SLOAD SWAP1 SWAP2 SWAP1 DUP3 SWAP1 PUSH1 0x2 SWAP1 DUP3 SWAP1 PUSH1 0xFF AND DUP3 DUP2 GT ISZERO PUSH2 0x80A JUMPI PUSH2 0x80A PUSH2 0xE69 JUMP JUMPDEST PUSH1 0x2 DUP2 GT ISZERO PUSH2 0x81B JUMPI PUSH2 0x81B PUSH2 0xE69 JUMP JUMPDEST DUP2 MSTORE PUSH1 0x20 DUP1 DUP3 ADD SWAP3 SWAP1 SWAP3 MSTORE PUSH1 0x40 SWAP1 DUP2 ADD PUSH0 KECCAK256 DUP2 MLOAD PUSH1 0x60 DUP2 ADD DUP4 MSTORE DUP2 SLOAD DUP2 MSTORE PUSH1 0x1 DUP3 ADD SLOAD DUP2 DUP6 ADD MSTORE PUSH1 0x2 SWAP1 SWAP2 ADD SLOAD PUSH1 0xFF AND ISZERO ISZERO SWAP2 DUP2 ADD SWAP2 SWAP1 SWAP2 MSTORE SWAP1 DUP4 ADD MLOAD SWAP1 SWAP2 POP PUSH2 0x868 SWAP1 PUSH3 0x15180 PUSH2 0xF16 JUMP JUMPDEST TIMESTAMP LT PUSH2 0x876 JUMPI MLOAD SWAP4 SWAP3 POP POP POP JUMP JUMPDEST DUP1 MLOAD DUP3 MLOAD LT PUSH2 0x888 JUMPI POP PUSH0 SWAP4 SWAP3 POP POP POP JUMP JUMPDEST DUP2 MLOAD DUP2 MLOAD PUSH2 0x896 SWAP2 SWAP1 PUSH2 0xF29 JUMP JUMPDEST SWAP5 SWAP4 POP POP POP POP JUMP JUMPDEST PUSH1 0x1 PUSH1 0x1 PUSH1 0xA0 SHL SUB DUP2 AND PUSH0 SWAP1 DUP2 MSTORE PUSH1 0x3 PUSH1 0x20 MSTORE PUSH1 0x40 DUP2 KECCAK256 SLOAD PUSH1 0x2 SWAP1 DUP3 SWAP1 PUSH1 0xFF AND DUP3 DUP2 GT ISZERO PUSH2 0x8CE JUMPI PUSH2 0x8CE PUSH2 0xE69 JUMP JUMPDEST PUSH1 0x2 DUP2 GT ISZERO PUSH2 0x8DF JUMPI PUSH2 0x8DF PUSH2 0xE69 JUMP JUMPDEST DUP2 MSTORE PUSH1 0x20 DUP2 ADD SWAP2 SWAP1 SWAP2 MSTORE PUSH1 0x40 ADD PUSH0 KECCAK256 PUSH1 0x2 ADD SLOAD PUSH1 0xFF AND SWAP3 SWAP2 POP POP JUMP JUMPDEST PUSH1 0x1 PUSH1 0x1 PUSH1 0xA0 SHL SUB DUP2 AND PUSH0 SWAP1 DUP2 MSTORE PUSH1 0x3 PUSH1 0x20 MSTORE PUSH1 0x40 DUP1 DUP3 KECCAK256 DUP2 MLOAD PUSH1 0x60 DUP2 ADD SWAP1 SWAP3 MSTORE DUP1 SLOAD DUP3 SWAP1 PUSH1 0xFF AND PUSH1 0x2 DUP2 GT ISZERO PUSH2 0x934 JUMPI PUSH2 0x934 PUSH2 0xE69 JUMP JUMPDEST PUSH1 0x2 DUP2 GT ISZERO PUSH2 0x945 JUMPI PUSH2 0x945 PUSH2 0xE69 JUMP JUMPDEST DUP2 MSTORE PUSH1 0x20 ADD PUSH1 0x1 DUP3 ADD SLOAD DUP2 MSTORE PUSH1 0x20 ADD PUSH1 0x2 DUP3 ADD SLOAD DUP2 MSTORE POP POP SWAP1 POP PUSH0 PUSH1 0x2 PUSH0 DUP4 PUSH0 ADD MLOAD PUSH1 0x2 DUP2 GT ISZERO PUSH2 0x978 JUMPI PUSH2 0x978 PUSH2 0xE69 JUMP JUMPDEST PUSH1 0x2 DUP2 GT ISZERO PUSH2 0x989 JUMPI PUSH2 0x989 PUSH2 0xE69 JUMP JUMPDEST DUP2 MSTORE PUSH1 0x20 DUP1 DUP3 ADD SWAP3 SWAP1 SWAP3 MSTORE PUSH1 0x40 SWAP1 DUP2 ADD PUSH0 SWAP1 DUP2 KECCAK256 DUP3 MLOAD PUSH1 0x60 DUP2 ADD DUP5 MSTORE DUP2 SLOAD DUP2 MSTORE PUSH1 0x1 DUP1 DUP4 ADD SLOAD DUP3 DUP8 ADD MSTORE PUSH1 0x2 SWAP1 SWAP3 ADD SLOAD PUSH1 0xFF AND ISZERO ISZERO DUP2 DUP6 ADD MSTORE PUSH1 0x1 PUSH1 0x1 PUSH1 0xA0 SHL SUB DUP9 AND DUP4 MSTORE PUSH1 0x4 SWAP1 SWAP5 MSTORE SWAP2 SWAP1 KECCAK256 SWAP1 DUP2 ADD SLOAD SWAP2 SWAP3 POP SWAP1 PUSH2 0x9EB SWAP1 PUSH3 0x15180 PUSH2 0xF16 JUMP JUMPDEST TIMESTAMP LT PUSH2 0xA00 JUMPI PUSH1 0x1 DUP1 DUP3 SSTORE TIMESTAMP SWAP1 DUP3 ADD SSTORE PUSH2 0xA13 JUMP JUMPDEST DUP1 SLOAD DUP2 PUSH0 PUSH2 0xA0D DUP4 PUSH2 0xF3C JUMP JUMPDEST SWAP2 SWAP1 POP SSTORE POP JUMPDEST DUP2 MLOAD DUP2 SLOAD GT ISZERO PUSH2 0xA65 JUMPI PUSH1 0x40 MLOAD PUSH3 0x461BCD PUSH1 0xE5 SHL DUP2 MSTORE PUSH1 0x20 PUSH1 0x4 DUP3 ADD DUP2 SWAP1 MSTORE PUSH1 0x24 DUP3 ADD MSTORE PUSH32 0x4461696C79207472616E73616374696F6E206C696D6974206578636565646564 PUSH1 0x44 DUP3 ADD MSTORE PUSH1 0x64 ADD PUSH2 0x55F JUMP JUMPDEST DUP1 SLOAD PUSH1 0x40 MLOAD SWAP1 DUP2 MSTORE PUSH1 0x1 PUSH1 0x1 PUSH1 0xA0 SHL SUB DUP6 AND SWAP1 PUSH32 0x4E86AD0DA28CBAAAA7E93E36C43B32696E970535225B316F1B84FBF30BDC04E8 SWAP1 PUSH1 0x20 ADD PUSH1 0x40 MLOAD DUP1 SWAP2 SUB SWAP1 LOG2 POP POP POP POP JUMP JUMPDEST PUSH2 0xAB3 PUSH2 0xD25 JUMP JUMPDEST PUSH1 0x1 PUSH1 0x1 PUSH1 0xA0 SHL SUB DUP2 AND PUSH0 SWAP1 DUP2 MSTORE PUSH1 0x3 PUSH1 0x20 MSTORE PUSH1 0x40 SWAP1 KECCAK256 PUSH1 0x2 DUP2 ADD SLOAD TIMESTAMP LT ISZERO PUSH2 0xB13 JUMPI PUSH1 0x40 MLOAD PUSH3 0x461BCD PUSH1 0xE5 SHL DUP2 MSTORE PUSH1 0x20 PUSH1 0x4 DUP3 ADD MSTORE PUSH1 0x12 PUSH1 0x24 DUP3 ADD MSTORE PUSH18 0x546F6F206561726C7920746F2072656E6577 PUSH1 0x70 SHL PUSH1 0x44 DUP3 ADD MSTORE PUSH1 0x64 ADD PUSH2 0x55F JUMP JUMPDEST DUP1 SLOAD PUSH0 SWAP1 PUSH1 0x2 SWAP1 DUP3 SWAP1 PUSH1 0xFF AND DUP3 DUP2 GT ISZERO PUSH2 0xB2F JUMPI PUSH2 0xB2F PUSH2 0xE69 JUMP JUMPDEST PUSH1 0x2 DUP2 GT ISZERO PUSH2 0xB40 JUMPI PUSH2 0xB40 PUSH2 0xE69 JUMP JUMPDEST DUP2 MSTORE PUSH1 0x20 DUP1 DUP3 ADD SWAP3 SWAP1 SWAP3 MSTORE PUSH1 0x40 SWAP1 DUP2 ADD PUSH0 KECCAK256 DUP2 MLOAD PUSH1 0x60 DUP2 ADD DUP4 MSTORE DUP2 SLOAD DUP2 MSTORE PUSH1 0x1 DUP3 ADD SLOAD SWAP4 DUP2 ADD DUP5 SWAP1 MSTORE PUSH1 0x2 SWAP1 SWAP2 ADD SLOAD PUSH1 0xFF AND ISZERO ISZERO SWAP2 DUP2 ADD SWAP2 SWAP1 SWAP2 MSTORE SWAP2 POP ISZERO PUSH2 0xC8A JUMPI PUSH1 0x1 SLOAD PUSH1 0x20 DUP3 ADD MLOAD PUSH1 0x40 MLOAD PUSH4 0x23B872DD PUSH1 0xE0 SHL DUP2 MSTORE PUSH1 0x1 PUSH1 0x1 PUSH1 0xA0 SHL SUB DUP7 DUP2 AND PUSH1 0x4 DUP4 ADD MSTORE ADDRESS PUSH1 0x24 DUP4 ADD MSTORE PUSH1 0x44 DUP3 ADD SWAP3 SWAP1 SWAP3 MSTORE SWAP2 AND SWAP1 PUSH4 0x23B872DD SWAP1 PUSH1 0x64 ADD PUSH1 0x20 PUSH1 0x40 MLOAD DUP1 DUP4 SUB DUP2 PUSH0 DUP8 GAS CALL ISZERO DUP1 ISZERO PUSH2 0xBDD JUMPI RETURNDATASIZE PUSH0 DUP1 RETURNDATACOPY RETURNDATASIZE PUSH0 REVERT JUMPDEST POP POP POP POP PUSH1 0x40 MLOAD RETURNDATASIZE PUSH1 0x1F NOT PUSH1 0x1F DUP3 ADD AND DUP3 ADD DUP1 PUSH1 0x40 MSTORE POP DUP2 ADD SWAP1 PUSH2 0xC01 SWAP2 SWAP1 PUSH2 0xEE7 JUMP JUMPDEST PUSH2 0xC42 JUMPI PUSH1 0x40 MLOAD PUSH3 0x461BCD PUSH1 0xE5 SHL DUP2 MSTORE PUSH1 0x20 PUSH1 0x4 DUP3 ADD MSTORE PUSH1 0x12 PUSH1 0x24 DUP3 ADD MSTORE PUSH18 0x105D5D1BCB5919591D58DD0819985A5B1959 PUSH1 0x72 SHL PUSH1 0x44 DUP3 ADD MSTORE PUSH1 0x64 ADD PUSH2 0x55F JUMP JUMPDEST DUP3 PUSH1 0x1 PUSH1 0x1 PUSH1 0xA0 SHL SUB AND PUSH32 0x149B8EF5614C26B28A55BB6A04B1B9CA363691C31302C66A7C6A32C91C0653CE DUP3 PUSH1 0x20 ADD MLOAD PUSH1 0x40 MLOAD PUSH2 0xC81 SWAP2 DUP2 MSTORE PUSH1 0x20 ADD SWAP1 JUMP JUMPDEST PUSH1 0x40 MLOAD DUP1 SWAP2 SUB SWAP1 LOG2 JUMPDEST TIMESTAMP PUSH1 0x1 DUP4 ADD DUP2 SWAP1 SSTORE PUSH2 0xC9F SWAP1 PUSH3 0x278D00 PUSH2 0xF16 JUMP JUMPDEST DUP3 PUSH1 0x2 ADD DUP2 SWAP1 SSTORE POP POP POP PUSH2 0x568 PUSH1 0x1 PUSH0 DUP1 MLOAD PUSH1 0x20 PUSH2 0xF55 DUP4 CODECOPY DUP2 MLOAD SWAP2 MSTORE SSTORE JUMP JUMPDEST PUSH2 0xCC7 PUSH2 0xCF9 JUMP JUMPDEST PUSH1 0x1 PUSH1 0x1 PUSH1 0xA0 SHL SUB DUP2 AND PUSH2 0xCF0 JUMPI PUSH1 0x40 MLOAD PUSH4 0x1E4FBDF7 PUSH1 0xE0 SHL DUP2 MSTORE PUSH0 PUSH1 0x4 DUP3 ADD MSTORE PUSH1 0x24 ADD PUSH2 0x55F JUMP JUMPDEST PUSH2 0x568 DUP2 PUSH2 0xD40 JUMP JUMPDEST PUSH0 SLOAD PUSH1 0x1 PUSH1 0x1 PUSH1 0xA0 SHL SUB AND CALLER EQ PUSH2 0x7B1 JUMPI PUSH1 0x40 MLOAD PUSH4 0x118CDAA7 PUSH1 0xE0 SHL DUP2 MSTORE CALLER PUSH1 0x4 DUP3 ADD MSTORE PUSH1 0x24 ADD PUSH2 0x55F JUMP JUMPDEST PUSH2 0xD2D PUSH2 0xD8F JUMP JUMPDEST PUSH1 0x2 PUSH0 DUP1 MLOAD PUSH1 0x20 PUSH2 0xF55 DUP4 CODECOPY DUP2 MLOAD SWAP2 MSTORE SSTORE JUMP JUMPDEST PUSH0 DUP1 SLOAD PUSH1 0x1 PUSH1 0x1 PUSH1 0xA0 SHL SUB DUP4 DUP2 AND PUSH1 0x1 PUSH1 0x1 PUSH1 0xA0 SHL SUB NOT DUP4 AND DUP2 OR DUP5 SSTORE PUSH1 0x40 MLOAD SWAP2 SWAP1 SWAP3 AND SWAP3 DUP4 SWAP2 PUSH32 0x8BE0079C531659141344CD1FD0A4F28419497F9722A3DAAFE3B4186F6B6457E0 SWAP2 SWAP1 LOG3 POP POP JUMP JUMPDEST PUSH0 DUP1 MLOAD PUSH1 0x20 PUSH2 0xF55 DUP4 CODECOPY DUP2 MLOAD SWAP2 MSTORE SLOAD PUSH1 0x2 SUB PUSH2 0x7B1 JUMPI PUSH1 0x40 MLOAD PUSH4 0x3EE5AEB5 PUSH1 0xE0 SHL DUP2 MSTORE PUSH1 0x4 ADD PUSH1 0x40 MLOAD DUP1 SWAP2 SUB SWAP1 REVERT JUMPDEST DUP1 CALLDATALOAD PUSH1 0x3 DUP2 LT PUSH2 0xDCC JUMPI PUSH0 DUP1 REVERT JUMPDEST SWAP2 SWAP1 POP JUMP JUMPDEST DUP1 ISZERO ISZERO DUP2 EQ PUSH2 0x568 JUMPI PUSH0 DUP1 REVERT JUMPDEST PUSH0 DUP1 PUSH0 DUP1 PUSH1 0x80 DUP6 DUP8 SUB SLT ISZERO PUSH2 0xDF1 JUMPI PUSH0 DUP1 REVERT JUMPDEST PUSH2 0xDFA DUP6 PUSH2 0xDBE JUMP JUMPDEST SWAP4 POP PUSH1 0x20 DUP6 ADD CALLDATALOAD SWAP3 POP PUSH1 0x40 DUP6 ADD CALLDATALOAD SWAP2 POP PUSH1 0x60 DUP6 ADD CALLDATALOAD PUSH2 0xE18 DUP2 PUSH2 0xDD1 JUMP JUMPDEST SWAP4 SWAP7 SWAP3 SWAP6 POP SWAP1 SWAP4 POP POP JUMP JUMPDEST PUSH0 PUSH1 0x20 DUP3 DUP5 SUB SLT ISZERO PUSH2 0xE33 JUMPI PUSH0 DUP1 REVERT JUMPDEST PUSH2 0xE3C DUP3 PUSH2 0xDBE JUMP JUMPDEST SWAP4 SWAP3 POP POP POP JUMP JUMPDEST PUSH0 PUSH1 0x20 DUP3 DUP5 SUB SLT ISZERO PUSH2 0xE53 JUMPI PUSH0 DUP1 REVERT JUMPDEST DUP2 CALLDATALOAD PUSH1 0x1 PUSH1 0x1 PUSH1 0xA0 SHL SUB DUP2 AND DUP2 EQ PUSH2 0xE3C JUMPI PUSH0 DUP1 REVERT JUMPDEST PUSH4 0x4E487B71 PUSH1 0xE0 SHL PUSH0 MSTORE PUSH1 0x21 PUSH1 0x4 MSTORE PUSH1 0x24 PUSH0 REVERT JUMPDEST PUSH1 0x3 DUP2 LT PUSH2 0xE99 JUMPI PUSH4 0x4E487B71 PUSH1 0xE0 SHL PUSH0 MSTORE PUSH1 0x21 PUSH1 0x4 MSTORE PUSH1 0x24 PUSH0 REVERT JUMPDEST SWAP1 MSTORE JUMP JUMPDEST PUSH1 0x60 DUP2 ADD PUSH2 0xEAB DUP3 DUP7 PUSH2 0xE7D JUMP JUMPDEST PUSH1 0x20 DUP3 ADD SWAP4 SWAP1 SWAP4 MSTORE PUSH1 0x40 ADD MSTORE SWAP2 SWAP1 POP JUMP JUMPDEST PUSH1 0x20 DUP2 ADD PUSH2 0xECA DUP3 DUP5 PUSH2 0xE7D JUMP JUMPDEST SWAP3 SWAP2 POP POP JUMP JUMPDEST PUSH0 PUSH1 0x20 DUP3 DUP5 SUB SLT ISZERO PUSH2 0xEE0 JUMPI PUSH0 DUP1 REVERT JUMPDEST POP MLOAD SWAP2 SWAP1 POP JUMP JUMPDEST PUSH0 PUSH1 0x20 DUP3 DUP5 SUB SLT ISZERO PUSH2 0xEF7 JUMPI PUSH0 DUP1 REVERT JUMPDEST DUP2 MLOAD PUSH2 0xE3C DUP2 PUSH2 0xDD1 JUMP JUMPDEST PUSH4 0x4E487B71 PUSH1 0xE0 SHL PUSH0 MSTORE PUSH1 0x11 PUSH1 0x4 MSTORE PUSH1 0x24 PUSH0 REVERT JUMPDEST DUP1 DUP3 ADD DUP1 DUP3 GT ISZERO PUSH2 0xECA JUMPI PUSH2 0xECA PUSH2 0xF02 JUMP JUMPDEST DUP2 DUP2 SUB DUP2 DUP2 GT ISZERO PUSH2 0xECA JUMPI PUSH2 0xECA PUSH2 0xF02 JUMP JUMPDEST PUSH0 PUSH1 0x1 DUP3 ADD PUSH2 0xF4D JUMPI PUSH2 0xF4D PUSH2 0xF02 JUMP JUMPDEST POP PUSH1 0x1 ADD SWAP1 JUMP INVALID SWAP12 PUSH24 0x9B17422D0DF92223018B32B4D1FA46E071723D6817E2486D STOP EXTCODESIZE 0xEC 0xC5 PUSH0 STOP LOG2 PUSH5 0x6970667358 0x22 SLT KECCAK256 0x4B 0xCF 0xC6 PUSH10 0xBD77924AE726097E487A 0x23 TIMESTAMP 0xE7 BLOCKHASH 0xD DELEGATECALL PUSH9 0x9CBA0BB47E6AFCF8B7 PUSH13 0xFD64736F6C6343000818003300 "},"methodIdentifiers":{"cancelSubscription()":"24e9edb0","checkNFTAccess(address)":"a8efed75","getRemainingTransactions(address)":"88d11d33","getUserTier(address)":"e4d2620e","mockUSD()":"f1a7ac9f","owner()":"8da5cb5b","recordTransaction(address)":"abfbd2dc","renewSubscription(address)":"e02eb109","renounceOwnership()":"715018a6","subscribe(uint8)":"49c7e639","tiers(uint8)":"d1d79974","transferOwnership(address)":"f2fde38b","updateTierInfo(uint8,uint256,uint256,bool)":"1db1c61a","userDailyUsage(address)":"dbe1ecd3","userSubscriptions(address)":"cf14b9e4","withdrawFees()":"476343ee"}}}}}