{
  "_format": "hh-sol-artifact-1",
  "contractName": "SpectraExchange",
  "sourceName": "src/SpectraExchange.sol",
  "abi": [
    {
      "inputs": [
        {
          "internalType": "address",
          "name": "_saasContract",
          "type": "address"
        },
        {
          "internalType": "address",
          "name": "_mockUSD",
          "type": "address"
        }
      ],
      "stateMutability": "nonpayable",
      "type": "constructor"
    },
    {
      "inputs": [
        {
          "internalType": "address",
          "name": "owner",
          "type": "address"
        }
      ],
      "name": "OwnableInvalidOwner",
      "type": "error"
    },
    {
      "inputs": [
        {
          "internalType": "address",
          "name": "account",
          "type": "address"
        }
      ],
      "name": "OwnableUnauthorizedAccount",
      "type": "error"
    },
    {
      "inputs": [],
      "name": "ReentrancyGuardReentrantCall",
      "type": "error"
    },
    {
      "anonymous": false,
      "inputs": [
        {
          "indexed": true,
          "internalType": "address",
          "name": "previousOwner",
          "type": "address"
        },
        {
          "indexed": true,
          "internalType": "address",
          "name": "newOwner",
          "type": "address"
        }
      ],
      "name": "OwnershipTransferred",
      "type": "event"
    },
    {
      "anonymous": false,
      "inputs": [
        {
          "indexed": true,
          "internalType": "address",
          "name": "user",
          "type": "address"
        },
        {
          "indexed": false,
          "internalType": "uint256",
          "name": "currentCount",
          "type": "uint256"
        }
      ],
      "name": "QuotaVerified",
      "type": "event"
    },
    {
      "anonymous": false,
      "inputs": [
        {
          "indexed": true,
          "internalType": "address",
          "name": "user",
          "type": "address"
        },
        {
          "indexed": false,
          "internalType": "address",
          "name": "tokenIn",
          "type": "address"
        },
        {
          "indexed": false,
          "internalType": "address",
          "name": "tokenOut",
          "type": "address"
        },
        {
          "indexed": false,
          "internalType": "uint256",
          "name": "amountIn",
          "type": "uint256"
        },
        {
          "indexed": false,
          "internalType": "uint256",
          "name": "amountOut",
          "type": "uint256"
        }
      ],
      "name": "SwapExecuted",
      "type": "event"
    },
    {
      "inputs": [],
      "name": "WETH",
      "outputs": [
        {
          "internalType": "address",
          "name": "",
          "type": "address"
        }
      ],
      "stateMutability": "view",
      "type": "function"
    },
    {
      "inputs": [
        {
          "internalType": "address",
          "name": "tokenIn",
          "type": "address"
        },
        {
          "internalType": "address",
          "name": "tokenOut",
          "type": "address"
        },
        {
          "internalType": "uint256",
          "name": "amountIn",
          "type": "uint256"
        }
      ],
      "name": "getQuote",
      "outputs": [
        {
          "internalType": "uint256",
          "name": "amountOut",
          "type": "uint256"
        }
      ],
      "stateMutability": "view",
      "type": "function"
    },
    {
      "inputs": [],
      "name": "mockUSD",
      "outputs": [
        {
          "internalType": "contract IERC20",
          "name": "",
          "type": "address"
        }
      ],
      "stateMutability": "view",
      "type": "function"
    },
    {
      "inputs": [],
      "name": "owner",
      "outputs": [
        {
          "internalType": "address",
          "name": "",
          "type": "address"
        }
      ],
      "stateMutability": "view",
      "type": "function"
    },
    {
      "inputs": [],
      "name": "renounceOwnership",
      "outputs": [],
      "stateMutability": "nonpayable",
      "type": "function"
    },
    {
      "inputs": [],
      "name": "saasContract",
      "outputs": [
        {
          "internalType": "contract SpectraSaaS",
          "name": "",
          "type": "address"
        }
      ],
      "stateMutability": "view",
      "type": "function"
    },
    {
      "inputs": [
        {
          "internalType": "address",
          "name": "_saasContract",
          "type": "address"
        }
      ],
      "name": "setSaasContract",
      "outputs": [],
      "stateMutability": "nonpayable",
      "type": "function"
    },
    {
      "inputs": [
        {
          "internalType": "address",
          "name": "tokenIn",
          "type": "address"
        },
        {
          "internalType": "address",
          "name": "tokenOut",
          "type": "address"
        },
        {
          "internalType": "uint256",
          "name": "amountIn",
          "type": "uint256"
        },
        {
          "internalType": "uint256",
          "name": "minAmountOut",
          "type": "uint256"
        }
      ],
      "name": "swap",
      "outputs": [],
      "stateMutability": "nonpayable",
      "type": "function"
    },
    {
      "inputs": [
        {
          "internalType": "address",
          "name": "newOwner",
          "type": "address"
        }
      ],
      "name": "transferOwnership",
      "outputs": [],
      "stateMutability": "nonpayable",
      "type": "function"
    },
    {
      "inputs": [
        {
          "internalType": "address",
          "name": "_mockUSD",
          "type": "address"
        }
      ],
      "name": "updateMockUSD",
      "outputs": [],
      "stateMutability": "nonpayable",
      "type": "function"
    },
    {
      "inputs": [
        {
          "internalType": "uint256",
          "name": "amount",
          "type": "uint256"
        }
      ],
      "name": "withdrawETH",
      "outputs": [],
      "stateMutability": "nonpayable",
      "type": "function"
    },
    {
      "inputs": [
        {
          "internalType": "address",
          "name": "token",
          "type": "address"
        },
        {
          "internalType": "uint256",
          "name": "amount",
          "type": "uint256"
        }
      ],
      "name": "withdrawToken",
      "outputs": [],
      "stateMutability": "nonpayable",
      "type": "function"
    },
    {
      "stateMutability": "payable",
      "type": "receive"
    }
  ],
  "bytecode": "0x608060405234801561000f575f80fd5b50604051610e7e380380610e7e83398101604081905261002e9161011c565b338061005357604051631e4fbdf760e01b81525f600482015260240160405180910390fd5b61005c816100b2565b5060017f9b779b17422d0df92223018b32b4d1fa46e071723d6817e2486d003becc55f0055600180546001600160a01b039384166001600160a01b0319918216179091556002805492909316911617905561014d565b5f80546001600160a01b038381166001600160a01b0319831681178455604051919092169283917f8be0079c531659141344cd1fd0a4f28419497f9722a3daafe3b4186f6b6457e09190a35050565b80516001600160a01b0381168114610117575f80fd5b919050565b5f806040838503121561012d575f80fd5b61013683610101565b915061014460208401610101565b90509250929050565b610d248061015a5f395ff3fe6080604052600436106100a8575f3560e01c8063c515ee2311610062578063c515ee2314610179578063e1346b38146101a6578063f14210a6146101c5578063f1a7ac9f146101e4578063f2fde38b14610203578063fe02915614610222575f80fd5b8063643960cc146100b3578063715018a6146100d4578063873de8a5146100e85780638da5cb5b146101245780639e281a9814610140578063ad5c46481461015f575f80fd5b366100af57005b5f80fd5b3480156100be575f80fd5b506100d26100cd366004610ba0565b610241565b005b3480156100df575f80fd5b506100d261026b565b3480156100f3575f80fd5b50600154610107906001600160a01b031681565b6040516001600160a01b0390911681526020015b60405180910390f35b34801561012f575f80fd5b505f546001600160a01b0316610107565b34801561014b575f80fd5b506100d261015a366004610bb9565b61027e565b34801561016a575f80fd5b506101076006602160991b0181565b348015610184575f80fd5b50610198610193366004610be1565b610319565b60405190815260200161011b565b3480156101b1575f80fd5b506100d26101c0366004610ba0565b610463565b3480156101d0575f80fd5b506100d26101df366004610c1a565b61048d565b3480156101ef575f80fd5b50600254610107906001600160a01b031681565b34801561020e575f80fd5b506100d261021d366004610ba0565b610530565b34801561022d575f80fd5b506100d261023c366004610c31565b61056d565b610249610a9a565b600280546001600160a01b0319166001600160a01b0392909216919091179055565b610273610a9a565b61027c5f610ac6565b565b610286610a9a565b816001600160a01b031663a9059cbb6102a65f546001600160a01b031690565b6040516001600160e01b031960e084901b1681526001600160a01b039091166004820152602481018490526044016020604051808303815f875af11580156102f0573d5f803e3d5ffd5b505050506040513d601f19601f820116820180604052508101906103149190610c70565b505050565b6002545f9073036cbd53842c5426634e7de0ee21189402dbf3de906001600160a01b03868116911614801561035d57506001600160a01b0384166006602160991b01145b1561038657610dac6103748464e8d4a51000610c8f565b61037e9190610cb8565b91505061045c565b6001600160a01b0385166006602160991b011480156103b257506002546001600160a01b038581169116145b156103c95764e8d4a5100061037484610dac610c8f565b806001600160a01b0316856001600160a01b03161480156103f957506001600160a01b0384166006602160991b01145b1561041057610dac6103748464e8d4a51000610c8f565b6001600160a01b0385166006602160991b011480156104405750806001600160a01b0316846001600160a01b0316145b156104575764e8d4a5100061037484610dac610c8f565b829150505b9392505050565b61046b610a9a565b600180546001600160a01b0319166001600160a01b0392909216919091179055565b610495610a9a565b5f80546040516001600160a01b039091169083908381818185875af1925050503d805f81146104df576040519150601f19603f3d011682016040523d82523d5f602084013e6104e4565b606091505b505090508061052c5760405162461bcd60e51b815260206004820152600f60248201526e15da5d1a191c985dc819985a5b1959608a1b60448201526064015b60405180910390fd5b5050565b610538610a9a565b6001600160a01b03811661056157604051631e4fbdf760e01b81525f6004820152602401610523565b61056a81610ac6565b50565b610575610b15565b600154604051632afef4b760e21b81523360048201819052916001600160a01b03169063abfbd2dc906024015f604051808303815f87803b1580156105b8575f80fd5b505af11580156105ca573d5f803e3d5ffd5b505050505f831161061d5760405162461bcd60e51b815260206004820152601d60248201527f416d6f756e74206d7573742062652067726561746572207468616e20300000006044820152606401610523565b6040516323b872dd60e01b8152336004820152306024820152604481018490526001600160a01b038616906323b872dd906064016020604051808303815f875af115801561066d573d5f803e3d5ffd5b505050506040513d601f19601f820116820180604052508101906106919190610c70565b6106dd5760405162461bcd60e51b815260206004820152601a60248201527f537065637472613a205472616e73666572496e206661696c65640000000000006044820152606401610523565b5f6106e9868686610319565b90508281101561073b5760405162461bcd60e51b815260206004820152601a60248201527f537065637472613a20536c69707061676520746f6f20686967680000000000006044820152606401610523565b6005602160991b01196001600160a01b0386160161084a57804710156107af5760405162461bcd60e51b815260206004820152602360248201527f537065637472613a20496e73756666696369656e7420455448206c697175696460448201526269747960e81b6064820152608401610523565b6040515f90339083908381818185875af1925050503d805f81146107ee576040519150601f19603f3d011682016040523d82523d5f602084013e6107f3565b606091505b50509050806108445760405162461bcd60e51b815260206004820152601f60248201527f537065637472613a20455448205472616e736665724f7574206661696c6564006044820152606401610523565b506109d2565b6040516370a0823160e01b815230600482015281906001600160a01b038716906370a0823190602401602060405180830381865afa15801561088e573d5f803e3d5ffd5b505050506040513d601f19601f820116820180604052508101906108b29190610cd7565b101561090e5760405162461bcd60e51b815260206004820152602560248201527f537065637472613a20496e73756666696369656e7420746f6b656e206c697175604482015264696469747960d81b6064820152608401610523565b60405163a9059cbb60e01b8152336004820152602481018290526001600160a01b0386169063a9059cbb906044016020604051808303815f875af1158015610958573d5f803e3d5ffd5b505050506040513d601f19601f8201168201806040525081019061097c9190610c70565b6109d25760405162461bcd60e51b815260206004820152602160248201527f537065637472613a20546f6b656e205472616e736665724f7574206661696c656044820152601960fa1b6064820152608401610523565b604080516001600160a01b038881168252871660208201529081018590526060810182905233907f764f0dc063c06f32d89a3f3af80c0db4be8a090901f589a478b447e0a51f09f19060800160405180910390a250806001600160a01b03167fcc9c55bc58fe3ae255bdd6f508db42e6997e18b578acfd2b1b94fa94688238365f604051610a6291815260200190565b60405180910390a250610a9460017f9b779b17422d0df92223018b32b4d1fa46e071723d6817e2486d003becc55f0055565b50505050565b5f546001600160a01b0316331461027c5760405163118cdaa760e01b8152336004820152602401610523565b5f80546001600160a01b038381166001600160a01b0319831681178455604051919092169283917f8be0079c531659141344cd1fd0a4f28419497f9722a3daafe3b4186f6b6457e09190a35050565b610b1d610b43565b60027f9b779b17422d0df92223018b32b4d1fa46e071723d6817e2486d003becc55f0055565b7f9b779b17422d0df92223018b32b4d1fa46e071723d6817e2486d003becc55f005460020361027c57604051633ee5aeb560e01b815260040160405180910390fd5b80356001600160a01b0381168114610b9b575f80fd5b919050565b5f60208284031215610bb0575f80fd5b61045c82610b85565b5f8060408385031215610bca575f80fd5b610bd383610b85565b946020939093013593505050565b5f805f60608486031215610bf3575f80fd5b610bfc84610b85565b9250610c0a60208501610b85565b9150604084013590509250925092565b5f60208284031215610c2a575f80fd5b5035919050565b5f805f8060808587031215610c44575f80fd5b610c4d85610b85565b9350610c5b60208601610b85565b93969395505050506040820135916060013590565b5f60208284031215610c80575f80fd5b8151801515811461045c575f80fd5b8082028115828204841417610cb257634e487b7160e01b5f52601160045260245ffd5b92915050565b5f82610cd257634e487b7160e01b5f52601260045260245ffd5b500490565b5f60208284031215610ce7575f80fd5b505191905056fea2646970667358221220b259cf2cb5439c4629d2c0dfbf99167b18b24bc9ddbb7d6987124e5ac08d990164736f6c63430008180033",
  "linkReferences": {},
  "deployedLinkReferences": {}
}