{
  "_format": "hh-sol-artifact-1",
  "contractName": "SpectraSaaS",
  "sourceName": "src/SpectraSaaS.sol",
  "abi": [
    {
      "inputs": [
        {
          "internalType": "address",
          "name": "_mockUSD",
          "type": "address"
        }
      ],
      "stateMutability": "nonpayable",
      "type": "constructor"
    },
    {
      "inputs": [
        {
          "internalType": "address",
          "name": "owner",
          "type": "address"
        }
      ],
      "name": "OwnableInvalidOwner",
      "type": "error"
    },
    {
      "inputs": [
        {
          "internalType": "address",
          "name": "account",
          "type": "address"
        }
      ],
      "name": "OwnableUnauthorizedAccount",
      "type": "error"
    },
    {
      "inputs": [],
      "name": "ReentrancyGuardReentrantCall",
      "type": "error"
    },
    {
      "anonymous": false,
      "inputs": [
        {
          "indexed": true,
          "internalType": "address",
          "name": "previousOwner",
          "type": "address"
        },
        {
          "indexed": true,
          "internalType": "address",
          "name": "newOwner",
          "type": "address"
        }
      ],
      "name": "OwnershipTransferred",
      "type": "event"
    },
    {
      "anonymous": false,
      "inputs": [
        {
          "indexed": true,
          "internalType": "address",
          "name": "user",
          "type": "address"
        },
        {
          "indexed": false,
          "internalType": "uint256",
          "name": "amount",
          "type": "uint256"
        }
      ],
      "name": "Renewed",
      "type": "event"
    },
    {
      "anonymous": false,
      "inputs": [
        {
          "indexed": true,
          "internalType": "address",
          "name": "user",
          "type": "address"
        },
        {
          "indexed": false,
          "internalType": "enum SpectraSaaS.PlanTier",
          "name": "tier",
          "type": "uint8"
        }
      ],
      "name": "Subscribed",
      "type": "event"
    },
    {
      "anonymous": false,
      "inputs": [
        {
          "indexed": true,
          "internalType": "address",
          "name": "user",
          "type": "address"
        }
      ],
      "name": "SubscriptionCancelled",
      "type": "event"
    },
    {
      "anonymous": false,
      "inputs": [
        {
          "indexed": true,
          "internalType": "address",
          "name": "user",
          "type": "address"
        },
        {
          "indexed": false,
          "internalType": "uint256",
          "name": "dailyCount",
          "type": "uint256"
        }
      ],
      "name": "TransactionExecuted",
      "type": "event"
    },
    {
      "inputs": [],
      "name": "cancelSubscription",
      "outputs": [],
      "stateMutability": "nonpayable",
      "type": "function"
    },
    {
      "inputs": [
        {
          "internalType": "address",
          "name": "_user",
          "type": "address"
        }
      ],
      "name": "checkNFTAccess",
      "outputs": [
        {
          "internalType": "bool",
          "name": "",
          "type": "bool"
        }
      ],
      "stateMutability": "view",
      "type": "function"
    },
    {
      "inputs": [
        {
          "internalType": "address",
          "name": "_user",
          "type": "address"
        }
      ],
      "name": "getRemainingTransactions",
      "outputs": [
        {
          "internalType": "uint256",
          "name": "",
          "type": "uint256"
        }
      ],
      "stateMutability": "view",
      "type": "function"
    },
    {
      "inputs": [
        {
          "internalType": "address",
          "name": "_user",
          "type": "address"
        }
      ],
      "name": "getUserTier",
      "outputs": [
        {
          "internalType": "enum SpectraSaaS.PlanTier",
          "name": "",
          "type": "uint8"
        }
      ],
      "stateMutability": "view",
      "type": "function"
    },
    {
      "inputs": [],
      "name": "mockUSD",
      "outputs": [
        {
          "internalType": "contract IERC20",
          "name": "",
          "type": "address"
        }
      ],
      "stateMutability": "view",
      "type": "function"
    },
    {
      "inputs": [],
      "name": "owner",
      "outputs": [
        {
          "internalType": "address",
          "name": "",
          "type": "address"
        }
      ],
      "stateMutability": "view",
      "type": "function"
    },
    {
      "inputs": [
        {
          "internalType": "address",
          "name": "_user",
          "type": "address"
        }
      ],
      "name": "recordTransaction",
      "outputs": [],
      "stateMutability": "nonpayable",
      "type": "function"
    },
    {
      "inputs": [
        {
          "internalType": "address",
          "name": "_user",
          "type": "address"
        }
      ],
      "name": "renewSubscription",
      "outputs": [],
      "stateMutability": "nonpayable",
      "type": "function"
    },
    {
      "inputs": [],
      "name": "renounceOwnership",
      "outputs": [],
      "stateMutability": "nonpayable",
      "type": "function"
    },
    {
      "inputs": [
        {
          "internalType": "enum SpectraSaaS.PlanTier",
          "name": "_tier",
          "type": "uint8"
        }
      ],
      "name": "subscribe",
      "outputs": [],
      "stateMutability": "nonpayable",
      "type": "function"
    },
    {
      "inputs": [
        {
          "internalType": "enum SpectraSaaS.PlanTier",
          "name": "",
          "type": "uint8"
        }
      ],
      "name": "tiers",
      "outputs": [
        {
          "internalType": "uint256",
          "name": "dailyTxLimit",
          "type": "uint256"
        },
        {
          "internalType": "uint256",
          "name": "monthlyFee",
          "type": "uint256"
        },
        {
          "internalType": "bool",
          "name": "hasNFTAccess",
          "type": "bool"
        }
      ],
      "stateMutability": "view",
      "type": "function"
    },
    {
      "inputs": [
        {
          "internalType": "address",
          "name": "newOwner",
          "type": "address"
        }
      ],
      "name": "transferOwnership",
      "outputs": [],
      "stateMutability": "nonpayable",
      "type": "function"
    },
    {
      "inputs": [
        {
          "internalType": "enum SpectraSaaS.PlanTier",
          "name": "_tier",
          "type": "uint8"
        },
        {
          "internalType": "uint256",
          "name": "_limit",
          "type": "uint256"
        },
        {
          "internalType": "uint256",
          "name": "_fee",
          "type": "uint256"
        },
        {
          "internalType": "bool",
          "name": "_nft",
          "type": "bool"
        }
      ],
      "name": "updateTierInfo",
      "outputs": [],
      "stateMutability": "nonpayable",
      "type": "function"
    },
    {
      "inputs": [
        {
          "internalType": "address",
          "name": "",
          "type": "address"
        }
      ],
      "name": "userDailyUsage",
      "outputs": [
        {
          "internalType": "uint256",
          "name": "count",
          "type": "uint256"
        },
        {
          "internalType": "uint256",
          "name": "firstTxTimestamp",
          "type": "uint256"
        }
      ],
      "stateMutability": "view",
      "type": "function"
    },
    {
      "inputs": [
        {
          "internalType": "address",
          "name": "",
          "type": "address"
        }
      ],
      "name": "userSubscriptions",
      "outputs": [
        {
          "internalType": "enum SpectraSaaS.PlanTier",
          "name": "tier",
          "type": "uint8"
        },
        {
          "internalType": "uint256",
          "name": "lastBillingTimestamp",
          "type": "uint256"
        },
        {
          "internalType": "uint256",
          "name": "nextBillingTimestamp",
          "type": "uint256"
        }
      ],
      "stateMutability": "view",
      "type": "function"
    },
    {
      "inputs": [],
      "name": "withdrawFees",
      "outputs": [],
      "stateMutability": "nonpayable",
      "type": "function"
    }
  ],
  "bytecode": "0x608060405234801561000f575f80fd5b506040516112ab3803806112ab83398101604081905261002e916102c7565b338061005357604051631e4fbdf760e01b81525f600482015260240160405180910390fd5b61005c81610278565b5060017f9b779b17422d0df92223018b32b4d1fa46e071723d6817e2486d003becc55f0055600180546001600160a01b03929092166001600160a01b03199092169190911781556040805160608082018352601482525f6020808401828152848601838152838052600280845295517fac33ff75c19e70fe83507db0d683fd3465c996598dc972688b7ace676c89077b5590517fac33ff75c19e70fe83507db0d683fd3465c996598dc972688b7ace676c89077c55517fac33ff75c19e70fe83507db0d683fd3465c996598dc972688b7ace676c89077d805491151560ff1992831617905585518085018752603c815262e4e1c081840190815281880189815289865287855291517fe90b7bceb6e7df5418fb78d8ee546e97c83a08bbccc01a0644d599ccd2a7c2e055517fe90b7bceb6e7df5418fb78d8ee546e97c83a08bbccc01a0644d599ccd2a7c2e155517fe90b7bceb6e7df5418fb78d8ee546e97c83a08bbccc01a0644d599ccd2a7c2e2805491151591831691909117905585519384018652606484526302ebae408483019081529584019687529184905292909252517f679795a0195a1b76cdebb7c51d74e058aee92919b8c3389af86ef24535e8a28c5590517f679795a0195a1b76cdebb7c51d74e058aee92919b8c3389af86ef24535e8a28d5590517f679795a0195a1b76cdebb7c51d74e058aee92919b8c3389af86ef24535e8a28e8054911515919092161790556102f4565b5f80546001600160a01b038381166001600160a01b0319831681178455604051919092169283917f8be0079c531659141344cd1fd0a4f28419497f9722a3daafe3b4186f6b6457e09190a35050565b5f602082840312156102d7575f80fd5b81516001600160a01b03811681146102ed575f80fd5b9392505050565b610faa806103015f395ff3fe608060405234801561000f575f80fd5b50600436106100fb575f3560e01c8063abfbd2dc11610093578063e02eb10911610063578063e02eb10914610288578063e4d2620e1461029b578063f1a7ac9f146102d3578063f2fde38b146102e6575f80fd5b8063abfbd2dc146101ac578063cf14b9e4146101bf578063d1d7997414610200578063dbe1ecd31461024d575f80fd5b8063715018a6116100ce578063715018a61461013757806388d11d331461013f5780638da5cb5b14610165578063a8efed7514610189575f80fd5b80631db1c61a146100ff57806324e9edb014610114578063476343ee1461011c57806349c7e63914610124575b5f80fd5b61011261010d366004610dde565b6102f9565b005b610112610382565b61011261041e565b610112610132366004610e23565b61056b565b6101126107a0565b61015261014d366004610e43565b6107b3565b6040519081526020015b60405180910390f35b5f546001600160a01b03165b6040516001600160a01b03909116815260200161015c565b61019c610197366004610e43565b61089e565b604051901515815260200161015c565b6101126101ba366004610e43565b6108fb565b6101f16101cd366004610e43565b60036020525f908152604090208054600182015460029092015460ff909116919083565b60405161015c93929190610e9d565b61023061020e366004610e23565b600260208190525f918252604090912080546001820154919092015460ff1683565b60408051938452602084019290925215159082015260600161015c565b61027361025b366004610e43565b60046020525f90815260409020805460019091015482565b6040805192835260208301919091520161015c565b610112610296366004610e43565b610aab565b6102c66102a9366004610e43565b6001600160a01b03165f9081526003602052604090205460ff1690565b60405161015c9190610ebc565b600154610171906001600160a01b031681565b6101126102f4366004610e43565b610cbf565b610301610cf9565b604051806060016040528084815260200183815260200182151581525060025f86600281111561033357610333610e69565b600281111561034457610344610e69565b815260208082019290925260409081015f208351815591830151600183015591909101516002909101805460ff191691151591909117905550505050565b604080516060810182525f80825242602080840182905283850191909152338252600390529190912081518154829060ff191660018360028111156103c9576103c9610e69565b0217905550602082015160018201556040918201516002909101555133907fce8d9e12780003dbeb4fd0ed5ab85fee8f44a69557fdbb3579dee544318229fb90610414905f90610ebc565b60405180910390a2565b610426610cf9565b6001546040516370a0823160e01b81523060048201525f916001600160a01b0316906370a0823190602401602060405180830381865afa15801561046c573d5f803e3d5ffd5b505050506040513d601f19601f820116820180604052508101906104909190610ed0565b6001549091506001600160a01b031663a9059cbb6104b55f546001600160a01b031690565b6040516001600160e01b031960e084901b1681526001600160a01b039091166004820152602481018490526044016020604051808303815f875af11580156104ff573d5f803e3d5ffd5b505050506040513d601f19601f820116820180604052508101906105239190610ee7565b6105685760405162461bcd60e51b815260206004820152601160248201527015da5d1a191c985dd85b0819985a5b1959607a1b60448201526064015b60405180910390fd5b50565b610573610d25565b5f60025f83600281111561058957610589610e69565b600281111561059a5761059a610e69565b815260208082019290925260409081015f20815160608101835281548152600182015493810184905260029091015460ff161515918101919091529150156106d15760015460208201516040516323b872dd60e01b815233600482015230602482015260448101919091526001600160a01b03909116906323b872dd906064016020604051808303815f875af1158015610636573d5f803e3d5ffd5b505050506040513d601f19601f8201168201806040525081019061065a9190610ee7565b6106975760405162461bcd60e51b815260206004820152600e60248201526d14185e5b595b9d0819985a5b195960921b604482015260640161055f565b60208082015160405190815233917f149b8ef5614c26b28a55bb6a04b1b9ca363691c31302c66a7c6a32c91c0653ce910160405180910390a25b60405180606001604052808360028111156106ee576106ee610e69565b81526020014281526020014262278d006107089190610f16565b9052335f90815260036020526040902081518154829060ff1916600183600281111561073657610736610e69565b0217905550602082015160018201556040918201516002909101555133907fce8d9e12780003dbeb4fd0ed5ab85fee8f44a69557fdbb3579dee544318229fb90610781908590610ebc565b60405180910390a25061056860015f80516020610f5583398151915255565b6107a8610cf9565b6107b15f610d40565b565b6001600160a01b0381165f81815260046020908152604080832081518083018352815481526001909101548184015293835260039091528120549091908290600290829060ff168281111561080a5761080a610e69565b600281111561081b5761081b610e69565b815260208082019290925260409081015f2081516060810183528154815260018201548185015260029091015460ff16151591810191909152908301519091506108689062015180610f16565b421061087657519392505050565b805182511061088857505f9392505050565b815181516108969190610f29565b949350505050565b6001600160a01b0381165f90815260036020526040812054600290829060ff16828111156108ce576108ce610e69565b60028111156108df576108df610e69565b815260208101919091526040015f206002015460ff1692915050565b6001600160a01b0381165f908152600360205260408082208151606081019092528054829060ff16600281111561093457610934610e69565b600281111561094557610945610e69565b81526020016001820154815260200160028201548152505090505f60025f835f0151600281111561097857610978610e69565b600281111561098957610989610e69565b815260208082019290925260409081015f9081208251606081018452815481526001808301548287015260029092015460ff161515818501526001600160a01b0388168352600490945291902090810154919250906109eb9062015180610f16565b4210610a005760018082554290820155610a13565b8054815f610a0d83610f3c565b91905055505b815181541115610a655760405162461bcd60e51b815260206004820181905260248201527f4461696c79207472616e73616374696f6e206c696d6974206578636565646564604482015260640161055f565b80546040519081526001600160a01b038516907f4e86ad0da28cbaaaa7e93e36c43b32696e970535225b316f1b84fbf30bdc04e89060200160405180910390a250505050565b610ab3610d25565b6001600160a01b0381165f9081526003602052604090206002810154421015610b135760405162461bcd60e51b8152602060048201526012602482015271546f6f206561726c7920746f2072656e657760701b604482015260640161055f565b80545f90600290829060ff1682811115610b2f57610b2f610e69565b6002811115610b4057610b40610e69565b815260208082019290925260409081015f20815160608101835281548152600182015493810184905260029091015460ff16151591810191909152915015610c8a5760015460208201516040516323b872dd60e01b81526001600160a01b03868116600483015230602483015260448201929092529116906323b872dd906064016020604051808303815f875af1158015610bdd573d5f803e3d5ffd5b505050506040513d601f19601f82011682018060405250810190610c019190610ee7565b610c425760405162461bcd60e51b8152602060048201526012602482015271105d5d1bcb5919591d58dd0819985a5b195960721b604482015260640161055f565b826001600160a01b03167f149b8ef5614c26b28a55bb6a04b1b9ca363691c31302c66a7c6a32c91c0653ce8260200151604051610c8191815260200190565b60405180910390a25b4260018301819055610c9f9062278d00610f16565b8260020181905550505061056860015f80516020610f5583398151915255565b610cc7610cf9565b6001600160a01b038116610cf057604051631e4fbdf760e01b81525f600482015260240161055f565b61056881610d40565b5f546001600160a01b031633146107b15760405163118cdaa760e01b815233600482015260240161055f565b610d2d610d8f565b60025f80516020610f5583398151915255565b5f80546001600160a01b038381166001600160a01b0319831681178455604051919092169283917f8be0079c531659141344cd1fd0a4f28419497f9722a3daafe3b4186f6b6457e09190a35050565b5f80516020610f55833981519152546002036107b157604051633ee5aeb560e01b815260040160405180910390fd5b803560038110610dcc575f80fd5b919050565b8015158114610568575f80fd5b5f805f8060808587031215610df1575f80fd5b610dfa85610dbe565b935060208501359250604085013591506060850135610e1881610dd1565b939692955090935050565b5f60208284031215610e33575f80fd5b610e3c82610dbe565b9392505050565b5f60208284031215610e53575f80fd5b81356001600160a01b0381168114610e3c575f80fd5b634e487b7160e01b5f52602160045260245ffd5b60038110610e9957634e487b7160e01b5f52602160045260245ffd5b9052565b60608101610eab8286610e7d565b602082019390935260400152919050565b60208101610eca8284610e7d565b92915050565b5f60208284031215610ee0575f80fd5b5051919050565b5f60208284031215610ef7575f80fd5b8151610e3c81610dd1565b634e487b7160e01b5f52601160045260245ffd5b80820180821115610eca57610eca610f02565b81810381811115610eca57610eca610f02565b5f60018201610f4d57610f4d610f02565b506001019056fe9b779b17422d0df92223018b32b4d1fa46e071723d6817e2486d003becc55f00a26469706673582212206c730a7382907680ec4c1391c226a617e44d2a7b4417f5352cc820e68de0c76564736f6c63430008180033",
  "linkReferences": {},
  "deployedLinkReferences": {}
}